:020000040800F2
:100000000049002021B200084598000847980008E0
:100010004B9800084F980008539800080000000013
:1000200000000000000000000000000057980008D9
:100030005998000800000000079700085D98000824
:100040003BB200083BB200083BB20008F574000860
:100050003BB200083BB200083BB200083BB20008CC
:100060003BB200083BB200083BB200083BB20008BC
:100070003BB200083BB200083BB200083BB20008AC
:100080003BB200083BB200083BB200083BB200089C
:100090003BB200083BB200083BB200083BB200088C
:1000A0003BB200083BB200083BB200083BB200087C
:1000B0003BB200083BB200083BB200083BB200086C
:1000C0003BB200083BB200083BB200083BB200085C
:1000D0003BB20008FD1A0008F72000089152000802
:1000E0003BB200083BB200083BB2000800F002F847
:1000F00000F090F80AA090E8000C82448344AAF132
:100100000107DA4501D100F085F8AFF2090EBAE82F
:100110000F0013F0010F18BFFB1A43F0010318473B
:10012000EC0401000C050100103A24BF78C878C126
:10013000FAD8520724BF30C830C144BF04680C60ED
:10014000704700000023002400250026103A28BF35
:1001500078C1FBD8520728BF30C148BF0B60704739
:100160006E290BF0C68470290BF07C8166290CF097
:10017000CF8565290CF0CC8567290CF0C9856129EC
:10018000AFF3008003681B0A28BF41F08001692992
:100190000BF0EA8064290BF0E78075290BF0E4800E
:1001A0006F290BF0C98578290BF04881E9290BF0FC
:1001B0006185E4290BF05E85F5290BF05B85EF295D
:1001C0000BF0C685F8290BF047810368DB0928BFCF
:1001D00041F0800163290BF0D08473290BF0D584A2
:1001E000E3290CF08680F3290CF08B800020704707
:1001F0001FB50BF0E3FB0400002000210CF05CFDB8
:10020000401C6060002000210CF06CFDE0601FBD10
:1002100010B510BD0CF09DF81146FFF7E9FF00F096
:10022000BDF90CF06DF903B4FFF7F2FF03BC07F062
:100230005BFA000030BF00000EB500BF642300224F
:100240001146104609F08FF907F0BDF807F07AF96A
:100250004FF4E131DE4807F05AFA4FF41651DD4809
:1002600007F055FA4FF49641DB4807F050FADBA04F
:1002700007F0E5FADBA007F0E2FAE2A007F0DFFA08
:10028000E649E7A007F0DBFAE9488079E8494979CF
:10029000E74A1279CDE900210290E548C3788278D7
:1002A0000188E4A007F0CBFAECA007F0C8FAF0A0B0
:1002B00007F0C5FAF5A007F0C2FA01229103FB4846
:1002C00007F0E8F907F06DFCF948007857282BD0C3
:1002D0005720F7490870F7A007F04EFDF449486031
:1002E00040F69F7008810D22F6A1F14828300BF0EE
:1002F000CCFA0020EE4988723C20C8864FF49670F4
:1003000008871E2048873C2088870D21E8483E301A
:100310000BF0EDFA0D21E6484B300BF0E8FAEDA0BA
:1003200007F0B5FA07F035FC40F2E241052007F08E
:10033000C5F9012008F091FBEB490860012008F0A5
:100340008CFBEA4908606421E94808F082FCE9492D
:100350000860012008F044FFE7490860012008F028
:100360003FFFE6490860E348006808F03CFD0723CA
:10037000E34A0021E34808F0FBFF0323E24A00219F
:10038000E24808F0F5FF0423E14A0021E14808F0C3
:10039000EFFF0623E04A0021E04808F0E9FF0523CB
:1003A000DF4A0021DF4808F0E3FF05E000230122D7
:1003B0001946184609F0D7F8F8E730B585B0684611
:1003C00009F079FD4FF47A720198B0FBF2F1B1F1C6
:1003D000807F00D31DE021F07F40401E4FF0E022DF
:1003E000506150170F22002807DA13071D0ECE4B5D
:1003F00000F00F04241F1D5503E013071C0ECB4B08
:100400001C5400BF00204FF0E022906107201061D3
:1004100000BF05B030BD30B58DB03022C44901A851
:100420000BF033FAC3A4002513E001A850F82510FF
:10043000032220460BF057F950B97D48807800EB35
:1004400080004006000E7A498870681C887002E0BF
:100450006D1C0C2DE9DB00BF241D00E0641C0AF0BC
:1004600001FF00682178405C2028F7D10020704906
:10047000C8700FE06E48C07800EB80004006000EA8
:100480006B49C8700846C1782078303808446849FC
:10049000C870641C0AF0E6FE00682178405C2028E1
:1004A000E8D000E0641C0AF0DDFE00682178405CC2
:1004B0002028F7D100205E49088011E05C480088C0
:1004C00000EB80004FF6FF7101EA400058490880B8
:1004D0000846018820783038084455490880641C53
:1004E0000AF0C0FE00682178405C2028E6D094A481
:1004F00000204F4908710FE04D48007900EB800063
:100500004006000E4A4908710846017920783038C3
:10051000084447490871641C0AF0A4FE0068217869
:10052000405C2028E8D0641C0020414948710FE05D
:100530003F48407900EB80004006000E3C4948717E
:100540000846417920783038084439494871641C9C
:100550000AF088FE00682178405C2028E8D0641CFE
:100560000020334988710FE03148807900EB80002A
:100570004006000E2E49887108468179207830386F
:1005800008442B498871641C0AF06CFE00682178CD
:10059000405C2028E8D026480DB030BD10B5FFF7EC
:1005A0003AFF06F086FD06F0DEFD08F011F8FFF7D1
:1005B00004FF0223654A0021654808F0D9FE04467D
:1005C000002009F012F808F062F8204610BD000083
:1005D0000038014000440040004800402020202016
:1005E0000D0A00002F2A2A2A2A2A2A2A2A2A2A2AF7
:1005F0002A2A2A2A2A2A2A2A2A2A2A2A2A2A2A2A5B
:100600000D0A000053544D33325F4750535F426C24
:1006100061636B5F626F61640D0A0000000000207F
:1006200056657273696F6E3A25730D0A00000000FB
:100630001C000020436F6D70696C653A2534642D91
:10064000253032642D2530326420253032643A253D
:100650003032643A253032640D0A00004175746806
:100660006F723A59616E4C69616E670D0A00000045
:100670006368696E6179616E6C69616E6740736F02
:1006800068752E636F6D0D0A000000002A2A2A2A61
:100690002A2A2A2A2A2A2A2A2A2A2A2A2A2A2A2ABA
:1006A0002A2A2A2A2A2A2A2F0D0A0000000C014091
:1006B000081400203132342E3133332E322E3336AB
:1006C00000000000303135303938383532323136BB
:1006D00000000000C9E8B1B8B2CECAFDD0B4C8EB82
:1006E000466C617368000000080000200C000020C8
:1006F00074140020100000201400002018000020B6
:1007000004040020D1150008040C002087400008D4
:10071000041000204351000804140020971F000813
:1007200004080020CF21000818ED00E000E400E0FC
:1007300014CD000853657020323820323031350036
:1007400031333A32383A32390000000004020020D6
:10075000390200087FB50546AD4C2946ADA007F02B
:100760006EF8AD480088C72802D0AC48007810B1B8
:100770000020A94908800020A8490870A6480088E0
:100780002554A5480088401CA349088008460088D5
:10079000401E205C082814D1A1A007F050F89E4804
:1007A0000088012809DD9FA007F049F89A480088D1
:1007B000801E9949088000F058BE002096490880A4
:1007C000F9E795480088401E205C092820D10020C8
:1007D0009549086007E093A007F031F89248006857
:1007E000401C914908608C490988C81CC11700EB5E
:1007F0005171C910A0EBC101C1F108018A4A126808
:100800009142E8D884480088401E83490880D2E796
:1008100081480088401E205C7F2805D17E480088E2
:10082000401E7D490880C6E77B480088401E205C4A
:100830000A28C0D17848008802280BDC7648018855
:1008400020460BF054F800207349088077A006F08A
:10085000F6FF7FBD70480088801E205C0D28AAD15D
:1008600000206D490988605401206C49087071A10D
:1008700020460BF05FF828B170A120460BF05AF823
:10088000002833D16EA006F0DAFF78A006F0D7FF7B
:1008900080A006F0D4FF87A006F0D1FF8FA006F05D
:1008A000CEFF95A006F0CBFF9CA006F0C8FFA2A04B
:1008B00006F0C5FFA7A006F0C2FFAEA006F0BFFF7E
:1008C000B4A006F0BCFFBCA006F0B9FFC3A006F0C0
:1008D000B6FFCBA006F0B3FFD3A006F0B0FFDCA0BC
:1008E00006F0ADFFE7A006F0AAFFD7E2ECA1204694
:1008F0000BF020F898B9EC488079EB494979EA4A3D
:100900001279E94BDB78CDE90032CDE90210E648F7
:1009100083780288E549E6A006F091FFE5E7F2A1B9
:10092000204607F0BBF9002827D0607920280AD19B
:1009300020460AF0B9FE092805D1A079302809D04F
:10094000A079312806D0EAA006F079FF37A006F09A
:1009500076FF7EE7A079312801D1012000E0002058
:10096000EA4908700846007808B1E9A000E0EAA06A
:100970000146EBA006F063FFB7E7ECA120460AF0C2
:10098000D9FF40B9EBA006F05AFFED4AEDA1F2A065
:1009900005F03CFFA9E7F3A120460AF0CBFF30B9F0
:1009A000F24890F8EE14F2A006F049FF9DE7F4A19A
:1009B00020460AF0BFFF18B9F3A006F040FF94E705
:1009C000F7A120460AF0B6FF28B9F8A006F037FFD5
:1009D00006F06AFB89E7FAA1204607F05FF9A0B1AB
:1009E000607920280AD120460AF05EFE092805D148
:1009F000A07930280AD0A079312807D0BCA006F011
:100A00001EFF0AA006F01BFF23E7F2E1DCE1000075
:100A1000A9170020256300005A0000205C00002078
:100A20002000000008000000600000200D0A7E2069
:100A30002420000068656C700D0A00003F0D0A005C
:100A400068656C702C3F203A205072696E74207477
:100A5000686520636F6D6D616E6420757361676595
:100A6000206C6973742E0D0A0000000076657220F8
:100A70002020203A204765742074686520766572CE
:100A800073696F6E20696E666F726D6174696F6EE7
:100A90002E0D0A007265626F6F74203A20526562F3
:100AA0006F6F7420746865206465766963652E0DC8
:100AB0000A000000697020202020203A2047657439
:100AC0002053657276657220495020696E666F7298
:100AD0006D6174696F6E2E0D0A0000007365746994
:100AE0007020203A20536574205365727665722019
:100AF00049502E0D0A000000202020202020202018
:100B00002065673A207365746970203139322E315F
:100B100036382E312E3130300D0A00007365747076
:100B20006F72743A20536574205365727665722033
:100B3000506F72742E0D0A002020202020202020CB
:100B40002065673A20736574706F7274203535358F
:100B5000350D0A0073696D202020203A2047657406
:100B60002053494D2063617264206E756D62657219
:100B70002E0D0A0073657473696D203A20536574F5
:100B80002053494D2063617264206E756D626572F9
:100B90002E0D0A0020202020202020202065673AEA
:100BA0002073657473696D203133333335313937D0
:100BB0003136390D0A000000616E756D2020203A33
:100BC0002047657420416C61726D2070686F6E659E
:100BD000206E756D6265722E0D0A0000736574617A
:100BE0006E756D3A2053657420416C61726D207092
:100BF000686F6E65206E756D6265722E0D0A00005D
:100C000020202020202020202065673A2073657452
:100C1000616E756D20312C313333333531393731D5
:100C200036390D0A00000000696E74202020203A39
:100C300020476574204750532055706461746520C7
:100C4000696E74657276616C2873292E0D0A000036
:100C5000736574696E74203A20536574204750534D
:100C60002055706461746520696E74657276616C7C
:100C70002C203E3D312026203C3D203930302E0DA9
:100C80000A00000020202020202020202065673A34
:100C900020736574696E742033300D0A0000000003
:100CA0007665720D0A0000001C0000200000002084
:100CB00076657273696F6E3A202573206275696C70
:100CC000642025302E34642D25302E32642D2530BD
:100CD0002E32642025302E32643A25302E32643A8A
:100CE00025302E32640D0A006465627567000000CD
:100CF0004572726F723A496C6C6567616C2063680B
:100D000061726163746572210D0A00009800002011
:100D10004F70656E00000000436C6F73650000004B
:100D200025732064656275670D0A00006D73670D99
:100D30000A000000B7A2CBCDB6CCD0C500000000A1
:100D40003014002049443A25730D0A504455B6CC5E
:100D5000D0C5B2E2CAD4000031333333353139372C
:100D6000313639006373710D0A00000070300020C5
:100D700047534D2073696E676C653A25640D0A0010
:100D8000657869740D0A0000457869742074686993
:100D90007320696E746572666163652E0D0A0000CA
:100DA0007265626F6F740D0A000000005265626F19
:100DB0006F74696E672E2E2E0D0A0D0A000000005A
:100DC0006174726376000000A079312801D101209E
:100DD00000E00020FB4908700846007810B1AFF22F
:100DE000D00001E0AFF2D0000146F7A006F027FDE9
:100DF00037E3F9A120460AF09DFD60B9F84948683B
:100E0000F84906F0EAFF0646F54802893146F6A0A1
:100E100006F015FD25E3F9A1204606F03FFF002866
:100E20003DD0607920280BD120460AF03DFC0838DF
:100E3000072805D320460AF037FC08380F280DD9BB
:100E400020460AF031FC06463146AFF25C1006F04F
:100E5000F6FCAFF2284006F0F2FCFAE420460AF075
:100E600023FC801E00212154A01D06F085FFE549CA
:100E700008600846006840B9AFF28C1006F0DFFC4D
:100E8000AFF2584006F0DBFCE3E4DE480068D449EA
:100E9000486006F07EFEDCA006F0D1FCE1E2E2A1B3
:100EA000204606F0FBFE002873D0E07920280AD106
:100EB00020460AF0F9FB0A3805D020460AF0F4FB78
:100EC0000A38052808D9AFF2D81006F0B8FCAFF2FE
:100ED000A44006F0B4FCBCE40020CA490860D44930
:100EE000086021E0D24800680830205C302805DB2B
:100EF000CF4800680830205C392800DD1CE0C1487C
:100F0000006800EB80004000BE490860C8480068E7
:100F10000830205C303809680844BA490860C44881
:100F20000068401CC249086020460AF0BDFB0A3830
:100F3000BF4909688842D5D800BF20460AF0B4FBF3
:100F40000A38BB490968884208D9AFF25C2006F02C
:100F500076FCAFF2285006F072FC7AE4A9480068EB
:100F600020B1A8480068B0F5803F07D3B1A006F0D3
:100F700066FCAFF2485006F062FC6AE4A1480088C3
:100F80009749088106F005FEB3A006F058FC68E218
:100F9000FFE7B9A120460AF0CDFC28B990492831D5
:100FA000B7A006F04CFC5CE2BBA1204606F076FE42
:100FB000002854D0A079202805D120460AF074FBDF
:100FC00009380B2808D0AFF2D82006F038FCAFF271
:100FD000A45006F034FC3CE400209549086011E080
:100FE00093480068C01D205C302805DB90480068ED
:100FF000C01D205C392800DD08E08D480068401CD9
:101000008B4908608A4800680B28E9D300BF204656
:101010000AF04AFB093886490968884208D9AFF2C4
:10102000303006F00CFCAFF2FC5006F008FC10E487
:1010300030206B4981F82800481C54F8071F816252
:101040006168C16221890186A17A80F83210A4F119
:10105000070406F09EFD92A006F0F1FB01E299A1C3
:1010600020460AF067FC50B95D493E3197A006F072
:10107000E6FB5B494B319CA006F0E1FBF1E1A1A14D
:10108000204606F00BFE002867D0E07920280ED11C
:10109000207A312802D0207A322808D1607A2C2890
:1010A00005D120460AF000FB0C380B2808D0AFF21F
:1010B000C03006F0C4FBAFF28C6006F0C0FB48E421
:1010C00000205B49086011E0594800680A30205C44
:1010D000302805DB564800680A30205C392800DDDE
:1010E00008E053480068401C5149086050480068B7
:1010F0000B28E9D300BF4E4800680B2808D2AFF296
:10110000104006F09CFBAFF2DC6006F098FB20E498
:10111000217A313901EB810202EBC10230493E31C3
:1011200050180D210AF0E3FB207A313800EB8001E2
:1011300001EBC0012A483E300844D4F80A1001608F
:10114000D4F80E104160618A0181217D817206F020
:1011500020FD6EA006F073FB83E176A120460AF025
:10116000E9FB78B91E48C18E74A006F068FB1C48E4
:10117000018F7AA006F063FB1948418F7FA006F02B
:101180005EFB6EE185A1204606F088FD002816D0A2
:10119000A07920280AD120460AF086FA093805D01D
:1011A00020460AF081FA0938032809D9AFF2C04075
:1011B00006F045FBAFF28C7006F041FB24E44DE1F4
:1011C000F0E00000880000202573204154205243A5
:1011D00056200D0A0000000069700D0A0000000092
:1011E0000814002060140020536572766572203D5B
:1011F0002025733A25640D0A0000000073657469A8
:1012000070000000640000205365742053657276FE
:101210006572206970207375636365737366756C9E
:101220006C792E0D0A000000736574706F72740083
:10123000600000204572726F723A54686520706FCA
:101240007274206973206E6F74206C6567697469AD
:101250006D617465210D0A005365742073657276A3
:10126000657220706F727420737563636573736643
:10127000756C6C792E0D0A0073696D0D0A00000003
:1012800053494D2063617264206E756D62657220F2
:101290003D2025730D0A000073657473696D0000AD
:1012A0005365742053494D2063617264206E756DDF
:1012B000626572207375636365737366756C6C79B0
:1012C0002E0D0A00616E756D0D0A0000416C617291
:1012D0006D2070686F6E65206E756D62657220316D
:1012E000203D2025730D0A00416C61726D207068ED
:1012F0006F6E65206E756D6265722032203D20250F
:10130000730D0A00736574616E756D00536574200A
:10131000416C61726D2070686F6E65206E756D62D4
:101320006572207375636365737366756C6C792E73
:101330000D0A0000696E740D0A00000055706461AA
:10134000746120496E74657276616C2064656661B3
:10135000756C74203D2025640D0A00005570646191
:10136000746120496E74657276616C20736C65657A
:10137000702020203D2025640D0A00005570646116
:10138000746120496E74657276616C20616C617263
:101390006D2020203D2025640D0A000073657469CE
:1013A0006E7400000020FE490860FE49086021E0DC
:1013B000FC480068C01D205C302805DBF948006847
:1013C000C01D205C392800DD1CE0F548006800EBFA
:1013D00080004000F2490860F2480068C01D205CAF
:1013E000303809680844EE490860EE480068401C3F
:1013F000EC49086020460AF057F90938E9490968BC
:101400008842D5D800BF20460AF04EF90938E54990
:101410000968884208D9AFF2287006F010FAAFF6D2
:10142000F41006F00CFA18E5DD48006820B1DC483D
:101430000068B0F5617F07D9DBA006F000FAAFF6CF
:10144000142006F0FCF908E5D5480088E049C88674
:1014500006F09FFBDFA006F0F2F902E0E5A006F03F
:10146000EEF9AFF6382006F0EAF900BFF5E4E949F5
:10147000E94A1288885CE8490988491CC82905DAC4
:10148000E5490988491CE44A118002E00021E24A4A
:101490001180E2490988491EE04A1180704710B561
:1014A0000446DF480088801C14280ADBDC480088DA
:1014B000801EDB49088008460288DA49881E0AF047
:1014C000A2F904F00F001030D649891ED44A1288C0
:1014D0008854D3480088401CD149088004F00F008C
:1014E0002030D049891ECE4A12888854CC480088C2
:1014F000401CCB49088010BD70B5002500BF0024FA
:101500000BE0C949601C31F8100021F814000846AE
:1015100030F814000544601CC4B2092CF1DB09202A
:1015200005F0AAFEC04948820846408A054440F6B4
:10153000E4406843C0F3D3200A21B0FBF1F080B24D
:1015400070BD70B5B9480078022812D0B84800784C
:10155000132805DA01221146B64806F09BF831E05F
:1015600000220121B34806F095F80020B049087028
:1015700028E0AF4800780F2805DA01221146AD486F
:1015800006F088F81EE0AA480078132812DAA84866
:10159000057805EBD5704010A5EB4000441C04EB2A
:1015A000D4704010A4EB4000C2B20121A14806F063
:1015B00071F807E0002201219E4806F06BF8002038
:1015C0009B4908709A480078401C9949087070BD82
:1015D00000BF00BF00250024002600BF05F006FE66
:1015E00095A006F054F9974805F0A4FE96490860C6
:1015F00096499548006805F00CFF00209449086062
:10160000944908600846007820F00100401C0870EA
:101610000846007820F0020008700846807820F024
:101620000400001D887014217E48801E0AF05FF9B6
:1016300000207B49088035E26423002211461046D1
:1016400007F091FFFFF77DFF06F046F88248B0F8FB
:10165000F604401C81B28048A0F8F614B1F5966FEC
:101660000BD97EA006F013F900217B48A0F8F614F0
:1016700003217F48006807F0C6FCFFF73DFF0646E0
:101680004FF400517B4808F046FFE0B940F6746023
:10169000864218DAFFF730FF8146494676A006F009
:1016A000F6F8642300221146104607F05CFF002282
:1016B0004FF480416F4805F0EDFF6423002211468E
:1016C000104607F050FF4FF400516A4808F023FF1E
:1016D00058B360484078C0F3C00030B300206B4975
:1016E00008806B480088401C80B269490880052842
:1016F00044DB68A006F0FDF85648407820F008006A
:10170000544948705248407820F0010050494870D0
:101710000846C07820F00400C8700846007820F021
:101720000800087002F079FB28E04FF4005151489E
:1017300008F0F1FE10BB47484078C0F3C000E8B99C
:1017400000205349088051480088401C80B24F490E
:101750000880052812DB53A006F0CBF83D484078FE
:1017600020F0080008303B4948703948407820F0A4
:101770000100401C3649487002F04FFB4FF4005105
:101780003C4808F0C8FE48B980212A4808F0C3FE4A
:1017900020B12F48C078C0F380008BE0A6E00000A5
:1017A00064000020600000204572726F723A546835
:1017B0006520696E74657276616C206973206E6F46
:1017C00074206C65676974696D617465210D0A0028
:1017D0000814002053657420696E74657276616C1C
:1017E000207375636365737366756C6C792E0D0A6F
:1017F000000000005468697320636F6D6D616E6452
:1018000020697320756E646566696E6564210D0AD2
:1018100000000000E01600204A0000206A000020BE
:101820004C0000207318002004160020942700208C
:101830006800002000080140414443B3F5CABCBB26
:10184000AF0000001C0000202C000020240000201D
:101850007C000020800000207030002047534DC4E1
:10186000A3BFE9BFB4C3C5B9B7B3ACCAB1000000E8
:1018700010000020000C0140B5E7B3D8B5E7D1B99E
:101880003A25646D562CB9D8BBFA000050000020F0
:101890004E000020CDE2BDD3B5E7D4B4BDD3CDA872
:1018A00000000000CDE2B2BFB5E7D4B4B9D8B1D5DD
:1018B00000000000D0B90020A1490880A14800889C
:1018C000401C80B29F49088005282FDB9EA006F0AF
:1018D00010F8A048C07820F00400001D9D49C87091
:1018E00002F09BFA0120FFF7DAFD1FE080219A4801
:1018F00008F011FED0B99748C078C0F38000A8B1B5
:101900000020904908808E480088401C80B28C4995
:10191000088005280ADB91A005F0EBFF8D48C07810
:1019200020F004008B49C87002F077FA4FF40051A0
:101930008E4808F0F0FD20BB01218C4808F0EBFD3B
:10194000F8B984480078C0F3C000D0B900208849B5
:10195000088088480088401C80B286490880052895
:101960002FDB85A005F0C5FF7A48007820F008003D
:1019700008307849087002F050FA0220FFF78FFD16
:101980001FE00121794808F0C6FDD0B17148007808
:10199000C0F3C000A8B100207649088074480088D0
:1019A000401C80B27249088005280ADB75A005F04A
:1019B000A0FF6848007820F008006649087002F02F
:1019C0002CFA7448B0F8B403002860D1724800883B
:1019D00000285CDD7148007804117048007800F040
:1019E0000F05012C43DB022C41DC611E01EB81025F
:1019F00002EBC1026A49501809F056FE0B2836D195
:101A0000012D04D0022D0FD0032D2ED119E0611E1F
:101A100001EB810202EBC10261495018A1F11602EB
:101A200060A104F0F3FE21E0611E01EB810202EBF4
:101A3000C1025B495018A1F116025EA104F0E6FE56
:101A400014E02246564916395EA005F020FF611EBB
:101A500001EB810202EBC102514950182346A1F16A
:101A600016025CA104F0D2FE00E000BF00BF4A48AD
:101A70000088401E4849088008460088002806DD86
:101A8000084602884549491C481E09F0BCFE05E08D
:101A9000FFF7EDFC07463846FEF75CFE514800882C
:101AA0000028F5DCC8E55049504A128888544F494F
:101AB0000988491C89B24D4A1180C82901DB0021DF
:101AC000118048490988C82905DA46490988491C0E
:101AD000444A118009E046490988491C89B2444AB0
:101AE0001180C82901DB0021118070470020404986
:101AF00008803E4908803B490880704770B507F070
:101B0000E1FD054606F076FD284607F0DFFD40F2D0
:101B10002551384808F07AFF78B12021354808F07F
:101B20006CFF344808F0F2FEC4B22E48008808B9B1
:101B3000FFF7DCFF2046FFF7B6FF06F076FD70BD2D
:101B40005400002052000020BCF4CFDFB1A8BEAF8B
:101B5000000000007C00002000080140BCF4CFDF42
:101B6000B1A8BEAFBBD6B8B400000000000C014065
:101B70005800002056000020B0CEB3F6B1A8BEAF8A
:101B800000000000B0CEB3F6B1A8BEAFBBD6B8B46B
:101B900000000000703000204C0000207118002070
:101BA0004614002049443A25730D0ABCF4CFDFB136
:101BB000A8BEAF0049443A25730D0AB0CEB3F6B1C2
:101BC000A8BEAF0049443A25732D2DB2E2CAD43ADB
:101BD0002564000049443A25730D0AB2E2CAD43A9A
:101BE000256400006A000020E01600204800002064
:101BF0004A0000200038014010B502460B46002084
:101C0000002100BF07E0545C2A2C00D105E0545CA1
:101C100060404C1CA1B29942F5DB00BF10BD2DE91C
:101C2000F041044600262078242802D00020BDE898
:101C3000F081204609F038FD401F87B23946601C0C
:101C4000FFF7DAFF0646204609F02EFD2044071F65
:101C5000384606F002FBB04201D00020E7E706223A
:101C60002146F7A009F0D0FC60B106222146F6A07B
:101C700009F0CAFC30B106222146F5A009F0C4FCE7
:101C800000287DD12146022006F08AF90546605DD4
:101C9000412876D1F0480078412877D021460920A4
:101CA00006F07EF9054609F0DDFA0068615D405CEA
:101CB000202824D1681C215C605D303800EB800056
:101CC00001EB40003038C1B2E3484171E81C215CAF
:101CD000A81C205C303800EB800001EB400030385D
:101CE000C1B2DD480171681D215C281D205C3038BF
:101CF00000EB800001EB40003038D7494880214696
:101D0000012006F04DF9054609F0ACFA0068615D66
:101D1000405C202825D1681C215C605D303800EBD8
:101D2000800001EB40003038C1B2CB488171E81C23
:101D3000215CA81C205C303800EB800001EB4000E7
:101D40003038C1B2C448C171681D215C281D205CB7
:101D5000303800EB800001EB40003038C1B2BE48A3
:101D600001720821BC48801C06F0B3FABA48801CF6
:101D700005F0E0FAB849C860881C05F015FB02E0E0
:101D80009CE08CE002E0B5A005F0B3FDB648007819
:101D900020F00200801CB44908700322214607206D
:101DA00006F090F840F23C7148434FF47A71B0FB72
:101DB000F1F0A94988830846808B142801DA0020B5
:101DC00088832146082006F0EBF80546605D2C2844
:101DD0000CD000222146082006F074F84FF4B471AC
:101DE000B0FBF1F201FB12009B49C883214606209B
:101DF00006F0D6F8205C984988742146042006F045
:101E0000CFF8205C9449C87404222146052006F0CE
:101E100059F891494861084640699449B0FBF1F28C
:101E200001FB1200642148433C21B0FBF1F58A48D4
:101E300040698E49B0FBF1F0874948610846406926
:101E40008A494843844948610846406928444861B2
:101E500004222146032006F035F87F4988610846B0
:101E600080698249B0FBF1F201FB12006421484312
:101E70003C21B0FBF1F5784880697C49B0FBF1F07A
:101E80007549886108468069784948437249886184
:101E900008468069284488614120087053E0562034
:101EA0006D49087000208883C8834884487481F88D
:101EB000200081F8250081F8240044E00622214614
:101EC0006BA009F0A1FB58B1062221466AA009F0D7
:101ED0009BFB28B10622214669A009F095FBB8B901
:101EE0005D48007841282ED12146072005F0A6FF45
:101EF000594948742146082005F0A0FF564981F849
:101F000020002146092005F099FF534948841AE032
:101F1000062221465CA009F077FB38B92146032050
:101F200005F08CFF4C4981F825000CE00622214683
:101F300057A009F069FB30B92146032005F07EFF68
:101F4000454981F82400012071E65349534A12881B
:101F5000885C52490988491C504A118011460988F9
:101F6000C82901DB0021118070474D4800884B498A
:101F70000988884206DB4A48008848490988401A8F
:101F800080B270474548008845490988401AC0F129
:101F9000C80080B2F5E700BF0024002600BF56202D
:101FA0002D49087000208883C8834884487481F8CC
:101FB000200081F8250081F82400012210213948F1
:101FC00005F068FB01222021364805F063FB35E06F
:101FD0000A2300221146104607F0C5FAFFF7C5FF95
:101FE00070B906F10A0086B2002C09DD642E07DD07
:101FF00000202D4908550846FFF711FE0024002651
:1020000018E00026FFF7A1FF054627480555005DAB
:102010000A2809D1601C84B20020234908550846CB
:10202000FFF7FDFD002405E0601C80B20446642833
:1020300000DB0024FFF799FF0028E2DCC8E700007E
:10204000244750524D43000024474E524D43000058
:10205000244244524D43000054190020474E53532C
:10206000D0A3CAB1000000008000002040420F0051
:10207000244750474741000024474E47474100004E
:10208000244244474741000024475047535600002C
:102090002442444753560000881800206E00002058
:1020A0006C000020000801407C1900202349244ACC
:1020B0001288885422490988491C89B2204A118013
:1020C000C82901DB002111801D4909881D4A128899
:1020D000914209D11B490988491C89B2194A1180CA
:1020E000C82901DB002111807047002015490880B4
:1020F00013490880704770B507F0E4FA054606F00A
:1021000079FA284607F0E2FA40F225510E4808F025
:102110007DFC78B120210C4808F06FFC0A4808F0DB
:10212000F5FBC4B2FFF721FF08B9FFF7DEFF204639
:10213000FFF7BCFF06F079FA70BD00008818002098
:102140006C0000206E0000200044004070B5044682
:102150003C254FF47A706843B0FBF4F1974800686F
:10216000401C964A1060814207D895A005F0C1FB3B
:1021700001F03BFE00209149086070BD70B5054636
:10218000002493484078C0F3C00010B19148008FFC
:1021900001E09048C08E044614B1B4F5617F00D9C7
:1021A0001E244FF47A706043B0FBF5F18A48006852
:1021B000401C894A1060814208D8214687A005F05A
:1021C00098FB01F02AFE00208349086070BD00BF23
:1021D00000BF00BF0024002500BF85A005F057FB0D
:1021E000012087494870002086494870E4E0642354
:1021F00000221146104607F0B6F9824840780B28B5
:1022000070D007DC78B101281BD002284AD00A28F8
:1022100069D16AE00C2867D014286FD015286ED0D9
:102220001E28F5D1BCE0002076490870744890F86B
:10223000EC0428B172484078012801D1487000248C
:10224000B9E06F4890F8910010B1002003F057FFFB
:102250006D496B48C0F8D8100021A0F8D41040F2A6
:10226000DC51A0F8D2106949C0F8E0100021A0F8B4
:10227000DE104FF4FA61A0F8DC106549C0F8E410F4
:1022800054494868634905F0A8FD0646514802894B
:1022900000233146184603F0FBFE022059494870DE
:1022A000002488E0564890F8910002280FD0601C66
:1022B0000446B0F5967F14D957A005F0E8FA01203E
:1022C000504948700024002003F019FF09E06423FE
:1022D00000221146104607F046F900250A20494918
:1022E000487068E010E062E018E03A48807A38B15F
:1022F0001420444948700020887004E020E02BE05E
:102300000B204049487056E047A005F0F2FA01F072
:1023100007FD0C203B49487000244CE03948007808
:10232000012803D114203749487008E0601C044696
:10233000B0F5967F03D300240B20324948703AE071
:1023400024490A313DA005F0D4FA01F02DFD1520F5
:102350002C49487000242EE02A48007802280AD12F
:10236000002400212648A0F8D410A0F8D6101E2082
:102370002449487013E0601C0446B0F5967F0ED3E4
:10238000681CC0B20546032805DB0020114988728D
:1023900005F0FFFB002500240A201A4948700AE0D6
:1023A0006420FFF7EBFE6420FFF7D0FE03E000207F
:1023B0001449487000BF00BF19E7000074000020F6
:1023C0002D2D3E3EB7A2CBCDD0C4CCF800000000EE
:1023D0008000002008140020700000202D2D3E3EBB
:1023E000B7A2CBCDCEBBD6C3D0C5CFA22C2564001F
:1023F0002D2D2D3ECFB5CDB3C6F4B6AF00000000F5
:102400007030002094270020B5210020E41900201E
:10241000FF29000860140020B7FECEF1C6F7C1AC5A
:10242000BDD3B3ACCAB100002D2D3E3EB7A2CBCD7B
:10243000C9E8B1B8D7A2B2E1000000002D2D3E3EA0
:10244000B7A2CBCDC9E8B1B8BCF8C8A83A2573008B
:1024500030B502460B4600211EE0505C7D2819D1A4
:10246000481C105C012803D0481C105C022811D1C4
:10247000555C481C105C401E28445054481C84B2D3
:1024800004E0601C105C1055601C84B2581EA04211
:10249000F7DC83B2481C81B29942DEDB184630BDBE
:1024A000F0B504460A46002000257E26A94F3E705E
:1024B00026127E70BC701612FE703A71A64E96F807
:1024C0002960303EA44F97F8287006EB0716A14FFD
:1024D0007E71A14E96F82B60303E9F4F97F82A7080
:1024E00006EB07169B4FBE719B4E96F82D60303E53
:1024F000994F97F82C7006EB0716964FFE71964E83
:1025000096F82F60303E944F97F82E7006EB071622
:10251000904F3E72904E96F83160303E8E4F97F855
:10252000307006EB07168B4F7E728B4E96F8336039
:10253000303E894F97F8327006EB0716854FBE7212
:10254000864E36883612FE72844E36783E73834E3F
:102550003688761C814F3E8000BF002105E07D4F0C
:102560004E1CBE5D75404E1CB1B202F10C06B1426C
:10257000F5DB761C774FBD557E27761CDFF8D4C17E
:102580000CF80670761CB0B201212CE0714E765C1E
:102590007E2E03D06F4E765C7D2E22D100230AE082
:1025A000C61A761E6B4FBE5DC71ADFF8A8C10CF8BD
:1025B00007605E1CB3B2461A9E42F1DC654E765C43
:1025C0007E2E01D1022700E00127DFF888C14E1CD2
:1025D0000CF806707D2667467E544E1CB1B2461C30
:1025E000B0B24E1CB1B2461E8E42CFDCF0BD7CB5FF
:1025F000044600255A490868214605F0F8FA594969
:102600000868211D05F0F3FA5748007841280CD1DD
:102610005549886904F1080105F0E9FA5249486909
:1026200004F10C0105F0E3FA0DE05049D1F804057E
:1026300004F1080105F0DBFA4C49D1F8000504F17A
:102640000C0105F0D4FA4849488C04F1100105F05A
:10265000DFFA4549888B04F1120105F0D9FA4249A5
:10266000C88B04F1140105F0D3FA414801680091C8
:10267000406804F1160201460190009805F0E6FA60
:1026800005F11C0085B21C342B20207004206070E2
:10269000A11C002005F0BCFA3449B1F8F404211D56
:1026A00005F0B6FAA41DA81D85B2302020700120C7
:1026B00060702E4890F8EE04A070E41CE81C85B20F
:1026C0003120207001206070274890F82500A0700C
:1026D000E41CE81C85B228467CBD70B506460C4655
:1026E00000252248B0F8D210B0F8D400081AA04251
:1026F0001CDA1E48B0F8D210B0F8D400081A201A1C
:1027000085B21A4BB3F8D4305A1B184BD3F8D830D3
:102710005919164BD3F8D80009F075F81348B0F8DA
:10272000D400401B81B21148A0F8D4100F49D1F851
:10273000D820B1F8D41050182246314609F01EF8BE
:102740000A48B0F8D400204481B20848A0F8D41058
:10275000204670BDB027002008140020780000201B
:102760007C000020800000205419002070300020E0
:10277000240000202DE9F0438BB0074688467C1CDE
:10278000A8F1010085B2002007F8080039787A1C0A
:10279000F1A005F0AEF8F7A1204605F07FFA30B9B8
:1027A000681E205C232802D00BB0BDE8F083F3A1A3
:1027B000201D05F073FA002852D0204605F01AFCBF
:1027C000022800D0F0E7A5F10A000B2800D0EBE7C3
:1027D00000260CE008F046FD0168A5F10C0030442D
:1027E000205C085C202800D0DEE7701C86B20B2E2F
:1027F000F0DB0021681E2154E2480088642190FB30
:10280000F1F201FB1209E0480089DF490979DE4A4B
:102810009288C2F30722DC4B5B68C3F30743CDE920
:102820000732CDE90910D8484068000ED5498A79A9
:102830004979D44B1B79CDE90331CDE90520D14845
:10284000C078D0498978CDE900910290A5F10C01BA
:102850000819CE4BCC4A2832CDA103F0D7FF30E087
:10286000DBA1201D05F01AFA58B3204605F0C2FB83
:10287000022800D098E7A5F10A000B2800D093E7C2
:1028800000260CE008F0EEFC0168A5F10C003044D5
:10289000205C085C202800D086E7701C86B20B2ED6
:1028A000F0DB0021681E2154B7484B30A5F10C0124
:1028B00000900819B44B3E33A3F11602C6A103F0F1
:1028C000A5FF00BF70E770B505460C46A87805283F
:1028D00032D2DFE800F0032125292D00E01E1E285A
:1028E00015DAE21EE91CA8480A3008F047FF00226A
:1028F000E01EA5490A310A5405F04BF9A2490A31F4
:10290000BDA004F0F6FF0120C049087003E0E11EFD
:10291000BFA004F0EEFF14E0C2A004F0EAFF10E054
:10292000C5A004F0E6FF0CE0C8A004F0E2FF08E058
:10293000CBA004F0DEFF04E0A978CEA004F0D9FF1C
:1029400000BF00BF70BD2DE9F04104460F46E0789E
:10295000A17800EB012086B26078217800EB01209D
:10296000C9490988884204D1B6F5817F01D0BDE804
:10297000F0816078217800EB0120C3490880257937
:10298000B6F5807F11D004DC022E09D0032E2DD1A4
:1029900010E0B6F5817F12D0B6F5007F26D120E099
:1029A0002946BAA004F0A5FF26E02946BBA004F002
:1029B000A0FF21E02946BEA004F09BFF1CE05DB90A
:1029C0002946C0A004F095FF90484078152807D10B
:1029D00002208E49087003E02946C0A004F089FF58
:1029E0000AE02946C3A004F084FF05E02A463146E8
:1029F000C6A004F07EFF00BF00BF00BFB7E72DE90F
:102A0000FE4F0546C948D0F8E040002700260020C8
:102A1000029083468146824601900090C348B0F8F8
:102A2000DE50B2E1002709E0E05D7E2804D1781C89
:102A3000205C7E2800D003E0781C87B2AF42F3DB35
:102A400000BF002F06DDEA1BE119204608F0DBFE7F
:102A5000E81B85B2012605E0A05D7E2800D103E0D9
:102A6000701C86B2AE42F7DB00BFAE4200DB8FE1E6
:102A7000701C81B22046FFF7EBFC81462079E1789B
:102A800000EB01201FFA80FB0BF10F00484507D037
:102A9000AA1BA119204608F0B6FEA81B85B274E156
:102AA000002000904FF0010808E014F80800009999
:102AB0004840009008F101001FFA80F8A9F10200D7
:102AC0004045F2DC215C0098814207D0AA1BA11985
:102AD000204608F098FEA81B85B256E1A0786178E0
:102AE00000EB01201FFA80FA207BE17A00EB012045
:102AF00080B2019004F10D00029048F20411AAEB9B
:102B000001008A4525D00ADC6FF400401AEB000072
:102B10000BD0FF280ED0B0F5817F1BD10FE0FD2830
:102B200019D0B0F5FE7F15D10DE159460298FFF797
:102B30000AFF1FE159460298FFF7C5FE1AE1594600
:102B4000029800F049F900225146019801F08AF9F3
:102B500010E1EDE001E1EFE03C3C2D2DCEC4B1BE33
:102B6000D0C5CFA2CFC2B7A23A25302E32582C25DD
:102B7000730000002A7A6C2C00000000696E666FFA
:102B8000000000001C0000200814002000000020AD
:102B900049443A25730D0AB0E6B1BE3A2573402583
:102BA0003032642530326425303264253032642579
:102BB000303264253032640D0AB7FECEF1C6F73AE2
:102BC00025642E25642E25642E25643A2564000094
:102BD000616E756D0000000049443A25730D0AB11D
:102BE000A8BEAFBAC5313A25730D0AB1A8BEAFBAB7
:102BF000C5323A25730000003C3C2D2DD6D5B6CB0E
:102C0000D7A2B2E1B3C9B9A63A2573009427002030
:102C10003C3C2D2DBCF8C8A8C2EBCCABB3A43A25E4
:102C2000640000003C3C2D2DB3B5C1BED2D1B1BB78
:102C3000D7A2B2E1000000003C3C2D2DCAFDBEDD54
:102C4000BFE2CEDEB4CBB3B5C1BE00003C3C2D2DFF
:102C5000D6D5B6CBD2D1B1BBD7A2B2E1000000002D
:102C60003C3C2D2DCAFDBEDDBFE2CEDEB4CBD6D5B9
:102C7000B6CB00003C3C2D2DCEB4D6AAD7A2B2E1F3
:102C8000D7B4CCAC3A256400840000203C3C2D2D08
:102C9000D0C4CCF8D3A6B4F03A2564003C3C2D2D2A
:102CA000D6D5B6CBD7A2B2E1D3A6B4F03A2564000C
:102CB0003C3C2D2DD6D5B6CBD7A2CFFBD3A6B4F0B6
:102CC0003A2564003C3C2D2DC9E8B1B8BCF8C8A831
:102CD000D3A6B4F0B3C9B9A63A2564003C3C2D2D67
:102CE000C9E8B1B8BCF8C8A8D3A6B4F0CAA7B0DC8C
:102CF0003A2564003C3C2D2DCEBBD6C3D0C5CFA217
:102D0000C9CFB1A8D3A6B4F03A2564003C3C2D2D20
:102D1000C6BDCCA8CDA8D3C3D3A6B4F03A49443D90
:102D200025302E34582C256400000000703000201F
:102D3000019800F04FFF1DE019A004F0DAFD0198A2
:102D400001F0BAF816E059460298FFF713FD002289
:102D50005146019801F086F80CE0514615A004F0A8
:102D6000C8FD1AF4004F04D000225146019801F02A
:102D700079F800BF00BF701C281A85B2A019411C49
:102D80002A46204608F03FFD00BF002D3FF74AAE1F
:102D900000BF1048A0F8DE500020BDE8FE8F000004
:102DA0003C3C2D2DCEBBD6C3D0C5CFA2B2E9D1AF0E
:102DB000000000003C3C2D2DCAD5B5BDB5C4CFFBED
:102DC000CFA24944B2BBD6A7B3D62C25302E345857
:102DD00000000000703000202DE9F05F06464FF043
:102DE000000900BF96F800A0741CF8A004F081FD53
:102DF000C846EFE3204604F0DFFE05462779472D5D
:102E000072D049DC71D2DFE815F07000AA00BA0078
:102E1000C300CC00D900E600F40070007000700020
:102E20007000700070007000700001010801140152
:102E30001B0122012901300137013E0149015401E2
:102E40005B016601710170007000780181018A01E7
:102E500070007000700070009301A101AF0170005C
:102E60007000BD01C601CF01D801290332037000F3
:102E700070007000700070007000700070007000D2
:102E8000700070007000700070003B034003450349
:102E90004A034F0354035D03712D6ED02FDC582D70
:102EA0006CD015DCA5F148001028ABD2DFE810F09B
:102EB0001C0321031D001D001D001D001D001D0021
:102EC00026032F03380341034A0353035C036503BE
:102ED0005D2D6FD00ADC592D6DD05A2D6CD05B2D35
:102EE0006BD05C2D01D176E3F5E2EEE35E2D6ED082
:102EF000642D6DD0652D6CD0702DF3D198E3912D9C
:102F000068D014DC812D6FD008DC722D6DD0732D4C
:102F10006CD0742D6BD0802DE4D1B6E3822D67D0B8
:102F2000832D6FD0842D6ED0902DDBD1D3E3B5F5FA
:102F3000807F69D008DC922D67D0932D74D0942DBA
:102F400073D0952DCED1E3E3A5F5807001386DD017
:102F500001286CD002286BD00F28C3D1F3E3601D89
:102F600004F02AFE9E498887601D04F025FE8346F2
:102F700059469CA004F08BFC78E262E306E3601DF6
:102F800004F01AFE834659469BA004F080FCF6E349
:102F9000601D04F011FE834659469BA004F077FCA7
:102FA000EDE3601D04F008FE834659469AA004F044
:102FB0006EFCE4E318E3F2E2FAE202E3601D04F0DF
:102FC000FBFD8346594698A004F061FCD7E314E367
:102FD0001CE324E384E3601D04F0EEFD83465946C0
:102FE00095A004F054FCCAE358E333E33BE343E326
:102FF0005DE3601D04F0E0FD8346594693A004F0B4
:1030000046FCBCE35CE361E38BE36EE34FF0010954
:10301000611D93A004F03BFCB1E34FF00109611D79
:1030200093A004F034FCAAE364E36CE382E38BE353
:1030300093E34FF00109611D93A004F028FC9EE387
:103040004FF00109611D95A004F021FC97E34FF0BA
:103050000109611D95A004F01AFC90E34FF00109ED
:10306000611D97A004F013FC89E34FF00109611D75
:1030700098A004F00CFC82E3611D9BA004F007FC07
:103080004FF001097BE34FF00109601D04F094FD4E
:103090008346594699A004F0FAFB70E34FF001090A
:1030A000601D04F089FD8346594698A004F0EFFBAB
:1030B00065E34FF00109611D98A004F0E8FB5EE3B1
:1030C0004FF00109601D04F077FD8346594698A032
:1030D00004F0DDFB53E34FF00109601D04F06CFDCB
:1030E0008346594697A004F0D2FB48E34FF001090C
:1030F000611D99A004F0CBFB41E3601D04F05CFD71
:103100008346594699A004F0C2FB38E3601D04F0E1
:1031100053FD8346594699A004F0B9FB2FE3601D87
:1031200004F04AFD8346594698A004F0B0FB26E31C
:10313000601D04F041FD2A490887601D04F03CFD34
:103140008346594698A004F0A2FB18E3601D04F0E2
:1031500033FD23494887601D04F02EFD8346594600
:1031600097A004F094FB0AE3601D04F025FD1C49C0
:10317000C886601D04F020FD8346594696A004F0E1
:1031800086FBFCE2601D04F017FD8346594698A0BB
:1031900004F07DFBF3E2601D04F00EFD834659460A
:1031A00099A004F074FBEAE2601D04F005FD83467B
:1031B00059469CA004F06BFBE1E2601D04F0FCFCAE
:1031C000834659469EA004F062FBD8E23C3C2D2D7C
:1031D000B2CECAFDC9E8D6C3C3FCC1EE00000000F0
:1031E00008140020D0C4CCF8CAB1BCE4BCE4B8F4E4
:1031F0002564C3EB20000000746370B3ACCAB1CA8D
:10320000B1BCE42564C3EB00746370D6D8B4ABB42E
:10321000CECAFD2564000000756470B3ACCAB1CAA3
:10322000B1BCE42564C3EB00756470D6D8B4ABB40C
:10323000CECAFD2564000000B6CCCFFBCFA2D3A63A
:10324000B4F0B3ACCAB12564C3EB0000B6CCCFFB7D
:10325000CFA2D6D8B4ABB4CECAFD2564000000001E
:10326000D6F7B7FECEF1C6F741504E3A25730000AF
:10327000D6F7B7FECEF1C6F7B2A6BAC5D3C3BBA781
:10328000C3FB3A2573000000D6F7B7FECEF1C6F7B0
:10329000B2A6BAC5C3DCC2EB3A257300D6F7B7FEB7
:1032A000CEF1C6F7B5D8D6B73A257300B1B8B7DDB9
:1032B000B7FECEF1C6F741504E3A2573000000002C
:1032C000B1B8B7DDB7FECEF1C6F7D3C3BBA7C3FB1A
:1032D0003A257300B1B8B7DDB7FECEF1C6F7C3DC4F
:1032E000C2EB3A2573000000B1B8B7DDB7FECEF1EE
:1032F000C6F7B5D8D6B73A2573000000544350B688
:10330000CBBFDABAC53A256400000000554450B678
:10331000CBBFDABAC53A2564000000004944D6F7AD
:10332000B7FECEF1C6F7B5D8D6B73A257300000080
:103330004944B7FECEF1544350B6CBBFDABAC53AD2
:10334000256400004944B7FECEF1554450B6CBBFCA
:10335000DABAC53A256400004944B1B8B7DDB7FE12
:10336000CEF1C6F7B5D8D6B73A257300CAFDBEDD93
:10337000C9CFB1A8B2DFC2D43A256400CAFDBEDD10
:10338000C9CFB1A8BCC6BBAE3A256400CEDEBCDD59
:10339000CABBD4B1C9CFB1A8CAB1BCE4BCE4B8F4CB
:1033A0002564C3EB20000000D0DDC3DFCAB1C9CF64
:1033B000B1A8CAB1BCE4BCE4B8F42564C3EB000016
:1033C000B1A8BEAFCAB1B5C4C9CFB1A8BCE4B8F406
:1033D0002564C3EB00000000D5FDB3A3C9CFB1A89D
:1033E000CAB1BCE4BCE4B8F42564C3EB000000003F
:1033F000D5FDB3A3C9CFB1A8BEE0C0EBBCE4B8F41F
:103400002564C3D700000000CEDEBCDDCABBD4B14A
:10341000C9CFB1A8BEE0C0EBBCE4B8F42564C3D703
:1034200000000000D0DDC3DFCAB1B5C4C9CFB1A868
:10343000BEE0C0EBBCE4B8F42564C3D700000000D4
:10344000BDF4BCB1B1A8BEAFCAB1B5C4C9CFB1A8B3
:10345000BCE4B8F42564C3D700000000601D04F08C
:10346000ABFB83465946D8A004F011FA87E1601DF2
:1034700004F0B2FB83465946D8A004F008FA7EE176
:10348000611DDBA004F003FA79E1611DDCA004F00A
:10349000FEF974E1611DDEA004F0F9F96FE1611D30
:1034A000DFA004F0F4F96AE1611DE2A004F0EFF995
:1034B00065E1601D04F080FB83465946E4A004F0FA
:1034C000E6F95CE1601D04F077FB83465946E4A011
:1034D00004F0DDF953E1601D04F06EFB83465946AC
:1034E000E5A004F0D4F94AE1611DE9A004F0CFF9A8
:1034F00045E1611DEBA004F0CAF940E1601D04F054
:103500005BFB83465946ECA004F0C1F937E1601D2E
:1035100004F052FB83465946EBA004F0B8F92EE1C3
:10352000601D04F049FB83465946EDA004F0AFF955
:1035300025E1601D04F040FB83465946ECA004F0F1
:10354000A6F91CE1601D04F037FB83465946EDA047
:1035500004F09DF913E1601D04F02EFB83465946EB
:10356000EDA004F094F90AE1601D04F025FB834608
:103570005946EDA004F08BF901E1601D04F01CFB3D
:1035800083465946EDA004F082F9F8E0601D04F08E
:1035900013FB83465946EFA004F079F9EFE0601D74
:1035A00004F00AFB83465946F0A004F070F9E6E007
:1035B000601D04F001FB83465946F1A004F067F951
:1035C000DDE0601D04F008FB83465946F1A004F0DD
:1035D0005EF9D4E0DAE0601D04F0FEFA8346594655
:1035E000F2A004F054F9CAE0601D04F0F5FA834635
:1035F0005946F4A004F04BF9C1E0601D04F0ECFA68
:1036000083465946F4A004F042F9B8E0601D04F086
:10361000D3FA83465946F5A004F039F9AFE0601DAE
:1036200004F0CAFA83465946F4A004F030F9A6E043
:10363000601D04F0C1FA83465946F4A004F027F94E
:103640009DE0601D04F0B8FA83465946F3A004F0EB
:103650001EF994E0601D04F0AFFA83465946F2A0CB
:1036600004F015F98BE0601D04F0A6FA8346594674
:10367000F0A004F00CF982E0601D04F09DFA83468E
:103680005946EFA004F003F979E0601D04F094FAC4
:1036900083465946EDA004F0FAF870E0601D04F08E
:1036A0009BFA83465946EEA004F0F1F867E0601DEE
:1036B00004F092FA83465946EDA004F0E8F85EE083
:1036C000611DEFA004F0E3F859E053E06179EFA049
:1036D00004F0DDF853E06179EFA004F0D8F84EE093
:1036E0006179F2A004F0D3F849E06179F5A004F023
:1036F000CEF844E0601D04F05FFA83465946F5A019
:1037000004F0C5F83BE06179F6A004F0C0F836E0BB
:10371000601D04F051FA83465946F7A004F0B7F84B
:103720002DE0601D04F048FA83465946F6A004F0E7
:10373000AEF824E0601D04F04FFA83465946F7A026
:1037400004F0A5F81BE011E0601D04F035FA834693
:103750005946F7A004F09BF811E0601D04F03CFA14
:1037600083465946F7A004F092F808E0FAA004F066
:103770008EF804E02946FEA004F089F800BF00BFDF
:10378000781D044408F1010000F0FF08D045FFF661
:1037900031ABB9F1010F02D1F9A004F078F804F0CF
:1037A000F8F9BDE8F09F2DE9F04104460D461646B4
:1037B0001F462146304604F01AFA04202071611D8C
:1037C000384604F014FAE5E1B9D5B5E3B2B9B4ABC3
:1037D000BDC7B6C83A2564B6C8000000B7C7B7A8C9
:1037E000CEBBD2C6B7A7D6B52564C3D700000000AC
:1037F000BCE0BFD8C6BDCCA8BAC5C2EB3A257300A1
:10380000B8B4CEBBB5E7BBB0BAC5C2EB3A257300BE
:10381000BBD6B8B4B3F6B3A7BAC5C2EB3A257300AA
:10382000B7FECEF1C6BDCCA8534D53BAC5C2EB3AD4
:1038300025730000B7FECEF1C6BDCCA8B1A8BEAFBF
:10384000BAC5534D53BAC5C2EB3A25730000000008
:10385000B5E7BBB0BDD3CCFDB2DFC2D43A2564001E
:10386000D2BBB4CECDA8BBB0B5C4D7EEB3A4CAB159
:10387000BCE42564C3EB0000D2BBD4C2D7EEB3A432
:10388000CDA8BBB0CAB1BCE42564C3EB0000000006
:10389000B7FECEF1C6BDCCA8BCE0CCFDBAC5C2EB2C
:1038A0003A257300BCE0B9DCCCD8C8A8B6CCD0C5EA
:1038B000BAC5C2EB3A257300B1A8BEAFC6C1B1CE3E
:1038C000D7D625302E385800B6CCCFFBCFA2B1A822
:1038D000BEAFC6C1B1CED7D625302E3858000000B5
:1038E000C5C4D5D5C6C1B1CED7D625302E385800DF
:1038F000C5C4D5D5B4E6B4A2C6C1B1CED7D625309D
:103900002E385800B9D8BCFCB1A8BEAFC6C1B1CEE4
:10391000D7D625302E385800B3ACCBD9D6B52564D0
:103920004B6D2F6800000000B3ACCBD9B3D6D0F8F4
:10393000CAB1BCE42564C3EB00000000B5A5B4CE59
:10394000C1ACD0F8BCDDCABBB3ACCAB12564C3EB13
:1039500000000000D2BBCCECC1ACD0F8BCDDCABBCF
:10396000B3ACCAB12564C3EB00000000D7EED0A110
:10397000D0DDCFA2CAB1BCE42564C3EB00000000D7
:10398000D7EEB3A4CDA3B3B5CAB1BCE42564C3EBF1
:1039900000000000B3ACCBD9D4A4BEAFB2EED6B514
:1039A000256428302E316B6D2F682900C6A3C0CD49
:1039B000BCDDCABBD4A4BEAFB2EED6B52564C3EBA2
:1039C00000000000C5F6D7B2B2CECAFDC9E8D6C322
:1039D00025302E3458000000B2E0B7ADB1A8BEAF1C
:1039E000BDC7B6C83A2564B6C8000000B6A8CAB1BB
:1039F000C5C4D5D5BFD8D6C625580000B6A8BEE0E8
:103A0000C5C4D5D5BFD8D6C625580000C3BDCCE5A2
:103A1000D6CAC1BF2564BCB600000000C1C1B6C88B
:103A20002564BCB600000000B6D4B1C8B6C8256491
:103A3000BCB60000B1A5BACDB6C82564BCB60000BE
:103A4000C9ABB6C82564BCB600000000C9E8D6C33F
:103A5000C0EFB3CC2564283130306D290000000060
:103A6000B3B5C1BECBF9D4DACAA149443A25640042
:103A7000B3B5C1BECBF9D4DACAD049443A25640003
:103A8000B3B5C5C6BAC53A2573000000B3B5C1BE0B
:103A9000D1D5C9AB25640000474E5353B6A8CEBB61
:103AA000C4A3CABD3A25302E32580000474E5353A6
:103AB000B2A8CCD8C2CAC9E8D6C33A25302E3258EB
:103AC00000000000474E5353CAE4B3F6C6B5C2CA5D
:103AD0003A256400474E5353B2C9BCAFC6B5C2CAFB
:103AE0003A256400474E5353C9CFB4ABC4A3CABDF3
:103AF0003A25302E32580000474E5353C9CFB4AB4D
:103B0000C9E8D6C33A25640063616E3120B2C9BCEE
:103B1000AFBCE4B8F4C9E8D6C325640063616E3174
:103B200020B7A2CBCDBCE4B8F4C9E8D6C325640065
:103B300063616E3220B2C9BCAFBCE4B8F4C9E8D648
:103B4000C325640063616E3220B7A2CBCDBCE4B85C
:103B5000F4C9E8D6C325640063616E20D7DCCFDFEB
:103B60004944B5A5B6C0B2C9BCAFC9E8D6C30000C8
:103B7000B2BBCAB6B1F049443A253034580000000F
:103B80002D2D2D3ED6D8D0C2C1ACBDD3B7FECEF1BF
:103B9000C6F700002878401C28700920BDE8F08195
:103BA0002DE9F04104460D4617461E46214638468B
:103BB00004F01DF8042020713146601D07F050FD0F
:103BC0002878401C2870304607F06EFD401D80B2FA
:103BD000BDE8F0812DE9FC4107464D4D002600204F
:103BE00001906A464FF47A714A48006805F01FFB5D
:103BF0002946384604F00CF8B61C00200190EC1C55
:103C00004548838F012201A92046FFF7CCFD0444DB
:103C10000523022201A92046FFF7C5FD0444032322
:103C20001A4601A92046FFF7BEFD044405230422DD
:103C300001A92046FFF7B7FD04440323052201A98B
:103C40002046FFF7B0FD04440523062201A92046C3
:103C5000FFF7A9FD04440323072201A92046FFF72B
:103C6000A2FD04442C4948682C4904F0B6F880466B
:103C70004346132201A92046FFF792FF0444264839
:103C80000389182201A92046FFF78DFD0444002373
:103C9000202201A92046FFF786FD044400232122AB
:103CA00001A92046FFF77FFD04443C23222201A9FD
:103CB0002046FFF778FD04441748038F272201A907
:103CC0002046FFF770FD04441348438F282201A9C2
:103CD0002046FFF768FD04440F48C38E292201A93E
:103CE0002046FFF760FD04449DF80400A870761C90
:103CF00031460220FEF7D4FB06463146A5F10D0001
:103D0000FEF7EBFC0348006805F0FDFABDE8FC8116
:103D1000BD2700201400002008140020601400209B
:103D200038B5794C6A464FF47A717848006805F0E6
:103D30007EFA002020707E2060700020A0707D2020
:103D4000E07073A00168616000792072142104F1B1
:103D5000090007F0CCFD70A0016844F8091F8188B4
:103D6000A1808079A0716EA0016861618188218342
:103D70008079A0760120E0766BA00168E16140685F
:103D80002062A4F109044FF02D014FF48070FEF77A
:103D900087FB054629465C480D38FEF79EFC5B48CC
:103DA000006805F0B0FA38BD38B5574C6A464FF494
:103DB0007A715648006805F03AFA5E49204607F0E5
:103DC0004FFC5C4807F070FC85B229464FF48170C7
:103DD000FEF766FB05462946A4F10D00FEF77DFCC3
:103DE0004A48006805F08FFA38BD38B500246A46A5
:103DF0004FF47A714548006805F019FA214602200F
:103E0000FEF74EFB044621463F480D38FEF765FCA1
:103E10003E48006805F077FA38BD38B53A4D0024C1
:103E200045480078022800D038BD6A464FF47A71C0
:103E30003648006805F0FBF92846FEF7D8FB204419
:103E400084B221464FF40070FEF72AFB0446214657
:103E50002D480D38FEF741FC2C48006805F053FA58
:103E600000BFE1E72DE9F84305460E461746264C0C
:103E70006A464FF47A712548006805F0D8F9314652
:103E80002EA003F036FD2812207065703012A0704D
:103E9000E67027714FF0050841460120FEF700FB50
:103EA00080464146A4F10D00FEF717FC1748006854
:103EB00005F029FABDE8F883F8B50646124D00244E
:103EC0006A464FF47A711148006805F0B0F922A0F3
:103ED00003F00FFD2946304603F09AFEA41CA81CEF
:103EE000FEF785FB204484B2214640F20120FEF714
:103EF000D7FA04462146A5F10D00FEF7EEFB034874
:103F0000006805F000FAF8BDBD270020140000206D
:103F100037353533330000005A4C3030315F4100C3
:103F20003030303030303100C2B3414D303030317C
:103F30000000000012140020942700202D2D3E3E8A
:103F4000B7A2CBCDCDA8D3C3D3A6B4F02C49443A65
:103F500025302E34580000002D2D3E3EB2E9D1AF61
:103F6000CEBBD6C3D0C5CFA2D3A6B4F0000000000C
:103F70000020FE490880FE49088070472DE9F8437B
:103F800080460C4615461E46089F4FF000096A46BB
:103F90004146F848006804F087FD6A464146F64805
:103FA000006804F081FDD0B101285AD0022800D069
:103FB00000BFF2480078401CF04908704FF0020939
:103FC00008460078B84209DB00200870EC49086018
:103FD00025B12946EB48006805F015F84FE09DF83B
:103FE00000000A2826D1E5480078401CE349087003
:103FF0004FF003091B21E4A003F0CAFCDF4800785E
:10400000B84227DBDE480068272805D0DC4839465F
:104010000268DEA003F03BFCFFF7AAFF0020D749AF
:104020000870D7490860AEB13146D648006804F040
:10403000EAFF0FE09DF80010DBA003F028FC4FF032
:10404000FF090020CE49086024B12146CD48006810
:1040500004F0D9FF002301221946184605F083FA1F
:104060000DE024B12146C748006804F0CCFF0020D1
:10407000C2490870C24908604FF0010900BF00BF83
:104080004846BDE8F8830EB54FF0000A0026002729
:104090004FF00109B046002301221946184605F0E9
:1040A00062FA01F045F90020B54908600121B548E0
:1040B000006804F06FFF00BF01F01CB8B048006852
:1040C00030B902A9AF48006804F096FDAC49086019
:1040D000AB4800686421B0FBF1F4A9480068B0FB6C
:1040E000F1F201FB12004C2880F0FF87DFE810F0AE
:1040F0004C00FA00FD07B807FD07FD07FD07FD07A7
:10410000FD07FD07F5018101A501B501C501D50137
:10411000E50195010702BF024B03DF02CF02FD0755
:10412000FD07FD07FD07FD07FD07FD07EF02010382
:104130001303250337036005C807D607E307F00715
:10414000FD07FD07FD07FD07FD07FD07FD07FD074F
:10415000FD07FD075C0217026F02FD0723079E069D
:104160007F02FD07FD07FD07FD07FD07FD07FD07B2
:10417000FD07FD07FD07FD07FD07FD078F029F02F5
:10418000AF027205C605F4056423002211461046ED
:1041900005F0E9F9794890F8F00430B9012179483F
:1041A000006804F030FF00F0A4BF744890F8EC04FD
:1041B00058B914217348006804F025FF4FF0010935
:1041C00000216E4880F8ED14EDE70AF10100824607
:1041D000052800D2E7E74FF0000A00253FE005EB95
:1041E00045016648903000EB41104078B8B905EBC6
:1041F00045016248903000EB4110007868B35F4899
:1042000090F8DE0448BB05EBC50000EB0510492221
:1042100002EB80015B48006804F0BCFE1DE005EB8A
:1042200045015648903000EB41104078022814D1E7
:1042300005EB45015148903000EB4110B0F84400C7
:1042400000280ADD05EBC50000EB05104B2202EB50
:1042500080014C48006804F09DFE681C85B2062D64
:10426000BDDB4648B0F8B403D0B1444890F8B6037B
:1042700030B90020414981F8B603A1F8B4030BE03E
:104280003E4890F8B603401E3C4981F8B6033721FA
:104290003C48006804F07EFE0021384880F8A214F3
:1042A00027B1012F0AD0022F18D10FE02421354861
:1042B000006804F06FFE781CC7B211E02721314876
:1042C000006804F067FE781CC7B209E025212D487C
:1042D000006804F05FFE781CC7B201E0002700BF51
:1042E00000BF60E74021344806F031F94FF48051B7
:1042F000324806F02CF9002302221946184605F030
:1043000032F92FA003F0C3FA4FF480512B4806F086
:104310001CF9002302221946184605F024F92CA0A6
:1043200003F0B5FA4021244806F00FF900230222D9
:104330001946184605F017F940211F4806F007F9FD
:10434000002301221946184605F00DF9FFF710FE6B
:104350004FF49641214803F0DAF921A003F018FB4D
:104360000121064880F8F0140B203FE08C0000206B
:104370008A0000200C00002008000020703000207F
:104380009000002010000020256300004154B3ACD1
:10439000CAB1B3ACB9FD2564B4CE2C61745F6E6F45
:1043A000773D256400000000CFB5CDB3D3CACFE47C
:1043B000B4EDCEF33A25640000080140000C014042
:1043C00047534DC4A3BFE9D6D8D0C2C9CFB5E70083
:1043D00047534DC4A3BFE9C6F4B6AF000048004040
:1043E0002020202020200D0A00000000FC49086049
:1043F000D9E6FC48006804F0F6FCFBA003F047FA9D
:10440000FEA003F0C5FA03200346112211460090D6
:104410004FF49670FFF7B2FDC5E6FCA003F037FA43
:10442000FEA003F0B5FA01200C231A4619460090AD
:104430004FF49670FFF7A2FDB5E6FAA003F027FA55
:10444000FDA003F0A5FA01200D231A46194600909D
:104450004FF49670FFF792FDA5E6F9A003F017FA66
:10446000FCA003F095FA01200E231A46194600908D
:104470004FF49670FFF782FD95E6F8A003F007FA77
:10448000FBA003F085FA01200F231A46194600907D
:104490004FF49670FFF772FD85E6F8A003F0F7F988
:1044A000FAA003F075FA012010231A46194600906D
:1044B0004FF49670FFF762FD75E6F8A003F0E7F998
:1044C000FBA003F065FA01200A231A461946009062
:1044D0004FF49670FFF752FD65E6F8A003F0D7F9A8
:1044E000FAA003F055FA0320034612221146009069
:1044F0004FF49670FFF742FD4FF0010953E6F5A027
:1045000003F0C5F9F9A003F043FA03200346332270
:10451000114600904FF49670FFF730FD43E6B9F175
:10452000000F04D0F4A003F0B2F94FF00009F8A096
:1045300003F02EFA0021FD4880F8EE1464200323D6
:104540000022322100904FF47A70FFF717FD01909E
:104550000198022827D1002301221946184605F0A8
:1045600002F8F24800783C2812DDF1A003F08FF940
:104570000020EE4908700021EC4880F8EE14032179
:104580009848006804F03FFD0020954908600AE063
:10459000E648C078022803D103209149086002E070
:1045A00033208F490860FEE50120E049C870E3A090
:1045B00003F06DF9E8A003F0EBF90320034602468F
:1045C000342100904FF49670FFF7D8FCEBE5E5A09E
:1045D00003F05DF9E8A003F0DBF90320034638227D
:1045E000114600904FF49670FFF7C8FCDBE5E6A09B
:1045F00003F04DF9E9A003F0CBF90320034602468E
:10460000462100904FF49670FFF7B8FCCBE5E7A089
:1046100003F03DF9EAA003F0BBF90320034602468C
:10462000472100904FF49670FFF7A8FCBBE5E8A087
:1046300003F02DF9EBA003F0ABF90320034602468B
:10464000482100904FF47A70FFF798FCABE5E9A0A1
:1046500003F01DF9ECA003F09BF90320034602468A
:10466000132100904FF49670FFF788FC9BE5EAA0B9
:1046700003F00DF9EEA003F08BF903200346024688
:10468000162100904FF49670FFF778FC8BE5EBA0B5
:1046900003F0FDF8EEA003F07BF90320034615229A
:1046A000114600904FF49670FFF768FC7BE5ECA094
:1046B00003F0EDF8EFA003F06BF9032003461E2290
:1046C000114600904FF49670FFF758FC6BE5F0A090
:1046D00003F05EF901201F231A46194600904FF49B
:1046E0009670FFF74BFC91495431ECA003F0CFF8E2
:1046F0005DE2EFA003F04CF9012020231A46194691
:1047000000904FF49670FFF739FC88496431EBA0B4
:1047100003F0BDF84BE2EEA003F03AF901202123AB
:104720001A46194600904FF49670FFF727FC7F4910
:104730002A31EAA003F0ABF839E2EDA003F028F942
:10474000012022231A46194600904FF49670FFF775
:1047500015FC76493E31E9A003F099F827E2ECA078
:1047600003F016F9012014231A46194600904FF45D
:104770009670FFF703FC6D491431E8A003F087F849
:104780004FF0010913E2B9F1000F04D0E8A003F0E3
:104790007EF84FF00009ECA003F0FAF803200023A4
:1047A0001A46194600904FF4FA70FFF7E7FBE9A0AC
:1047B00003F0EEF8032003460022114600904FF468
:1047C0009670FFF7DBFB0190584890F8EC0428B98D
:1047D000564890F8ED04401CC1B2C1E1D9E1000097
:1047E000900000201000002047534DC4A3BFE9C92A
:1047F000E8D6C3B2A8CCD8C2CA00000041542B49A5
:1048000050523D31393230300D0A000047534DC40B
:10481000A3BFE9B8B4CEBBC9E8D6C300415426460D
:104820000D0A000047534DC4A3BFE9B9D8B1D54420
:104830004344C4A3CABD000041542643310D0A00BD
:1048400047534DC4A3BFE9BAF6C2D4445452D7B4B7
:10485000CCAC000041542644300D0A0047534DC4EF
:10486000A3BFE9B4AEBFDAD6A1B8F1CABD0000005B
:1048700041542B4943463D330D0A000047534DC474
:10488000A3BFE9B4AEBFDAC1F7BFD80041542B498A
:1048900046433D302C300D0A0000000047534DC404
:1048A000A3BFE9B1BEB5D8CBD9B6C8B1A8B8E600A8
:1048B00041542B494C52523D300D0A0047534DC4D0
:1048C000A3BFE9BFAAC6F4BBD8CFD4004154453139
:1048D0000D0A000047534DC9E8D6C3B5E7D4B4C4A8
:1048E000A3CABD3AC8ABB9A6C4DC000041542B43EF
:1048F00046554E3D310D0A0047534DB5C8B4FD53E2
:10490000494DBFA8B3F5CABCBBAF2E2E2E00000088
:1049100041542B43504D533D224D45222C224D45B1
:10492000222C224D54220D0A00000000703000207D
:1049300053494DBFA8B9CAD5CF00000053494DBF58
:10494000A8D5FDB3A32CC9E8D6C3B6CCD0C5C4A3A3
:10495000CABD3A504455000041542B434D47463D93
:10496000300D0A0047534DC9BEB3FDCBF9D3D0B6C5
:10497000CCCFFBCFA200000041542B434D47443D18
:10498000312C340D0A00000047534DC9E8D6C3B698
:10499000CCCFFBCFA2B1A8B8E600000041542B4316
:1049A0004E4D493D322C320D0A00000047534DC98F
:1049B000E8D6C3C6F4D3C3B6E0C2B7C1ACBDD3001A
:1049C00041542B51494D55583D310D0A000000000E
:1049D00047534DC9E8D6C3B7A2CBCDCFD4CABE3E4C
:1049E0000000000041542B514950524F4D50543D4E
:1049F000330D0A0047534DC9E8D6C3B9D8B1D5B76E
:104A0000A2CBCDBBD8CFD40041542B514953444500
:104A10003D300D0A0000000047534DC9E8D6C3D70A
:104A2000A2B2E1D7B4CCACD6F7B6AFC9CFB1A8002B
:104A300041542B435245473D310D0A0047534DC960
:104A4000E8D6C3CDACB2BDCDF8C2E7CAB1BCE40074
:104A500041542B514E49545A3D310D0A000000007B
:104A600047534DC9E8D6C3504450C9CFCFC2CEC476
:104A70000000000041542B434744434F4E543D3106
:104A80002C224950222C22434D4E4554220D0A001F
:104A900041542B43474D4D0D0A00000047534DBB79
:104AA000F1C8A1C4A3BFE9D0CDBAC53A25730000AF
:104AB00041542B43474D520D0A00000047534DBB54
:104AC000F1C8A1C8EDBCFEB0E6B1BE3A2573000046
:104AD00041542B4347534E0D0A00000047534DBB32
:104AE000F1C8A1C4A3BFE9494D45493A2573000067
:104AF00041542B43494D490D0A00000047534DBB1B
:104B0000F1C8A1534DBFA8494D53493A2573000040
:104B100041542B51434349440D0A000047534DBBB8
:104B2000F1C8A1534DBFA8434349443A257300003F
:104B300047534DB5C8B4FDB5C7C2BCB5E7BBB0CD92
:104B4000F82E2E2E0000000041542B4353510D0A25
:104B50000000000041542B435245473F0D00000028
:104B6000FC4880F8ED143C2909DD002180F8ED14A3
:104B70000320F9490860F9A002F089FE02E0142040
:104B8000F5490860002301221946184604F0EBFCA1
:104B90000DE0F9A002F07BFE0021EE4880F8ED1454
:104BA00080F8F8142321F848006804F0F3F9A0E233
:104BB000F6A002F0EDFE022000231A4619460090EE
:104BC0004FF4FA70FFF7DAF9E249091DF2A002F09A
:104BD0005EFE8EE204EB4401DE48903000EB4110B3
:104BE000C08F04EB44010090DA48903000EB411094
:104BF00000F11D0304EB4401D648903000EB411056
:104C000090F8400008B9E9A000E0E9A0024621467A
:104C1000E8A002F03CFE04EB4401CE48903000EBEB
:104C20004110C08F04EB44010090CA48903000EB63
:104C3000411000F11D0304EB4401C648903000EB25
:104C4000411090F8400008B9D8A000E0D8A0024672
:104C50002146DEA002F09CFE012000231A461946E0
:104C600000904FF4FA70FFF789F9012104EB440238
:104C7000B848903000EB421041703AE22146DAA089
:104C800002F005FE2146DCA002F082FE002607E0CD
:104C9000701C86B2642300221146104604F063FCA7
:104CA00004EB4401AB48903000EB4110407830B148
:104CB000322E04DAA74890F8EC040028E8D1002648
:104CC000002104EB4402A348903000EB42104170F5
:104CD0000020A14908600CE204EB44019D4890309B
:104CE00000EB4110B0F8440018B900209A49086060
:104CF000FFE104EB44019748903000EB411090F83D
:104D00004100D8BB012104EB44029248903000EBF3
:104D1000421080F8411004EB44018E48903000EBC3
:104D20004110B0F8441004EB44028A48903000EB84
:104D30004210A0F8461004EB44018648903000EB86
:104D40004110B0F846202146AFA002F021FE052018
:104D500003230022114600904FF4FA70FFF70EF97A
:104D60000190022104EB44027A48903000EB42109B
:104D700080F841104B207849086056E0FFE704EBCB
:104D800044017448903000EB411090F84100022833
:104D90001CD104EB44036F48903000EB4310B0F893
:104DA000462004EB44036B48903000EB4310816CC9
:104DB0009A4802F01BFD032104EB44026548903041
:104DC00000EB421080F8411000262EE004EB440175
:104DD0006048903000EB411090F84100032824D146
:104DE000642E15DA5B4890F8EC0488B104EB4401BA
:104DF0005848903000EB41104078022808D1701CD0
:104E000086B2642300221146104604F0ACFB0CE08D
:104E10000026002104EB44024E48903000EB421083
:104E200080F8411000204C49086062E14948B0F820
:104E3000B40318B90020484908605AE1454890F881
:104E4000A204C8B9764AA2F11901764801F034FDEE
:104E500080467349193974A002F019FDC34608EB66
:104E6000DB704010411E75A002F092FD012139480F
:104E700080F8A21400265DE0364890F8A2040128CC
:104E800022D1344890F8EC0450B900260021314872
:104E900080F8A21400206D4948702F49086049E04D
:104EA000322E08DA701C86B26423002211461046A6
:104EB00004F059FB3EE000260021264880F8A214A9
:104EC00000202549086035E0224890F8A204022815
:104ED0000ED142465349514802F088FC1A214F48EE
:104EE00002F066FC03211B4880F8A214002621E092
:104EF000184890F8A20403281CD1B6F5167F11DAE1
:104F0000144890F8EC0468B11248B0F8B4030028D3
:104F100008DD701C86B2642300221146104604F09E
:104F200022FB07E0002600210A4880F8A214002096
:104F300009490860DDE0214645A002F029FD012075
:104F400003230022114600904FF4FA70FFF716F881
:104F5000CFE000007030002090000020B5E7BBB02B
:104F6000CDF8B5C7C2BCCAA7B0DCA3ACD6D8D0C2F6
:104F7000B5C7C2BC0000000047534DCDF8C2E7B52D
:104F8000C7C2BCB3C9B9A6001000002041542B43CE
:104F90004F50533F0D0A000047534DD4CBD3AAC9FD
:104FA000CCD0C5CFA23A2573000000005443500076
:104FB00055445000BDA8C1A2534F434B45545B25F7
:104FC000645D2C25732C25733A25640041542B51C4
:104FD000494F50454E3D25642C222573222C222515
:104FE00073222C25640D0A00B9D8B1D5534F434B19
:104FF00045545B25645D000041542B5149434C4F9F
:1050000053453D25640D0A0041542B514953454EEB
:10501000443D25642C25640D0A0000000048004032
:105020005A330020592E00203E3E3EB7A2CBCDB6CB
:10503000CCD0C5C3FCC1EE3A2573000041542B43CC
:105040004D47533D25640D0A0000000094270020C1
:1050500041542B434D47523D25640D0A000000008A
:105060009CA002F014FC00F063F900209C494870F9
:105070009C48006803F0B7FE01209B49086038E0B7
:10508000AFF23C5002F084FC03200346002211469C
:1050900000904FF4FA70FEF771FF2AE093A002F03F
:1050A00077FC032003460022114600904FF4FA706B
:1050B000FEF764FF1DE090A002F06AFC03200346A7
:1050C0000022114600904FF4FA70FEF757FF10E0EF
:1050D0008CA002F05DFC012000231A4619460090C6
:1050E0004FF4FA70FEF74AFF03E000207E490860A3
:1050F00000BF00BFFEF7E2BF8649874A1288885C7E
:1051000085490988491C89B2834A1180C82901DB75
:10511000002111807047814800887F4909888842B2
:1051200006DB7E4800887C490988401A80B27047B7
:105130007948008879490988401AC0F1C80080B2CE
:10514000F5E700BF002500BF00207549A1F87A00EF
:10515000C8677DE00A2300221146104604F003FAD6
:10516000FFF7D9FFD8B96E48C06F0A306C49C867DD
:105170000846B0F87A00002811DD0846C06F6428A0
:105180000DD90846C06F0A30C8670846B0F87A00E3
:10519000002804DD0846C06F642800D9012538E0E6
:1051A000FFF7AAFF04465F48007820B12146AFF61A
:1051B000286006F071F800215B48A0F8F614002082
:1051C0005749C8670846B0F87A000C540846B0F84A
:1051D0007A00085C0A2804D00846B0F87A006E28E5
:1051E00008DD4F48B0F87A00401C4D49A1F87A001C
:1051F000012512E04A48B0F87A00401C4849A1F85D
:105200007A000846B0F87A00782802DB0020A1F87E
:105210007A00FFF780FF0028C2DC00BFC5B1002084
:105220003F49B1F87A103E4A5054104600F0D4F984
:105230003B49C1F880000846D0F8800018B1084604
:10524000D0F88010884700203549A1F87A00C86757
:1052500080E73049314A1288885430490988491C0E
:1052600089B22E4A1180C82901DB002111802B4907
:105270000988294A1288914209D127490988491C7D
:1052800089B2254A1180C82901DB002111807047AD
:1052900070B504F017FA054603F0ACF9284604F09F
:1052A00015FA40F22551214805F0B0FB78B12021D4
:1052B0001E4805F0A2FB1D4805F028FBC4B2FFF70D
:1052C0002AFF08B9FEF754FE2046FFF7C2FF03F09D
:1052D000ACF970BDD6D8C6F447534DC4A3BFE9009E
:1052E00094270020100000209000002041542B4300
:1052F00042430D0A0000000041542B43434C4B3FF6
:105300000D0A000041542B5143454C4C4C4F433D3A
:10531000310D0A00902D00208C0000208A00002012
:10532000EC2F002088000020703000200048004052
:1053300010B50020FA490870C8700021F84880F8BC
:10534000EC1480F8ED1480F8EE1480F8EF1441F2BC
:105350006801A0F8F414002180F8F11480F8F21428
:1053600080F8F014A0F8A0140020ED49A1F8B403CF
:1053700081F8B6030021EA4880F8A214E949C0F890
:10538000A414E9A1001D06F06BF9E7A1E44814306C
:1053900006F066F9E4A1E2483E3006F061F9E2A1C8
:1053A000DF482A3006F05CF9DFA1DD48543006F012
:1053B00057F9DDA1DA48643006F052F9002451E0D3
:1053C000002104EB4402D648903000EB42100170FB
:1053D00004EB4402D248903000EB4210417004EBE1
:1053E0004402CF48903000EB4210A0F8441004EB88
:1053F0004402CB48903000EB4210816404EB44023D
:10540000C748903000EB4210016504EB4402C448E9
:10541000903000EB421080F8411004EB4402C04889
:10542000903000EB4210817604EB4402BC4890308F
:1054300000EB4210C17604EB4402B948903000EB17
:105440004210416504EB4402B548903000EB421035
:10545000816504EB4402B248903000EB4210C16514
:10546000601CC4B2062CABDBB1A1AD48743006F0B1
:10547000F7F80021AA4880F8DE1480F8F814A0F8A4
:10548000FA14A0F8F61480F8FC1480F8081510BD82
:1054900070B5054600241EE005F0E4FE0068295DB5
:1054A000405C20280BD0285D412802DB285D5A286B
:1054B00005DD285D612807DB285D7A2804DC295D8D
:1054C00097481430015504E00021954814300155E7
:1054D00003E0601CC4B2132CDEDB00BF002070BDF3
:1054E000014600221FE0087820281BD1491C002219
:1054F0000FE00878202804D008780D2801D008781B
:1055000000B908E00B78864864308354491C501C6D
:10551000C2B20F2AEDDB00BF002381486430835400
:1055200000207047491C08780028DCD100BFF8E74C
:10553000014600220FE00878202804D008780D28C2
:1055400001D0087800B908E00B78754854308354CE
:10555000491C501CC2B20F2AEDDB00BF002370486B
:10556000543083540020704770B50546002412E083
:1055700005F078FE0068295D405C202804D1295D93
:1055800067482A30015504E0002165482A3001555A
:1055900003E0601CC4B2132CEADB00BF002070BD26
:1055A00070B50546002412E005F05CFE0068295D38
:1055B000405C202804D1295D59483E30015504E063
:1055C000002157483E30015503E0601CC4B2152C41
:1055D000EADB00BF002070BD70B5054628780D28B5
:1055E00001D1002070BD002414E0534951F834006B
:1055F00006F05AF8C6B2504850F8341032462846E1
:1056000006F002F820B94C4800EBC4004068E9E716
:10561000601CC4B2484850F8340000780028E4D137
:10562000464800686421B0FBF1F201FB12001E380D
:10563000052813D2DFE800F0090C06030F00AFF2D3
:105640009F00CFE7AFF2DF00CCE7AFF21B10C9E756
:10565000AFF27310C6E7AFF2C710C3E700BF00BFD9
:105660000020BFE710B504463548006803F0E2F9B2
:1056700001213448006803F08EFA002010BD10B5F7
:1056800004462E480068C0B12C4800686421B0FB75
:10569000F1F201FB12004B280FD028480068B0FB44
:1056A000F1F201FB1200372807D02448006820B12E
:1056B00001212348006803F06EFA002010BD10B5E8
:1056C00004461E48006820B102211D48006803F00E
:1056D00062FA002010BD10B504461848006820B1D9
:1056E00002211748006803F056FA002010BD70B57B
:1056F00004462146012002F0A1FB85B20F48006854
:1057000020B102210E48006803F045FA0A2D05D1A8
:105710000DA002F0BCF802200149C870002070BD45
:105720007030002091620008554E4B4E4F574E008E
:10573000636D6E657400000044CD00089000002089
:10574000080000200C00002053494DBFA8B4EDCE46
:10575000F328434D45204552524F52290000000086
:1057600070B504462146012002F068FB85B2632D26
:1057700000D10025FD4880F8EE54002070BD10B522
:1057800004462146032002F059FB81B2F748A0F8F5
:10579000F414002010BD10B50446F5A002F077F80F
:1057A000002010BD70B5044600252146022002F0FD
:1057B00045FBC1B2ED4880F8DA142146032002F01F
:1057C0003DFBC1B2E94880F8DE142146062002F014
:1057D000E7FB401C044400BF04E0615DE74841551D
:1057E000681CC5B205F03EFD0068615D405C202884
:1057F000F3D00021E1484155DC4890F8DE0410B1B7
:10580000042810D107E00121D84880F8DE140021D7
:10581000A0F8F61407E00521D44880F8DE14002132
:10582000A0F8F61400BF00BF0321D04880F8DF14B1
:10583000D249D3A002F02BF8002070BD10B5044669
:105840000221D248006803F0A6F90021C74880F879
:10585000DE14CFA002F01BF8002010BD10B50446E6
:105860000221CA48006803F096F90021BF4880F879
:10587000DE14C9A002F00BF8002010BD2DE9F041A4
:105880000746384602F0B6FB0646022E07DB042E1A
:1058900005DC3946022002F0D1FAC5B20AE0012E39
:1058A00005D13946012002F0C9FAC5B202E0002054
:1058B000BDE8F0817DB1012D02D0052D0AD104E0B3
:1058C0000121AA4880F8EC141DE00521A74880F8C2
:1058D000EC1418E000BF0020B249087088704870CE
:1058E000002409E0002104EB4402A048903000EBC2
:1058F00042104170601CC4B2062CF3DB00219B48AF
:1059000080F8EC1400BF00BF0020D1E70146002062
:10591000704770B504462146022002F08FFAC5B2E6
:1059200005EBC50000EB0510362202EB80019E4816
:10593000006803F02FFB002070BD2DE9F041054603
:1059400000270024A0462946012002F029FB401C24
:1059500087B200BF06E03819295C8848EA3801554B
:10596000601C84B205F07EFC00683919695C405CFB
:105970002028F0D03819285C2B28ECD000217F4853
:10598000EA3801557948A0F8A014C82100F2D730B0
:1059900005F0ADFF26E0FFF7BEFB002818DD4FF055
:1059A0000008FFF7A9FB06460D2E01D00A2E00D1F4
:1059B00020E06E48B0F8A01400F2D73046546B488F
:1059C000B0F8A004401C81B26848A0F8A01409E017
:1059D00008F10A001FFA80F80A2300221146104637
:1059E00003F0C1FD6148B0F8A004C82802DAB8F598
:1059F0007A7FD0DB00BF5D48D0F8A40438B15B48A3
:105A000000F2D731D0F8A42400F2BE309047002035
:105A1000BDE8F08101460020704710B5044663A040
:105A200001F035FF644800686421B0FBF1F201FB2E
:105A30001200372808D161A001F029FF00204B494E
:105A4000A1F8B40381F8B603002010BD70B5044678
:105A50002146032002F0A4FA401C044400250AE079
:105A600021784248001D41552078222800D104E0C9
:105A7000641C681CC5B20F2DF2DB00BF00213B483F
:105A8000001D4155002070BD70B50646304605F03A
:105A90000BFE1E284FD9307A22284CD106F109047A
:105AA00000251FE005F0DEFB00682178405C20281F
:105AB00008D005F0D7FB00686178405C202801D051
:105AC000012070BD61782078303800EB800001EB58
:105AD00040003038C1B22948623028444170E41C8B
