:020000040800F2
:10000000D04700207DA80008F1920008F392000874
:10001000F7920008FB920008FF9200080000000021
:100020000000000000000000000000000393000832
:100030000593000800000000B39100080993000830
:1000400097A8000897A8000897A80008B1380008EA
:1000500097A8000897A8000897A8000897A8000884
:1000600097A8000897A8000897A8000897A8000874
:1000700097A8000897A8000897A8000897A8000864
:1000800097A8000897A8000897A8000897A8000854
:1000900097A8000897A8000897A8000897A8000844
:1000A00097A8000897A8000897A8000897A8000834
:1000B00097A8000897A8000897A8000897A8000824
:1000C00097A8000897A8000897A8000897A8000814
:1000D00097A80008A1180008F11D00086131000868
:1000E00097A8000897A8000897A8000800F002F851
:1000F00000F090F80AA090E8000C82448344AAF132
:100100000107DA4501D100F085F8AFF2090EBAE82F
:100110000F0013F0010F18BFFB1A43F0010318473B
:1001200004FB000024FB0000103A24BF78C878C10B
:10013000FAD8520724BF30C830C144BF04680C60ED
:10014000704700000023002400250026103A28BF35
:1001500078C1FBD8520728BF30C148BF0B60704739
:100160006E290AF0E88770290AF09E8466290CF04F
:10017000DB8065290CF0D88067290CF0D5806129D7
:10018000AFF3008003681B0A28BF41F08001692992
:100190000AF00C8464290AF0098475290AF006849F
:1001A0006F290BF0D98078290AF06A84E9290BF0CD
:1001B0007180E4290BF06E80F5290BF06B80EF293C
:1001C0000BF0D680F8290AF069840368DB0928BFA0
:1001D00041F0800163290AF0F28773290AF0F7875A
:1001E000E3290BF09683F3290BF09B8300207047E3
:1001F0001FB50AF005FF0400002000210CF068F88C
:10020000401C6060002000210CF078F8E0601FBD09
:1002100010B510BD0BF0A9FB1146FFF7E9FF00F088
:10022000B8F90BF079FC03B4FFF7F2FF03BC03F05D
:1002300003FC000030BF00000EB500BF64230022A5
:100240001146104608F0E5FE03F09BFA03F058FB58
:100250004FF4E131DB4803F002FC4FF41651DA4869
:1002600003F0FDFB4FF49641D84803F0F8FBD8A00B
:1002700003F08DFCD8A003F08AFCDFA003F087FC1C
:10028000E349E4A003F083FCE6488079E549497935
:10029000E44A1279CDE900210290E248C3788278DD
:1002A0000188E1A003F073FCE9A003F070FCEDA06D
:1002B00003F06DFCF2A003F06AFC03F01AFEF848AC
:1002C000007857282BD05720F5490870F5A003F087
:1002D000FBFEF349486040F69F7008810D22F5A1AE
:1002E000EF4828300AF0F3FD0020ED4988723C20E9
:1002F000C8864FF4967008871E2048873C20888760
:100300000D21E7483E300AF014FE0D21E4484B3041
:100310000AF00FFEEBA003F062FC03F0E2FD40F2F6
:10032000E241052003F072FB012008F0ECF8EA49F5
:100330000860012008F0E7F8E84908606421E8480F
:1003400008F0DDF9E7490860012008F09FFCE64964
:100350000860012008F09AFCE4490860E148006860
:1003600008F097FA0723E24A0021E24808F056FD18
:100370000423E14A0021E14808F050FD0323E04A4C
:100380000021E04808F04AFD0623DF4A0021DF484B
:1003900008F044FD0523DE4A0021DE4808F03EFD5A
:1003A00005E0002301221946184608F032FEF8E75E
:1003B00030B585B0684609F0ACF84FF47A72019810
:1003C000B0FBF2F1B1F1807F00D31DE021F07F405E
:1003D000401E4FF0E022506150170F22002807DA2C
:1003E00013071D0ECC4B00F00F04241F1D5503E016
:1003F00013071C0EC94B1C5400BF00204FF0E02215
:1004000090610720106100BF05B030BD30B58DB0E0
:100410003022C34901A80AF05AFDC2A4002513E006
:1004200001A850F82510032220460AF07EFC50B99E
:100430007C48807800EB80004006000E7949887087
:10044000681C887002E06D1C0C2DE9DB00BF241DC8
:1004500000E0641C0AF034FA00682178405C20282F
:10046000F7D100206F49C8700FE06E48C07800EBEC
:1004700080004006000E6B49C8700846C17820789D
:10048000303808446749C870641C0AF019FA0068DB
:100490002178405C2028E8D000E0641C0AF010FAC3
:1004A00000682178405C2028F7D100205D49088051
:1004B00011E05C48008800EB80004FF6FF7101EA14
:1004C00040005849088008460188207830380844A0
:1004D00054490880641C0AF0F3F900682178405CF4
:1004E0002028E6D092A400204E4908710FE04D4824
:1004F000007900EB80004006000E4A49087108466A
:10050000017920783038084446490871641C0AF0A3
:10051000D7F900682178405C2028E8D0641C0020CE
:10052000404948710FE03F48407900EB80004006A9
:10053000000E3C494871084641792078303808441B
:1005400038494871641C0AF0BBF900682178405CA6
:100550002028E8D0641C0020324988710FE031481F
:10056000807900EB80004006000E2E498871084615
:1005700081792078303808442A498871641C0AF04F
:100580009FF900682178405C2028E8D025480DB00C
:1005900030BD10B5FFF73AFF02F0CBFF03F023F8B0
:1005A00007F06CFDFFF704FF0223644A0021644852
:1005B00008F034FC0446002008F06DFD07F0BDFD96
:1005C000204610BD00380140004400400048004073
:1005D000202020200D0A00002F2A2A2A2A2A2A2A2F
:1005E0002A2A2A2A2A2A2A2A2A2A2A2A2A2A2A2A6B
:1005F0002A2A2A2A0D0A000053544D33325F4750ED
:10060000535F426C61636B5F626F61640D0A00004F
:100610000000002056657273696F6E3A25730D0AEB
:10062000000000001C000020436F6D70696C653A8B
:100630002534642D253032642D2530326420253058
:1006400032643A253032643A253032640D0A0000B3
:10065000417574686F723A59616E4C69616E670DCD
:100660000A0000006368696E6179616E6C69616E91
:100670006740736F68752E636F6D0D0A0000000090
:100680002A2A2A2A2A2A2A2A2A2A2A2A2A2A2A2ACA
:100690002A2A2A2A2A2A2A2A2A2A2A2F0D0A000046
:1006A000741500203132342E3133332E322E33364E
:1006B00000000000303135303938383532323136CB
:1006C00000000000C9E8B1B8B2CECAFDD0B4C8EB92
:1006D000466C617368000000080000200C000020D8
:1006E000E413002010000020140000201800002057
:1006F000E003002041140008E00B0020531F000815
:10070000E00F002021300008E0130020991C0008B1
:10071000E00700208F32000818ED00E000E400E060
:100720002CC300084A756E2033302032303135003A
:1007300031333A34353A323400000000E001002011
:10074000390200087FB50546B24C2946B2A003F035
:100750001EFAB2480088C72802D0B148007810B10C
:100760000020AE4908800020AD490870AB480088E1
:100770002554AA480088401CA849088008460088DB
:10078000401E205C082813D1A6A003F000FAA3485D
:100790000088012808DDA4A003F0F9F99F4800882B
:1007A000801E9E490880FCE300209C490880FAE7EF
:1007B0009A480088401E205C092820D100209B49CF
:1007C000086007E098A003F0E2F998480068401C30
:1007D0009649086091490988C81CC11700EB5171FE
:1007E000C910A0EBC101C1F10801904A1268914201
:1007F000E8D88A480088401E88490880D3E787489F
:100800000088401E205C7F2805D184480088401E57
:1008100082490880C7E781480088401E205C0A287A
:10082000C1D17E48008802280BDC7C480188204624
:100830000AF07FFB0020794908807DA003F0A7F92A
:100840007FBD76480088801E205C0D28ABD100203B
:1008500072490988605401207149087076A12046C8
:100860000AF08AFB28B176A120460AF085FB002811
:1008700033D174A003F08BF97DA003F088F986A032
:1008800003F085F98CA003F082F995A003F07FF9BD
:100890009AA003F07CF9A2A003F079F9A7A003F0D5
:1008A00076F9ADA003F073F9B3A003F070F9BAA024
:1008B00003F06DF9C1A003F06AF9C9A003F067F96C
:1008C000D0A003F064F9D9A003F061F9E1A003F02E
:1008D0005EF9EDA003F05BF99FE2F2A120460AF079
:1008E0004BFB98B9F1488079F0494979EF4A127980
:1008F000EE4BDB78CDE90032CDE90210EB4883788E
:100900000288EB49EBA003F042F9E5E7F7A12046A6
:1009100003F06CFB002827D0607920280AD12046FC
:100920000AF0E4F9092805D1A079302809D0A07986
:10093000312806D0EFA003F02AF93DA003F027F9F3
:100940007EE7A079312801D1012000E00020F049A4
:1009500008700846007808B1EEA000E0EFA001465C
:10096000F0A003F014F9B7E7F1A120460AF004FB68
:1009700040B9F1A003F00BF9F24AF3A1F7A004F09B
:100980000BFAA9E7F8A120460AF0F6FA18B9F8A080
:1009900003F0FDF8A0E7FCA120460AF0EDFA28B923
:1009A000FCA003F0F4F802F0BFFD95E7FEA120469D
:1009B0000AF0E2FA70B9E34928394868FC4903F0C3
:1009C000B4FB0646DF48283802893146F9A003F017
:1009D000DEF881E7FCA1204603F008FB002817D0D1
:1009E000607920280BD120460AF080F908380728C2
:1009F00005D320460AF07AF908380F2809D920468D
:100A00000AF074F906463146BAA003F0C0F8DFE1F7
:100A100004E2E2E1A9160020256300004400002062
:100A200046000020200000000800000048000020D0
:100A30000D0A7E202420000068656C700D0A0000FD
:100A40003F0D0A0068656C702C3F203A2050726997
:100A50006E742074686520636F6D6D616E642075BF
:100A600073616765206C6973742E0D0A00000000C5
:100A7000766572202020203A2047657420746865CE
:100A80002076657273696F6E20696E666F726D6134
:100A900074696F6E2E0D0A007265626F6F74203A72
:100AA000205265626F6F7420746865206465766992
:100AB00063652E0D0A000000697020202020203A76
:100AC000204765742053657276657220495020690D
:100AD0006E666F726D6174696F6E2E0D0A00000094
:100AE000736574697020203A2053657420536572D1
:100AF0007665722049502E0D0A000000202020202B
:100B0000202020202065673A2073657469702031A9
:100B100039322E3136382E312E3130300D0A000068
:100B2000736574706F72743A2053657420536572E4
:100B300076657220506F72742E0D0A0020202020DE
:100B4000202020202065673A20736574706F7274CE
:100B500020353535350D0A0073696D202020203A87
:100B6000204765742053494D2063617264206E757F
:100B70006D6265722E0D0A0073657473696D203A9B
:100B8000205365742053494D2063617264206E7553
:100B90006D6265722E0D0A0020202020202020206A
:100BA0002065673A2073657473696D203133333380
:100BB000353139373136390D0A000000616E756DF7
:100BC0002020203A2047657420416C61726D2070AE
:100BD000686F6E65206E756D6265722E0D0A00007D
:100BE000736574616E756D3A2053657420416C6154
:100BF000726D2070686F6E65206E756D6265722E05
:100C00000D0A000020202020202020202065673AA7
:100C100020736574616E756D20312C31333333353B
:100C20003139373136390D0A00000000696E742001
:100C30002020203A20476574204750532055706487
:100C400061746520696E74657276616C2873292EF3
:100C50000D0A0000736574696E74203A2053657440
:100C6000204750532055706461746520696E746527
:100C70007276616C2C203E3D312026203C3D20398F
:100C800030302E0D0A0000002020202020202020BF
:100C90002065673A20736574696E742033300D0ADD
:100CA000000000007665720D0A0000001C000020A4
:100CB0000000002076657273696F6E3A20257320FC
:100CC0006275696C642025302E34642D25302E32F7
:100CD000642D25302E32642025302E32643A2530A2
:100CE0002E32643A25302E32640D0A006465627536
:100CF000670000004572726F723A496C6C656761FB
:100D00006C20636861726163746572210D0A000072
:100D1000680000204F70656E00000000436C6F7328
:100D20006500000025732064656275670D0A000088
:100D30006D73670D0A000000B7A2CBCDB6CCD0C54D
:100D4000000000009C15002049443A25730D0A500C
:100D50004455B6CCD0C5B2E2CAD4000031333333E7
:100D60003531393731363900657869740D0A00003C
:100D700045786974207468697320696E7465726659
:100D80006163652E0D0A00007265626F6F740D0A53
:100D9000000000005265626F6F74696E672E2E2E20
:100DA0000D0A0D0A0000000069700D0A0000000025
:100DB000CC150020536572766572203D2025733A6C
:100DC00025640D0A0000000073657469700000005E
:100DD000AFF2A43002F0DBFE32E5204609F086FFD8
:100DE000801E00212154A01D03F06EF9FB4908600C
:100DF0000846006840B9AFF2041002F0C8FEAFF236
:100E0000D03002F0C4FE1BE5F4480068F4494860A5
:100E100003F067F8F3A002F0BAFEC6E2F9A120469B
:100E200003F0E4F8002873D0E07920280AD12046A6
:100E300009F05CFF0A3805D0204609F057FF0A3850
:100E4000052808D9AFF2541002F0A1FEAFF22040FD
:100E500002F09DFEF4E40020E0490860EB490860E0
:100E600021E0EA4800680830205C302805DBE748CC
:100E700000680830205C392800DD1CE0D748006895
:100E800000EB80004000D5490860E0480068083069
:100E9000205C303809680844D0490860DB480068A5
:100EA000401CDA490860204609F020FF0A38D7497B
:100EB00009688842D5D800BF204609F017FF0A38D4
:100EC000D2490968884208D9AFF2D81002F05FFE13
:100ED000AFF2A44002F05BFEB2E4C048006820B16B
:100EE000BE480068B0F5803F07D3C9A002F04FFEAE
:100EF000AFF2C44002F04BFEA2E4B8480088B84903
:100F0000088102F0EEFFCBA002F041FE4DE2FFE7C8
:100F1000D0A120460AF030F828B9B1492831CFA035
:100F200002F035FE41E2D3A1204603F05FF800282D
:100F300056D0A079202805D1204609F0D7FE0938DF
:100F40000B2808D0AFF2542002F021FEAFF220505F
:100F500002F01DFE74E40020AC49086011E0AB48CB
:100F60000068C01D205C302805DBA8480068C01D53
:100F7000205C392800DD08E0A4480068401CA34933
:100F80000860A24800680B28E9D300BF204609F09A
:100F9000ADFE09389D49096888420AD9AFF2AC20F4
:100FA00000E006E202F0F3FDAFF27C5002F0EFFD4C
:100FB00046E430208A4981F82800481C54F8071F6D
:100FC00081626168C16221890186A17A80F832104C
:100FD000A4F1070402F085FFA8A002F0D8FDE4E127
:100FE000AFA1204609F0C8FF50B97D493E31AEA0FF
:100FF00002F0CDFD7A494B31B2A002F0C8FDD4E138
:10100000B7A1204602F0F2FF002867D0E07920283F
:101010000ED1207A312802D0207A322808D1607A85
:101020002C2805D1204609F061FE0C380B2808D089
:10103000AFF2403002F0ABFDAFF20C6002F0A7FD62
:101040007EE400207149086011E0704800680A30B1
:10105000205C302805DB6D4800680A30205C3928A8
:1010600000DD08E069480068401C6849086067487E
:1010700000680B28E9D300BF644800680B2808D239
:10108000AFF2903002F083FDAFF25C6002F07FFDC2
:1010900056E4217A313901EB810202EBC102504959
:1010A0003E3150180D2109F044FF207A313800EB11
:1010B000800101EBC0014A483E300844D4F80A10D0
:1010C0000160D4F80E104160618A0181217D817236
:1010D00002F007FF84A002F05AFD66E18CA12046D1
:1010E00009F04AFF78B93E48C18E8BA002F04FFD4F
:1010F0003B48018F90A002F04AFD3948418F96A0ED
:1011000002F045FD51E19CA1204602F06FFF00284E
:1011100061D0A07920280AD1204609F0E7FD0938DE
:1011200005D0204609F0E2FD0938032808D9AFF2BE
:101130003C4002F02CFDAFF2087002F028FD4BE6B7
:101140000020264908603149086021E02F480068E6
:10115000C01D205C302805DB2C480068C01D205CC9
:10116000392800DD1CE01D48006800EB80004000CD
:101170001A49086025480068C01D205C303809689D
:1011800008441649086021480068401C1F4908604F
:10119000204609F0ABFD09381C4909688842D5D8BA
:1011A00000BF204609F0A2FD0938184909688842A5
:1011B00008D9AFF2C04002F0EAFCAFF28C7002F046
:1011C000E6FC09E60548006820B104480068B0F56F
:1011D000617F01D9D4E0E5E0DAE000004C000020B6
:1011E000741500205365742053657276657220690A
:1011F00070207375636365737366756C6C792E0DFF
:101200000A000000736574706F727400480000205B
:101210004572726F723A54686520706F72742069FB
:1012200073206E6F74206C65676974696D61746595
:10123000210D0A0053657420736572766572207003
:101240006F7274207375636365737366756C6C7904
:101250002E0D0A0073696D0D0A00000053494D20E0
:1012600063617264206E756D626572203D20257326
:101270000D0A000073657473696D00005365742076
:1012800053494D2063617264206E756D62657220F2
:101290007375636365737366756C6C792E0D0A00E4
:1012A000616E756D0D0A0000416C61726D20706891
:1012B0006F6E65206E756D6265722031203D202550
:1012C000730D0A00416C61726D2070686F6E65204D
:1012D0006E756D6265722032203D2025730D0A0007
:1012E000736574616E756D0053657420416C617235
:1012F0006D2070686F6E65206E756D62657220730B
:1013000075636365737366756C6C792E0D0A0000E6
:10131000696E740D0A0000005570646174612049A3
:101320006E74657276616C2064656661756C74209C
:101330003D2025640D0A00005570646174612049E8
:101340006E74657276616C20736C65657020202008
:101350003D2025640D0A00005570646174612049C8
:101360006E74657276616C20616C61726D202020F4
:101370003D2025640D0A0000736574696E740000D9
:10138000EFA002F004FCAFF6581002F000FC23E5D9
:10139000F5480088F549C88602F0A3FDF4A002F0E4
:1013A000F6FB02E0FAA002F0F2FBAFF67C1002F0CE
:1013B000EEFB00BF10E5FE49FE4A1288885CFD493D
:1013C0000988491CC82905DAFA490988491CF94ADB
:1013D000118002E00021F74A1180F7490988491E6F
:1013E000F54A1180704710B50446F4480088801C07
:1013F00014280ADBF1480088801EF049088008465E
:101400000288EF49881E09F020FD04F00F0010301B
:10141000EB49891EE94A12888854E8480088401C34
:10142000E649088004F00F002030E549891EE34AB0
:1014300012888854E1480088401CE049088010BDAB
:1014400000BF00BF0025002400BFDE4802F050F9B5
:10145000DD490860DD49DC48006802F0B8F9002089
:10146000DB490860DB4908600846007820F001008D
:10147000401C08700846007820F0020008700846FA
:10148000807820F00400001D88701421CC48801E54
:1014900009F04FFD0020C94908803AE16423002289
:1014A0001146104607F0B5FD02F0BEFACA48B0F882
:1014B000F204401C81B2C848A0F8F214B1F5966F4E
:1014C00007D9C6A002F08BFB0321C948006807F0CA
:1014D000F0FA1021C74808F04CFB08B3BD4840782B
:1014E000C0F3C000E0B10020C3490880C3480088B1
:1014F000401C80B2C1490880052839DBC0A002F039
:10150000A0FBB448407820F00800B2494870B048C9
:10151000407820F00100AE49487006F086F927E0D7
:101520001021B44808F025FB10BBAA484078C0F34E
:10153000C000E8B90020B1490880AF480088401CCD
:1015400080B2AD490880052812DBB1A002F079FB1A
:10155000A048407820F0080008309E4948709C4818
:10156000407820F00100401C9949487006F05DF970
:101570000121A04808F0FDFAF8B19548C078C0F301
:101580008000D0B90020A6490880A6480088401CE9
:1015900080B2A449088005282FDBA3A002F051FBEC
:1015A0008B48C07820F00400001D8949C87006F0FF
:1015B0003CF90120FFF717FF1FE001218D4808F0DB
:1015C000D8FAD0B98248C078C0F38000A8B1002012
:1015D0009449088092480088401C80B29049088055
:1015E00005280ADB93A002F02CFB7948C07820F094
:1015F00004007749C87006F018F94FF480519148FB
:1016000008F0B7FAF8B972480078C0F3C000D0B952
:1016100000208D4908808D480088401C80B28B498D
:101620000880052830DB8AA002F00BFB68480078B0
:1016300020F0080008306649087006F0F6F802202D
:10164000FFF7D1FE20E04FF480517E4808F091FA78
:10165000D0B15F480078C0F3C000A8B100207B493A
:10166000088079480088401C80B2774908800528A6
:101670000ADB7AA002F0E5FA5548007820F008006D
:101680005349087006F0D1F85348B0F8B003A8BB2E
:101690004A480088002831DD4948801E007804113E
:1016A0004748801E007800F00F05012C16DB022C45
:1016B00014DC611E01EB810202EBC1022B493E31B9
:1016C000501809F013FB0B2808D1012D02D0022D70
:1016D00002D100E001E000E000BF00BF3748008811
:1016E000401E3649088008460088002806DD084666
:1016F00002883349491E481E09F0A7FB05E0FFF7A1
:101700005AFE06463046FFF71DF82B480088002891
:10171000F5DCC3E62649554A12888854534909889E
:10172000491C89B2514A1180C82901DB002111806E
:1017300021490988C82901DA1F4999E09DE0000084
:101740004572726F723A54686520696E746572767C
:10175000616C206973206E6F74206C6567697469B1
:101760006D617465210D0A004C0000207415002085
:1017700053657420696E74657276616C207375634D
:101780006365737366756C6C792E0D0A000000003A
:101790005468697320636F6D6D616E642069732096
:1017A000756E646566696E6564210D0A000000004F
:1017B000E015002032000020340000203600002018
:1017C000731700201C0000202C00002024000020A3
:1017D0008400002088000020F02D002047534DC4D5
:1017E000A3BFE9BFB4C3C5B9B7B3ACCAB100000069
:1017F00010000020000801403A00002038000020BE
:10180000CDE2BDD3B5E7D4B4BDD3CDA80000000070
:10181000CDE2B2BFB5E7D4B4B9D8B1D5000000006D
:101820003E0000203C000020BCF4CFDFB1A8BEAFDA
:1018300000000000BCF4CFDFB1A8BEAFBBD6B8B487
:1018400000000000000C0140420000204000002089
:10185000B0CEB3F6B1A8BEAF00000000B0CEB3F674
:10186000B1A8BEAFBBD6B8B4000000003000002065
:101870000988491C1B4A118009E01B490988491C39
:1018800089B2194A1180C82901DB002111807047F3
:1018900000201549088015490880124908807047C2
:1018A00070B507F065FC054606F0FAFB284607F020
:1018B00063FC40F225510E4808F0D6FB78B1202198
:1018C0000B4808F0C8FB0A4808F04EFBC4B20548B4
:1018D000008808B9FFF7DCFF2046FFF71BFF06F082
:1018E000FAFB70BD340000203200002030000020E0
:1018F0000038014010B502460B460020002100BF11
:1019000007E0545C2A2C00D105E0545C60404C1C7C
:10191000A1B29942F5DB00BF10BD2DE9F0410446AC
:1019200000262078242802D00020BDE8F08120463F
:1019300009F0DCF9401F87B23946601CFFF7DAFF77
:101940000646204609F0D2F92044071F384602F027
:101950002CFEB04204D0FEA002F041F90020E4E7E2
:1019600006222146FEA009F071F960B10622214647
:10197000FDA009F06BF930B106222146FCA009F068
:1019800065F900287ED12146022002F0B1FC05460F
:10199000605D412877D1F8480078412877D021460A
:1019A000092002F0A5FC054608F08AFF0068615D89
:1019B000405C202824D1681C215C605D303800EB3D
:1019C000800001EB40003038C1B2EB484171E81CA7
:1019D000215CA81C205C303800EB800001EB40004B
:1019E0003038C1B2E4480171681D215C281D205CBB
:1019F000303800EB800001EB40003038DE49488091
:101A00002146012002F074FC054608F059FF0068E9
:101A1000615D405C202825D1681C215C605D303808
:101A200000EB800001EB40003038C1B2D248817138
:101A3000E81C215CA81C205C303800EB800001EB26
:101A400040003038C1B2CC48C171681D215C281DEE
:101A5000205C303800EB800001EB40003038C1B230
:101A6000C54801720821C448801C02F0DAFDC24852
:101A7000801C01F03DFEC049C860881C01F072FE68
:101A8000BEA002E09BE08BE001E002F0DAF8BE4885
:101A9000007820F00200801CBB4908700322214618
:101AA000072002F0B7FB40F23C7148434FF47A71D3
:101AB000B0FBF1F0B04988830846808B142801DA26
:101AC000002088832146082002F012FC0546605D54
:101AD0002C280CD000222146082002F09BFB4FF45A
:101AE000B471B0FBF1F201FB1200A349C883214697
:101AF000062002F0FDFB205C9F49887421460420EB
:101B000002F0F6FB205C9C49C874042221460520A3
:101B100002F080FB98494861084640699B49B0FB48
:101B2000F1F201FB1200642148433C21B0FBF1F5C6
:101B3000914840699549B0FBF1F08F4948610846EA
:101B40004069924948438C494861084640692844A5
:101B5000486104222146032002F05CFB864988612B
:101B6000084680698949B0FBF1F201FB120064214B
:101B700048433C21B0FBF1F57F4880698349B0FBC5
:101B8000F1F07D49886108468069804948437A4977
:101B9000886108468069284488614120087053E0C4
:101BA00056207549087000208883C883488448748B
:101BB00081F8200081F8250081F8240044E0062205
:101BC000214673A009F042F858B10622214672A0BE
:101BD00009F03CF828B10622214671A009F036F838
:101BE000B8B96548007841282ED12146072002F077
:101BF000CDFA614948742146082002F0C7FA5E49CF
:101C000081F820002146092002F0C0FA5A49488490
:101C10001AE00622214664A009F018F838B92146D6
:101C2000032002F0B3FA544981F825000CE00622A3
:101C300021465FA009F00AF830B92146032002F0DE
:101C4000A5FA4D4981F8240001206EE65A495B4A05
:101C50001288885C59490988491C584A11801146E4
:101C60000988C82901DB0021118070475448008889
:101C700052490988884206DB514800884F49098843
:101C8000401A80B270474D4800884D490988401A73
:101C9000C0F1C80080B2F5E700BF0024002600BFF5
:101CA00056203549087000208883C88348844874CA
:101CB00081F8200081F8250081F8240035E00A230E
:101CC00000221146104607F0A4F9FFF7CFFF70B9C4
:101CD00006F10A0086B2002C09DD642E07DD002023
:101CE000384908550846FFF718FE0024002618E07A
:101CF0000026FFF7ABFF054632480555005D0A2870
:101D000009D1601C84B200202E4908550846FFF70F
:101D100004FE002405E0601C80B20446642800DB59
:101D20000024FFF7A3FF0028E2DCC8E72249244A89
:101D30001288885422490988491C89B2204A118096
:101D4000C82901DB002111801D4909881B4A3BE09D
:101D5000475053CAFDBEDDD0A3D1E9B4EDCEF300A8
:101D6000244750524D43000024474E524D4300003B
:101D7000244244524D43000054180020474E535310
:101D8000D0A3CAB1000000008800002040420F002C
:101D9000244750474741000024474E474741000031
:101DA000244244474741000024475047535600000F
:101DB0002442444753560000881700205200002058
:101DC000500000207C1800201288914209D1194946
:101DD0000988491C89B2174A1180C82901DB0021F2
:101DE000118070470020134908801349088070470C
:101DF00070B507F0BDF9054606F052F9284607F020
:101E0000BBF940F225510D4808F02EF978B1202198
:101E10000A4808F020F9094808F0A6F8C4B2FFF70C
:101E200025FF08B9FFF7DEFF2046FFF77FFF06F02A
:101E300052F970BD520000205000002000440040C4
:101E40002DE9F84380460C4615461E46089F4FF084
:101E500000096A464146FA48006806F07BFB6A467C
:101E60004146F848006806F075FBD0B1012858D00B
:101E7000022800D000BFF4480078401CF2490870E6
:101E80004FF0020908460078B84209DB00200870CC
:101E9000EE49086025B12946ED48006806F009FEC4
:101EA0004DE09DF800000A2824D1E7480078401C46
:101EB000E54908704FF003091B21E6A001F010FF6F
:101EC000E1480078B84225DBE0480068272805D0C3
:101ED000DE4839460268E0A001F081FE0020DA49C0
:101EE0000870DA490860AEB13146D948006806F09A
:101EF000E0FD0FE09DF80010DEA001F070FE4FF055
:101F0000FF090020D149086024B12146D04800686B
:101F100006F0CFFD002301221946184607F079F894
:101F20000DE024B12146CA48006806F0C2FD002039
:101F3000C5490870C54908604FF0010900BF00BFDE
:101F40004846BDE8F8830020CE490880CE49088085
:101F500070470EB500200190002500274FF0010AC0
:101F60008046002301221946184607F052F803F074
:101F70008DF80020B54908600121B548006806F0D9
:101F80005FFD00BF01F025B8B048006830B902A974
:101F9000AF48006806F086FBAC490860AB480068B3
:101FA0006421B0FBF1F4A9480068B0FBF1F201FB39
:101FB00012004C2881F00880DFE810F04C00E700A8
:101FC0000608C107060806080608060806080608E7
:101FD000F2012D01A201B201C201D201E20192017E
:101FE000BF020F0341032F031F030608060806085C
:101FF00006080608060806085502670279028B02E1
:102000009D023F05D107DF07EC07F9070608060820
:102010000608060806080608060806080608060850
:1020200045020402AF020608B307A406CF02060861
:102030000608060806080608060806080608060830
:102040000608060806080608DF02EF02FF0251052F
:10205000A505D305642300221146104606F0D9FFDA
:10206000794890F8EC0430B901217948006806F00D
:1020700020FD00F0ADBF744890F8E80448B9142181
:102080007348006806F015FD00216F4880F8E914D8
:10209000EFE70198401C0190052800D2E9E70020F5
:1020A000019000263FE006EB460167488C3000EBCC
:1020B00041104078B8B906EB460163488C3000EB1C
:1020C0004110007868B3604890F8DA0448BB06EB2A
:1020D000C60000EB0610492202EB80015C48006854
:1020E00006F0AEFC1DE006EB460157488C3000EBD5
:1020F00041104078022814D106EB460152488C303A
:1021000000EB4110B0F8440000280ADD06EBC600E1
:1021100000EB06104B2202EB80014D48006806F0F0
:102120008FFC701C86B2062EBDDB4748B0F8B003AA
:1021300020B137214648006806F082FC37B1022FF3
:102140000CD0042F12D0062F1AD117E024214048BA
:10215000006806F075FC781CC7B214E027213C48E3
:10216000006806F06DFC781CC7B20CE025213848E9
:10217000006806F065FC781CC7B204E0002702E0A6
:10218000781CC7B200BF00BF73E702213F4807F0C9
:102190000CFD4FF400613D4807F007FD00230222CB
:1021A0001946184606F035FF39A001F018FD4FF426
:1021B0000061364807F0F7FC002302221946184652
:1021C00006F027FF36A001F00AFD02212F4807F094
:1021D000EAFC002302221946184606F01AFF0221E3
:1021E0002A4807F0E2FC002301221946184606F0AF
:1021F00010FFFFF7A8FE4FF496412C4801F02FFC8A
:102200002BA001F06DFD01210F4880F8EC140B208C
:102210000E4908602DE70E48006806F03AFB27A03B
:1022200001F0DDFC2AA001F05BFD03200346112232
:10223000114600904FF49670FFF702FE19E7000078
:102240000C00002008000020F02D00205800002085
:1022500010000020256300004154B3ACCAB1B3ACF8
:10226000B9FD2564B4CE2C61745F6E6F773D256433
:1022700000000000CFB5CDB3D3CACFE4B4EDCEF3A8
:102280003A25640056000020540000200008014058
:1022900047534DC4A3BFE9D6D8D0C2C9CFB5E700D4
:1022A00047534DC4A3BFE9C6F4B6AF000048004091
:1022B0002020202020200D0A0000000047534DC49C
:1022C000A3BFE9C9E8D6C3B2A8CCD8C2CA000000EF
:1022D00041542B4950523D31393230300D0A000003
:1022E000F2A001F07CFCF5A001F0FAFC01200C2327
:1022F0001A46194600904FF49670FFF7A1FDB8E614
:10230000F0A001F06CFCF4A001F0EAFC01200D2328
:102310001A46194600904FF49670FFF791FDA8E613
:10232000EFA001F05CFCF3A001F0DAFC01200E2329
:102330001A46194600904FF49670FFF781FD98E613
:10234000EEA001F04CFCF2A001F0CAFC01200F232A
:102350001A46194600904FF49670FFF771FD88E613
:10236000EEA001F03CFCF1A001F0BAFC012010232A
:102370001A46194600904FF49670FFF761FD78E613
:10238000EEA001F02CFCF2A001F0AAFC01200A232F
:102390001A46194600904FF49670FFF751FD68E613
:1023A000EEA001F01CFCF1A001F09AFC0320034612
:1023B0003322114600904FF49670FFF741FD4FF025
:1023C000010A56E6BAF1000F04D0EAA001F007FCBA
:1023D0004FF0000AEDA001F083FC0021F24880F8E4
:1023E000EA143C2003230022322100904FF47A703B
:1023F000FFF726FD8146B9F1020F23D10023012208
:102400001946184606F005FEE74800783A2816DD1A
:10241000E54890F8040510B13220E4490860E4A0D2
:1024200001F0DDFB0021E04880F8EA140321E348D5
:10243000006806F03EFB0020DC49086002E0332023
:10244000DA49086015E6DEA001F0C9FBE3A001F05F
:1024500047FC032003461E22114600904FF496705D
:10246000FFF7EEFC05E6E0A001F03AFC01201F2397
:102470001A46194600904FF49670FFF7E1FCCA49DE
:102480005331DCA001F0ABFBF3E5DFA001F028FC49
:10249000012020231A46194600904FF49670FFF74A
:1024A000CFFCC1496331DBA001F099FBE1E5DEA07F
:1024B00001F016FC012021231A46194600904FF422
:1024C0009670FFF7BDFCB8492931DAA001F087FB0F
:1024D000CFE5DDA001F004FC012022231A461946B5
:1024E00000904FF49670FFF7ABFCAF493D31D9A097
:1024F00001F075FBBDE5DCA001F0F2FB0120342307
:102500001A46194600904FF49670FFF799FCA649B9
:102510001331D8A001F063FBABE5DBA001F05FFB5A
:10252000DEA001F0DDFB03200346122211460090DD
:102530004FF49670FFF784FC9BE5DCA001F04FFBA5
:10254000E0A001F0CDFB03200346382211460090A5
:102550004FF49670FFF774FC8BE5DDA001F03FFBB4
:10256000E0A001F0BDFB0320034646221146009087
:102570004FF49670FFF764FC7BE5DEA001F02FFBC3
:10258000E1A001F0ADFB0320034647221146009075
:102590004FF49670FFF754FC6BE5DFA001F01FFBD2
:1025A000E2A001F09DFB0320034648221146009063
:1025B0004FF47A70FFF744FC5BE5E0A001F00FFBFD
:1025C000E3A001F08DFB0320034613221146009087
:1025D0004FF49670FFF734FC2EE2E1A001F0FFFA11
:1025E000E5A001F07DFB0320034616221146009072
:1025F0004FF49670FFF724FC1EE2E2A001F0EFFA20
:10260000E5A001F06DFB0320034615221146009062
:102610004FF49670FFF714FC0EE2E3A001F0DFFA2E
:10262000E6A001F05DFB0320034614221146009052
:102630004FF49670FFF704FC4FF0010AFCE1E6A0AE
:1026400001F04EFB032000231A46194600904FF478
:10265000FA70FFF7F5FBE3A001F042FB032003460D
:102660000022114600904FF49670FFF7E9FB814677
:10267000B9F1010F00D0DFE14B4890F8E80498B9B8
:102680000021494880F8EA1490F8E904401CC1B2DE
:10269000454880F8E914782907DD002180F8E9141D
:1026A000032042490860A3E1B8E1A5E147534DC4C6
:1026B000A3BFE9B8B4CEBBC9E8D6C300415426468F
:1026C0000D0A000047534DC4A3BFE9B9D8B1D544A2
:1026D0004344C4A3CABD000041542643310D0A003F
:1026E00047534DC4A3BFE9BAF6C2D4445452D7B439
:1026F000CCAC000041542644300D0A0047534DC471
:10270000A3BFE9B4AEBFDAD6A1B8F1CABD000000DC
:1027100041542B4943463D330D0A000047534DC4F5
:10272000A3BFE9B4AEBFDAC1F7BFD80041542B490B
:1027300046433D302C300D0A0000000047534DC485
:10274000A3BFE9B1BEB5D8CBD9B6C8B1A8B8E60029
:1027500041542B494C52523D300D0A0047534DC451
:10276000A3BFE9BFAAC6F4BBD8CFD40041544531BA
:102770000D0A000047534DB5C8B4FD53494DBFA8DD
:10278000B3F5CABCBBAF2E2E2E00000041542B4324
:10279000504D533D224D45222C224D45222C224D99
:1027A00054220D0A00000000F02D002058000020E7
:1027B00053494DBFA8B9CAD5CF0000001000002072
:1027C00053494DBFA8D5FDB3A32CC9E8D6C3B6CC99
:1027D000D0C5C4A3CABD3A504455000041542B4350
:1027E0004D47463D300D0A0041542B43474D4D0D9A
:1027F0000A00000047534DBBF1C8A1C4A3BFE9D0F4
:10280000CDBAC53A2573000041542B43474D520DB4
:102810000A00000047534DBBF1C8A1C8EDBCFEB093
:10282000E6B1BE3A2573000041542B4347534E0D89
:102830000A00000047534DBBF1C8A1C4A3BFE9493A
:102840004D45493A2573000041542B43494D490DEC
:102850000A00000047534DBBF1C8A1534DBFA84922
:102860004D53493A2573000041542B514343494489
:102870000D0A000047534DBBF1C8A1534DBFA843FB
:102880004349443A2573000047534DC9BEB3FDCBBD
:10289000F9D3D0B6CCCFFBCFA200000041542B43DC
:1028A0004D47443D312C340D0A00000047534DC9BB
:1028B000E8D6C3B5E7D4B4C4A3CABD3AC8ABB9A679
:1028C000C4DC000041542B4346554E3D310D0A00F7
:1028D00047534DC9E8D6C3B6CCCFFBCFA2B1A8B8F9
:1028E000E600000041542B434E4D493D322C320D41
:1028F0000A00000047534DC9E8D6C3C6F4D3C3B697
:10290000E0C2B7C1ACBDD30041542B51494D55581D
:102910003D310D0A0000000047534DC9E8D6C3B74A
:10292000A2CBCDCFD4CABE3E0000000041542B51F3
:102930004950524F4D50543D330D0A0047534DC935
:10294000E8D6C3B9D8B1D5B7A2CBCDBBD8CFD400C8
:1029500041542B51495344453D300D0A00000000BD
:1029600047534DC9E8D6C3D7A2B2E1D7B4CCACD651
:10297000F7B6AFC9CFB1A80041542B435245473DEC
:10298000310D0A0047534DC9E8D6C3CDACB2BDCD19
:10299000F8C2E7CAB1BCE40041542B514E49545A25
:1029A0003D310D0A0000000047534DC9E8D6C35021
:1029B0004450C9CFCFC2CEC40000000041542B43C5
:1029C0004744434F4E543D312C224950222C224340
:1029D0004D4E4554220D0A0041542B4353510D0ACC
:1029E0000000000041542B435245473F0D000000BA
:1029F000F6A001F0F4F80AE01420FB490860BAF1EF
:102A0000000F04D0F9A001F0EAF84FF0000A00230B
:102A100001221946184606F0FCFA0DE0F9A001F073
:102A2000DEF80021FB4880F8E91480F8F414232133
:102A3000F948006806F004F8CAE2F8A001F050F97D
:102A4000022000231A46194600904FF4FA70FFF74F
:102A5000F7F9F049C91CF4A001F0C1F8B8E204EBA1
:102A60004401EC488C3000EB4110C08F04EB440172
:102A70000090E8488C3000EB411000F11D0304EB9E
:102A80004401E4488C3000EB411090F8400008B954
:102A9000EAA000E0EAA002462146EAA001F09FF881
:102AA00004EB4401DB488C3000EB4110C08F04EB99
:102AB00044010090D7488C3000EB411000F11D0319
:102AC00004EB4401D3488C3000EB411090F84000F7
:102AD00008B9DAA000E0DAA002462146DFA001F042
:102AE000FFF8012000231A46194600904FF4FA70AF
:102AF000FFF7A6F9012104EB4402C6488C3000EB35
:102B00004210417064E22146DBA001F068F82146E2
:102B1000DDA001F0E5F8002507E0681C85B264231C
:102B200000221146104606F074FA04EB4401B9483D
:102B30008C3000EB4110407830B1322D04DAB548CA
:102B400090F8E8040028E8D10025002104EB4402B5
:102B5000B0488C3000EB421041700020A249086060
:102B600036E204EB4401AB488C3000EB4110B0F886
:102B7000440018B900209C49086029E204EB440194
:102B8000A4488C3000EB411090F8410030BB04EBBE
:102B90004401A0488C3000EB4110B0F8441004EB25
:102BA00044029C488C3000EB4210A0F8461004EB25
:102BB000440198488C3000EB4110B0F84620214683
:102BC000B5A001F08DF8012104EB440291488C304E
:102BD00000EB421080F84110002592E004EB440124
:102BE0008C488C3000EB411090F84100012832D124
:102BF000884890F8E80440B104EB440185488C30E3
:102C000000EB4110407802280FD00025002104EB92
:102C1000440280488C3000EB421080F841100020C4
:102C2000A2494870704908606BE0322D08DA681CD0
:102C300085B2642300221146104606F0EAF960E0EE
:102C40000025022104EB440272488C3000EB421054
:102C500080F8411055E004EB44016E488C3000EBE5
:102C6000411090F8410002281CD104EB440369484C
:102C70008C3000EB4310B0F8462004EB4403654869
:102C80008C3000EB4310816C894800F057FF032122
:102C900004EB44025F488C3000EB421080F8411096
:102CA00000252EE004EB44015A488C3000EB411023
:102CB00090F84100032824D1642D15DA554890F886
:102CC000E80488B104EB440152488C3000EB411019
:102CD0004078022808D1681C85B26423002211467E
:102CE000104606F096F90CE00025002104EB4402A2
:102CF00048488C3000EB421080F8411000203A49DF
:102D0000086065E14348B0F8B00318B900203649BF
:102D100008605DE13F4890F89E04C8B9654AA2F199
:102D20001901654802F08AF880466249193963A0A2
:102D300000F055FFC34608EBDB704010411E64A055
:102D400000F0CEFF0121334880F89E140025E7E013
:102D5000304890F89E04012822D12E4890F8E804CB
:102D600050B9002500212B4880F89E1400204F49BF
:102D700048701D490860D3E0322D08DA681C85B21E
:102D8000642300221146104606F043F9C8E00025EE
:102D90000021204880F89E14002013490860BFE0FD
:102DA0001C4890F89E0402280ED1424642494048F1
:102DB00000F0C4FE1A213E4800F0A2FE032115488F
:102DC00080F89E140025ABE08AE00000B5E7BBB0B8
:102DD000CDF8B5C7C2BCCAA7B0DCA3ACD6D8D0C2A8
:102DE000B5C7C2BC000000005800002047534DB5D5
:102DF000C8B4FDB5C7C2BCB5E7BBB0CDF82E2E2E0A
:102E00000000000047534DCDF8C2E7B5C7C2BCB3C0
:102E1000C9B9A600F02D00201000002041542B431A
:102E20004F50533F0D0A000047534DD4CBD3AAC98E
:102E3000CCD0C5CFA23A2573000000005443500007
:102E400055445000BDA8C1A2534F434B45545B2588
:102E5000645D2C25732C25733A25640041542B5155
:102E6000494F50454E3D25642C222573222C2225A6
:102E700073222C25640D0A00B9D8B1D5534F434BAA
:102E800045545B25645D000041542B5149434C4F30
:102E900053453D25640D0A0041542B514953454E7D
:102EA000443D25642C25640D0A00000048290020BB
:102EB00000480040D6300020AD1900203E3E3EB70D
:102EC000A2CBCDB6CCD0C5C3FCC1EE3A2573000071
:102ED00041542B434D47533D25640D0A000000002B
:102EE000B04890F89E0403281AD1642D0CDAAD483E
:102EF00090F8E80440B1681C85B2642300221146B2
:102F0000104606F086F80BE000250020A549A1F840
:102F1000B0030021A34880F89E140020A249086055
:102F200056E02146A1A000F0DBFE01200323002291
:102F3000114600904FF4FA70FEF782FF48E09FA020
:102F400000F04DFE02F0A2F800209F4948709F4813
:102F5000006805F09EFC01209349086038E0AFF25C
:102F6000885000F0BDFE0320034600221146009069
:102F70004FF4FA70FEF764FF2AE095A000F0B0FE6F
:102F8000032003460022114600904FF4FA70FEF72A
:102F900057FF1DE091A000F0A3FE0320034600228E
:102FA000114600904FF4FA70FEF74AFF10E08EA031
:102FB00000F096FE012000231A46194600904FF4B7
:102FC000FA70FEF73DFF03E000207749086000BF7C
:102FD00000BFFEF7D9BF8849884A1288885C8749B4
:102FE0000988491C89B2854A1180C82901DB002162
:102FF000118070478248008880490988884206DB32
:103000007F4800887D490988401A80B270477B4814
:1030100000887B490988401AC0F1C80080B2F5E7F2
:1030200000BF00BF002077490865A1F84E0077E097
:103030000A2300221146104605F0EBFFFFF7DAFFE6
:1030400030BB7048006D0A306E4908650846B0F81C
:103050004E0000281CDD0846006D642818D90020A9
:10306000B1F84E10674A5054104602F05BF96549BA
:1030700048650846406D10B10846416D88470021FB
:103080004848A0F8F21400205E49A1F84E000865F7
:1030900042E0FFF7A0FF044600205A4908650846B1
:1030A000B0F84E000C540846B0F84E00085C0A28F0
:1030B00025D10846B0F84E00401CA1F84E00002073
:1030C000B1F84E104F4A5054104602F02BF94D49BA
:1030D00048650846406D48B10846416D8847002163
:1030E0004848B0F84E00401E464A115400212D4871
:1030F000A0F8F21400204349A1F84E000CE041482A
:10310000B0F84E00401C80B23E49A1F84E004C2859
:1031100002DB0020A1F84E00FFF76CFF0028B8DCAE
:1031200086E73549364A1288885435490988491C4A
:1031300089B2334A1180C82901DB0021118030494E
:1031400009882E4A1288914209D12C490988491CC4
:1031500089B22A4A1180C82901DB002111807047F9
:1031600070B506F005F8054604F09AFF284606F00B
:1031700003F840F22551244806F076FF78B120216B
:10318000214806F068FF204806F0EEFEC4B2FFF7C3
:1031900031FF08B9FEF7D7FE2046FFF7C2FF04F063
:1031A0009AFF70BDF02D00205800002041542B43A1
:1031B0004D47523D25640D0A00000000D6D8C6F4E4
:1031C00047534DC4A3BFE900482900201000002048
:1031D00041542B4342430D0A0000000041542B434D
:1031E000434C4B3F0D0A000041542B5143454C4C7E
:1031F0004C4F433D310D0A00E418002056000020DA
:1032000054000020401B00200048004070B50446D8
:103210003C254FF47A706843B0FBF4F18F480068A6
:10322000401C8E4A1060814207D88DA000F009FD35
:1032300004F0E3FA00208949086070BD70B50546C6
:1032400000248B484078C0F3C00010B18948008F3B
:1032500001E08848C08E044614B1B4F5617F00D9FE
:103260001E244FF47A706043B0FBF5F18248006889
:10327000401C814A1060814208D821467FA000F09E
:10328000E0FC04F0D2FA00207B49086070BD00BF6A
:1032900000BF00BF002400BF7DA000F0A0FC012003
:1032A0007F49487000207F494870D5E064230022A0
:1032B0001146104605F0ADFE7A4840780B286FD0D5
:1032C00007DC78B101281BD002284AD00A2868D12F
:1032D00068E00C286FD014286ED015286DD01E28F9
:1032E000F5D1B0E000206F4908706D4890F8E8040F
:1032F00028B16B484078012801D148700024AAE029
:10330000674890F88D0010B1002002F03FFD66493B
:103310006348C0F8D4100021A0F8D01040F2DC516E
:10332000A0F8CE106149C0F8DC100021A0F8DA1036
:103330004FF4FA61A0F8D8105D49C0F8E0104D498B
:1033400048685C4900F0F1FE05464A4802890023BE
:103350002946184602F0C7FC022052494870002452
:1033600079E04F4890F88D0002280FD0601C044689
:10337000B0F5967F13D950A000F031FC01204949E7
:1033800048700024002002F001FD08E064230022C0
:103390001146104605F03DFE0A20424948705AE0A9
:1033A00010E057E03348807A40B114203D4948701E
:1033B0000020887005E00FE020E02BE00B20394969
:1033C000487048E040A000F03CFC04F0B1F90C204B
:1033D0003449487000243EE032480078012803D187
:1033E00014203049487008E0601C0446B0F5967F10
:1033F00003D300240B202B4948702CE01D490A31CF
:1034000035A000F01EFC04F0D7F9152025494870BE
:10341000002420E02348007802280AD1002400215B
:103420001F48A0F8D010A0F8D2101E201D494870E7
:1034300008E0601C0446B0F5967F03D300240A2000
:103440001849487007E06420FFF7F8FE6420FFF792
:10345000DDFE00E000BF00BF28E7000060000020A4
:103460002D2D3E3EB7A2CBCDD0C4CCF8000000003D
:1034700088000020741500205C0000202D2D3E3EA9
:10348000B7A2CBCDCEBBD6C3D0C5CFA22C2564006E
:103490002D2D2D3ECFB5CDB3C6F4B6AF0000000044
:1034A000F02D00204829002069230020981B0020CF
:1034B000DF710008CC150020B7FECEF1C6F7C1AC15
:1034C000BDD3B3ACCAB100002D2D3E3ED7A2B2E1B0
:1034D000C9E8B1B8000000002D2D3E3EC9E8B1B8E2
:1034E000BCF8C8A83A25730010B55C48006840F0E5
:1034F00004005A4908605A48C06940F08050584951
:10350000C8615848406840F4807056494860084691
:10351000006840F0040008600846006840F00200BF
:103520000860FCF787FE10BD4F484C49091F086032
:10353000704710B505F0F0FE4FF4803005F00CFF39
:1035400005F049FF0446012C24D1102006F0E4FDCB
:10355000002005F086FF002005F095FFA00205F091
:1035600089FF4FF4E011200405F05EFF022006F011
:10357000BFFD012005F064FF00BF392005F00FFFFB
:103580000028FAD0022005F05EFF00BF05F064FFBE
:103590000828FBD10121402006F01BF80121080773
:1035A00006F031F80121C80606F02DF80121084681
:1035B00006F01CF80121042006F018F8012108206B
:1035C00006F014F80121102006F010F801218803FC
:1035D00006F00CF80121480406F015F801218804D2
:1035E00006F011F810BD08B500214FF0006005F09D
:1035F00049FE4FF4E06005F00DFE25208DF8000037
:103600000E208DF8020001208DF80300684605F0B9
:1036100006FE26208DF800000D208DF80200012006
:103620008DF80300684605F0FAFD27208DF80000AC
:103630000C208DF8020001208DF80300684605F08B
:10364000EEFD03208DF8000010208DF8020001200F
:103650008DF80300684605F0E2FD08BD10ED00E0BE
:1036600000100240007000400400FA0510B500246C
:1036700006F0C6F8012005F029FF00BF601C80B2EB
:10368000044642F210718842F8DB4FF4807005F076
:1036900036FF012005F039FF06F06CF806F072F8ED
:1036A00006F068F80121084606F008F806F062F80E
:1036B00047F6FF7006F038F806F05CF810BD0146DA
:1036C0004FF4C87291FBF2F302FB131262B1642251
:1036D00091FBF2F302FB131242B1CA1701EB927293
:1036E0009210B1EB820201D1012070470020FCE76B
:1036F00070B5054600242E880BE03046FFF7DFFF4B
:1037000010B14FF4B77001E040F26D100444701E28
:1037100086B2B6F5FA6FF0DCAE780DE03046FFF712
:10372000CEFF18B1701E6F49085C02E0701E6E4932
:10373000085C0444701E86B2002EEFDCE878044476
:103740006A4844432879C0EB4011C1EB002004EBE8
:1037500000146879C0EB001004EB8004A8790444DD
:10376000204670BD70B504462046FFF7C1FF0546F0
:1037700006F000F8284605F0CAFF05F0FBFF01201F
:1037800070BD10B5012006F0A8F8042006F06DF811
:10379000A0F52541A5390FD0FFF768FF54485549DA
:1037A0000A68026049684160FFF7DCFF4AF2A551F0
:1037B000042006F04EF807E005F0E4FF012108467A
:1037C00005F07CFF05F0D6FF05F04EFF10BD2DE99A
:1037D000F04107460D460024A04600264348B7FBAB
:1037E000F0F445480088A0423CD043490C804FF497
:1037F000FA680DE04046FFF762FF10B14FF4B77072
:1038000001E040F26D10241A08F101001FFA80F85F
:10381000B4F5B77F04D34046FFF751FF0028E9D045
:10382000B4F5B77FE6D8A5F8008000264046FFF73C
:1038300046FF50B104E0701CC6B22A48805D241ACD
:103840002848805DA042F6D309E004E0701CC6B2AF
:103850002548805D241A2448805DA042F6D3AE70CE
:10386000601CE8702148B7FBF0F100FB11774FF4C2
:103870006160B7FBF0F028713C20B7FBF0F03C2111
:10388000B0FBF1F201FB120068713C20B7FBF0F1D4
:1038900000FB1170A871BDE8F08170B5044605F019
:1038A0002DFF054621462846FFF791FF012070BDF8
:1038B00010B505F05DFC044610480078401C0F4927
:1038C0000870204605F058FC012005F07FFF012814
:1038D00005D10748FFF7E1FF012005F087FF04F05D
:1038E000FAFB10BD5CC3000868C3000880510100EA
:1038F000240000201C000020640000209400002010
:1039000008B503208DF8020010208DF80300C001D7
:10391000ADF8000069463B4806F09AF810208DF893
:1039200003000220ADF800006946364806F090F822
:1039300048208DF803001020ADF80000694631489A
:1039400006F086F804208DF803000120ADF8000091
:1039500069462C4806F07CF848208DF803004FF4A7
:103960008050ADF800006946274806F071F84FF422
:103970008060ADF8000048208DF8030069462148BA
:1039800006F066F84FF40070ADF8000002208DF8E4
:10399000020018208DF8030069461A4806F058F80E
:1039A0000820ADF8000048208DF80300694615484E
:1039B00006F04EF80420ADF8000002208DF8020059
:1039C00018208DF8030069460E4806F041F84FF4C0
:1039D0000060ADF8000048208DF8030069460A48F1
:1039E00006F036F84FF48060ADF8000002208DF844
:1039F000020018208DF803006946034806F028F8F5
:103A000008BD000000080140000C014045F255527D
:103A1000084B1A601A46506091604AF6AA221A6052
:103A20004CF6CC421A6070474AF6AA200149086059
:103A30007047000000300040014600BF704770B57D
:103A400004460D46E1B2C04806F08AFA00BF4021A4
:103A5000BD4806F0F3FA0028F9D0204670BD7FB5C6
:103A600004460D46684606F0EBF9204606F03CF9A0
:103A700000950020ADF80400ADF80600ADF8080090
:103A8000ADF80C000C20ADF80A006946204606F09F
:103A90006EF9002240F22551204606F000FA00227D
:103AA00040F22661204606F0FAF9A748844209D17F
:103AB000012240F2255106F0F2F94021204606F09D
:103AC000CAFA18E0A148844209D1012240F22551E6
:103AD00006F0E5F94021204606F0BDFA0BE09C48CF
:103AE000844208D1012240F2255106F0D8F9402144
:103AF000204606F0B0FA0121204606F0C4F97FBD49
:103B000070B504460D462946204606F029FA0026DF
:103B100003E04021204606F091FA4021204606F0BD
:103B20008DFA30B9701C80B2064642F2107188429C
:103B3000EFDB4021204606F08EFA70BD2DE9F04102
:103B400007460D46164600241DE0295D384606F05E
:103B500007FA4FF0000803E04021384606F06EFAFD
:103B60004021384606F06AFA38B908F1010080B2FF
:103B7000804642F210718842EEDB4021384606F062
:103B80006AFA601C84B2B442DFDBBDE8F0810FB496
:103B900038B50024002000906A464FF47A716D48D1
:103BA000006805F09AF805A86B49086000BF084650
:103BB00002686A48049906F08BFE204484B2002013
:103BC00065490860224665495F48FFF7B7FF6148CD
:103BD000006805F0EEF8204638BC5DF814FB0FB421
:103BE0001CB500245E48007818B900201CBC5DF8A4
:103BF00014FB01AA4FF47A715648006804F0AAFC3D
:103C000005A8009000245548009A049906F060FE2B
:103C1000204484B2002000905048204451A10A88DA
:103C2000028089788170A01C84B222464B494648A4
:103C3000FFF784FF01214748006804F002FD204699
:103C4000D4E70FB430B587B000244548007820B9D8
:103C5000002007B030BC5DF814FB06AA4FF47A715F
:103C60003C48006804F076FC3F480088642190FBE3
:103C7000F1F201FB12053C4880793B4949793A4A07
:103C80001279394BDB78CDE90032CDE902103648A4
:103C900083782A4635A1314806F02CFE84B20BA861
:103CA00005902E490819059A0A9906F011FE20443C
:103CB00084B200200590294820442AA10A88028065
:103CC00089788170A01C84B2224624491E48FFF7DF
:103CD00035FF01211F48006804F0B3FC2046B8E717
:103CE0000FB438B50020009000242A48007838B975
:103CF000012004F0CBFF2849086001202549087005
:103D00006A464FF47A712448006804F0E6FF05A87B
:103D1000224908600024084602682148049906F0F8
:103D2000D7FD204484B200201C49086022461C496B
:103D30000748FFF703FF1848006805F03AF82046E7
:103D400038BC5DF814FB000000380140004400401E
:103D500000480040180000206C000020642900206A
:103D6000680000200D0A00002400002024242530D3
:103D70002E326425302E326425302E3264202530D8
:103D80002E32643A25302E32643A25302E32642C9D
:103D90002000000074000020780000207000002047
:103DA000592B00202DE9F05F06460C461546994632
:103DB000B5F5806F01DD4FF480652846E91705EB06
:103DC0009171C1F3870AE91705EB91718910A5EB91
:103DD0008101CFB206F0ABF9B9F1010F04D1C6F3FE
:103DE0000901701A06F0E8F9FFF71EFE4FF000080F
:103DF00015E02078617800EB0120A17800EB01400C
:103E0000E17800EB016B5946304606F0A5FA361D05
:103E1000241DFFF709FE08F1010000F0FF08D0455E
:103E2000E7DBB7B1012F02D194F800B00DE0022F0B
:103E300004D12078617800EB012B06E020786178CE
:103E400000EB0120A17800EB014B5946304606F00B
:103E500083FA06F078F9BDE8F09F2DE9F05F05469A
:103E60000E4614462046E11704EB9171C1F3870A10
:103E7000E11704EB91718910A4EB810101F0FF0BB4
:103E800015F0030F02D005F003002D1A06F04FF9CC
:103E9000002713E0D5F800804FF0000908E086F80D
:103EA00000804FEA1828761C09F1010000F0FF0994
:103EB000B9F1040FF3DB2D1D781CC7B25745E9DBC0
:103EC000D5F80080002706E086F800804FEA182821
:103ED000761C781CC7B25F45F6DB06F034F9BDE806
:103EE000F09F10B50123582205490648FFF75AFFF5
:103EF00010BD10B5582202490248FFF7AEFF10BDB1
:103F00007415002000FC010808B50146C8788DF83A
:103F1000000088788DF8010048788DF80200087854
:103F20008DF80300009808BD08B5014648788DF863
:103F3000000008788DF80100BDF8000008BD08B544
:103F4000024600929DF8030008709DF80200487038
:103F50009DF8010088709DF80000C870084608BDF3
:103F600008B5024600929DF8010008709DF8000017
:103F70004870084608BD0146642091FBF0F200FB42
:103F80001210C1B20A2091FBF0F200FB12100A22BB
:103F900091FBF2F200EB0210C0B2704717B5134666
:103FA000BDF80000642190FBF1F201FB1200C4B2E5
:103FB0002046FFF7E0FF18709DF80200FFF7DBFFD7
:103FC00058709DF80300FFF7D6FF98709DF8040025
:103FD000FFF7D1FFD8709DF80500FFF7CCFF1871EF
:103FE0009DF80600FFF7C7FF58711EBD70B5064665
:103FF0000D46002406E0305D295D884201D0002096
:1040000070BD641C284606F071FEA042F3D8012062
:10401000F6E72DE9F041064600250EE006F050FCDB
:104020000068715D405C202805D0705D2E2802D0AC
:104030000020BDE8F081681CC5B2304606F056FE8F
:10404000A842EBD8304606F051FE072804D330468C
:1040500006F04CFE0F2801D90020EAE7344600277D
:104060002EE006F02DFC00682178405C202801D06D
:104070000020DEE74FF00008002511E006F020FCEC
:1040800000682178405C202800D00BE008EB880015
:104090004FEA4008207830388044641C681CC5B260
:1040A000032DEBDB00BF20782E2801D0207810B93B
:1040B000B8F1FF0F01D90020BBE7641C781CC7B220
:1040C000042FCEDB0120B4E72DE9F04780464046BF
:1040D000FFF79FFF38B30025444600271EE02D025E
:1040E0000026B14612E006F0EBFB00682178405C48
:1040F000202800D00DE006EB8600460020783038FE
:104100000644641C09F1010000F0FF09B9F1030F36
:10411000E9DB00BF3544641C781CC7B2042FDEDB2A
:104120002846BDE8F0870020FBE72DE9FC47044660
:104130000D46260EC4F30747C4F3072804F0FF0911
:104140003B463246F7A12846CDE9008906F0D2FB6E
:104150002846BDE8FC8770B505460024284606F0D1
:10416000C5FD0B2801D0002070BD00240AE006F038
:10417000A7FB0068295D405C202801D00020F3E700
:10418000601CC4B20B2CF2DB0120EDE72DE9F041FD
:1041900006460D464FF000080027002432E0285D57
:1041A0002C2805D0285D3A2824D1B8F1000F21D160
:1041B0000EB1701EC6B208F1010000F0FF08CEB9C2
:1041C000601C84B2285D202801D1601C84B207E005
:1041D00007EB87004700285D30380744601C84B235
:1041E00006F06EFB0068295D405C2028F0D0384660
:1041F000BDE8F081B4F5C86F02DD4FF0FF30F7E79E
:10420000601C84B2285D10B1285D0D28C7D14FF025
:10421000FF30EDE72DE9F04780460D4616464FF09A
:104220000009002700245BE0285D2C2805D0285DCC
:104230003A284DD1B9F1000F4AD1B8F1000F03D09F
:10424000A8F1010000F0FF0809F1010000F0FF09EA
:10425000B8F1000F3CD1601C84B2285D202801D148
:10426000601C84B207E007EB87004700285D303808
:104270000744601C84B206F023FB0068295D405CA3
:104280002028F0D00EB3285D2E2816D1601C84B2F1
:104290000BE007EB87004700285D30380744601CBF
:1042A00084B2701EC6B206B906E006F009FB0068CB
:1042B000295D405C2028ECD000BF04E007EB8700BC
:1042C0004700701EC6B2002EF8D13846BDE8F08710
:1042D000B4F5C86F02DD4FF0FF30F7E7601C84B221
:1042E000285D10B1285D0D289ED14FF0FF30EDE71D
:1042F00010B503460A46002400211CE0505C2C281F
:1043000003D0505C3A280FD174B90BB1581EC3B218
:10431000601CC4B243B9481C81B2505C202801D152
:10432000481C81B2084610BDB1F5C86F01DD002000
:10433000F9E7481C81B2505C10B1505C0D28DDD10A
:104340000020F0E70146002008E00A783A2A02D06F
:104350000A782C2A01D1421CD0B2491C0A782AB111
:104360000A780D2A02D00A780A2AEED170472DE980
:10437000F04106460C461746002500BF03E000202A
:104380006055681CC5B207EBD771B5EB610FF6DB62
:10439000002529E030782C2801D0307810B9284643
:1043A000BDE8F08106F08CFA00683178405C202886
:1043B00019D1207800F0F000207020783178303961
:1043C00008432070761C681CC5B2284605EBD071E6
:1043D0004910B5EB410101D1641C05E020780007CC
:1043E000000E207000E0761CBD42D3DB2846D7E7E4
:1043F00010B502460C460021134601EB231101EBD8
:104400008100410003F00F000144C8B210BD024614
:104410000A2092FBF0F300FB13200A2392FBF3F334
:1044200000EB0310C0B2704770B505460C4600267D
:10443000042C00DD042409E064204643287801218F
:10444000FFF7D6FF06446D1C601EC4B2002CF3D1EA
:10445000304670BD30B503460C46104602EBD075B1
:10446000C5F3470118E00A20B3FBF0F500FB153552
:10447000481E25540A20B3FBF0F3B3FBF0F500FB14
:104480001535481E205C40EA0515481E25540A20B3
:10449000B3FBF0F3481EC1B20029E4DC104630BD86
:1044A00070B505460B461446A01E84B2002104E0F8
:1044B000685C00B906E0481C81B204EBD476B1EB2D
:1044C000660FF5DB00BF09B9002070BD481E81B240
:1044D000022000EB410084B22CE06A5C0A20B0EBC1
:1044E000221F05DD302000EB221003F8110005E04B
:1044F000412000EB22100A3803F8110012F00F0FD0
:1045000007D002F00F003030012606EB4106985527
:1045100006E002F00F003730012606EB4106985501
:1045200031B908E025642E25642E25642E2564000B
:10453000481E81B2D1E700BF002018552046C4E7CD
:1045400070B505460B461446601E81B226E06A5CD3
:104550000920B0EB221F05DB302000EB221003F80E
:10456000110005E0412000EB22100A3803F8110089
:1045700012F00F0F07D002F00F003030012606EBCB
:104580004106985506E002F00F003730012606EB91
:104590004106985501B902E0481E81B2D7E700BF35
:1045A000002003F81400204670BD0146087808B9C1
:1045B000002070470878302806DB0878392803DCAB
:1045C00008783038C2B202E008783738C2B2491CE5
:1045D0001007020E0878302807DB0878392804DC39
:1045E000087830381044C2B203E0087837381044F5
:1045F000C2B21046DDE710B50346002008E01C7883
:104600000C70441CA0B2491C5B1C904200DB02E011
:104610001C78002CF3D100BF904201DA00240C700A
:1046200010BD10B50A46002A5ADD01791144017106
:104630000179182954DB017918390171C178491CB5
:10464000C17081780D293FD2DFE801F03E071608DE
:104650003209330A0B340C350D0000BF00BF00BF18
:1046600000BF00BF00BFC1781F2904DD0121C17058
:104670008178491C81702AE00388DC1703EB94746D
:10468000A410B3EB840402D1C4781D2C0ADC018889
:10469000CC1701EB9474A410B1EB840407D0C47858
:1046A0001C2C04DD0121C1708178491C81700EE051
:1046B00000BF00BF00BFC1781E2904DD0121C17009
:1046C0008178491C817002E00121817000BF00BF28
:1046D00081780C2904DD0188491C01800121817049
:1046E00010BD00000FB438B50024F849A1F1EC006A
:1046F00006F0D8FAF64BF7A2C821F448D33806F0F2
:104700000FF984B205A80090F049D3390819009A2E
:10471000049906F0DDF8204484B200200090EF48B0
:10472000A0F8B043204638BC5DF814FB2DE9F047F3
:104730000546884616464FF00009CA460024002761
:10474000C6EBC601C81DC11700EB5171C1F3CF0AFA
:1047500000BF5CE0072094FBF0F100FB1140C0F1CA
:10476000080047FA00F0072194FBF1F201FB124226
:1047700094FBF1F102EBC1016854022101FB0480BA
:10478000FFF713FF0746072094FBF0F100FB1141F0
:1047900094FBF0F001EBC000295C072094FBF0F2E1
:1047A00000FB124007FA00F00844C1B2072094FB56
:1047B000F0F200FB124294FBF0F002EBC00029542F
:1047C000072094FBF0F100FB114194FBF0F001EBAA
:1047D000C000285C00F07F01072094FBF0F200FB92
:1047E000124294FBF0F002EBC0002954072094FB26
:1047F000F0F100FB1140062807D1072094FBF0F0F0
:10480000072101EBC00079102954601C84B2544583
:10481000A0DB0020A8554846BDE8F0872DE9F04F01
:1048200089B00C464FF00008C146A84D193500204C
:1048300008902046FFF7B9FE8146022000EB4900B0
:104840000444A41C2046FFF7B0FE8146A41CA41C0F
:10485000A41C00260FE061789C488155701C86B22C
:104860002078462801D1A41C09E021789748815579
:10487000701C86B2A41CA9F10200B042EBDC00BFA0
:10488000002192488155FFF766FC58B994A0FFF7C4
:10489000A6F98E480021016041608160002009B0C6
:1048A000BDE8F08FA41C2046FFF77FFE8246CAF3C6
:1048B000810AA41C21786078303800EB800001EB7D
:1048C00040003038854981F8B203A178E07830386B
:1048D00000EB800001EB40003038C1B27F4880F827
:1048E000B31321796079303800EB800001EB400090
:1048F0003038C1B2794880F8B413A179E079303802
:1049000000EB800001EB40003038C1B2734880F802
:10491000B513217A607A303800EB800001EB40005B
:104920003038C1B26D4880F8B613A17AE07A3038D9
:1049300000EB800001EB40003038C1B2674880F8DE
:10494000B7130E342046FFF730FE0746A41C634819
:1049500090F8B703614991F8B613604A92F8B5230D
:10496000CDE90307CDE901215C4890F8B40300903C
:104970005A4890F8B33390F8B22354495DA0FFF73A
:104980002EF9BAF1000F06D0BAF1010F0DD0BAF12D
:10499000020F14D10EE03A4621462846FFF7C6FE24
:1049A000294663A0FFF71BF90EE066A0FFF717F991
:1049B000002709E066A0FFF712F9002704E068A0CD
:1049C000FFF70DF9002700BF00BF0FB9002066E711
:1049D00066A12846FFF70AFB28B9781E285C232821
:1049E00001D000205BE763A1281DFFF7FFFA002834
:1049F0005AD02846FFF7A6FC032804D05EA0FFF794
:104A000071FE00204BE71421624806F092FA294615
:104A10000320FFF76DFC834629460220FFF768FC60
:104A2000ABEB0000142817DA29460320FFF760FCDF
:104A3000834629460220FFF75BFCABEB0000401EDB
:104A4000294607900220FFF753FC284406900146B0
:104A50005048079A06F0B4F929460320FFF796FB61
:104A600080464C48FFF7D5FA28B1B8F1000F02D0C4
:104A7000B8F5803F04D340A0FFF734FE00200EE7D6
:104A80004448FFF721FB124928394860A1F8088003
:104A90000020887240494870FFF723FA42463D499A
:104AA0003EA0FFF71FFE75E145A1281DFFF79EFA06
:104AB000002809D02846FFF745FC022805D041A070
:104AC000FFF710FE0020EAE6CBE087E0A9310020E6
:104AD0009C15002049443A25730D0A00F02D002052
:104AE000BDD3CAD5B6CCD0C5CAD6BBFABAC5D3D009
:104AF000CEF32100CAD6BBFABAC53A25732CCAB187
:104B0000BCE43A25302E32642D25302E32642D251A
:104B1000302E32642025302E32643A25302E326415
:104B20003A25302E32642CB3A4B6C83A25643B0033
:104B3000C0E0D0CD3A374249543BC4DAC8DD3A250B
:104B400073000000C0E0D0CD3A384249543B000029
:104B5000C0E0D0CD3A554E49434F44453B0000009C
:104B6000C0E0D0CD3ACEB4D6AA3B00002A7A6C2C55
:104B70000000000069702C00C9E8D6C3B7FECEF172
:104B8000C6F749502E0D0AB2CECAFDB4EDCEF321C0
:104B9000000000004E2D002048290020C9E8D6C39F
:104BA000B7FECEF1C6F749502EB3C9B9A6210D0AFA
:104BB00049503A25732C0D0A706F72743A256400BF
:104BC00069642C00D0DEB8C44944BAC52E0D0AB2BF
:104BD000CECAFDB4EDCEF32100000000A7F108001D
:104BE0000B2804D0C1A0FFF77DFD002057E600266A
:104BF00010E005F065FE0168A7F10C003044285C68
:104C0000085C202804D0C1A0FFF76CFD002046E618
:104C1000701C86B20B2EECDB1421C44806F089F917
:104C20003020C2490870481C55F8071F01606968A8
:104C3000416029890181A97AA5F107058172BB49E3
:104C4000BBA0FFF74FFD0D22B849C14806F0B8F8E8
:104C50000020BF4928398872BE494870FFF741F9E2
:104C600098E0BDA1281DFFF7C1F9002862D02846B1
:104C7000FFF768FB032804D0B9A0FFF733FD00203D
:104C80000DE6687A312802D0687A322802D1A87AF3
:104C90002C2804D0BAA0FFF725FD0020FFE5687A94
:104CA0003138C0B20890A7F10C000B2804D0BCA08A
:104CB000FFF718FD0020F2E5002610E005F000FEE9
:104CC0000168A7F10C003044285C085C202804D05F
:104CD000BDA0FFF707FD0020E1E5701C86B20B2E9A
:104CE000ECDB1421914806F024F9904855F80B1F8D
:104CF00001606968416029890181A97AA5F10B05E4
:104D000081720246089901F10101B8A0FFF7EAFC9F
:104D1000089800EB800101EBC0018D48163001447A
:104D2000824802680A6042684A6080688860FFF7CB
:104D3000D8F82FE0B5A1281DFFF758F938B38449FA
:104D4000283948687949FFF7F0F98346B148008867
:104D5000642190FBF1F201FB120007907C48283897
:104D60000089AC498979AB4A5279CDE9031B02929B
:104D70000590A8480079A749C978CDE90010A54851
:104D80008378A549A5A0079AFFF7ACFC02E0AFA085
:104D9000FFF7A8FC002082E50FB438B505460024D3
:104DA000284605F0A3FF18B9002038BC5DF814FBB5
:104DB0002946AB4805F076FF06A80090A8491931AE
:104DC0000819009A059905F083FD84B2002000902F
:104DD000A448A0F8B0432046E7E72DE9F041064695
:104DE0000F46384605F082FFC5B2002411E00120CD
:104DF00000EB4400385C002101EB440170540020BA
:104E000000EB4400385C012101EB44017054601C4C
:104E1000C4B205EBD571B4EB610FE8DB284605EBB6
:104E2000D0714910A5EB4101012904D14621681E2A
:104E30003154385C70553046BDE8F0812DE9F047BB
:104E40000546894617460024C821284606F071F811
:104E500000BF281984A109880180A41C281983A1F6
:104E600009880180A41C281981A10A680260496888
:104E70004160083428194946FFF7AFFF284605F07E
:104E800035FF84B2281978A109880180A01C84B25A
:104E900028197AA109880180A01C84B2281972A15E
:104EA00009880180A01C84B28C223946744802F023
:104EB0007FFF00F0FF082819434672A2032105F086
:104EC0002FFDA01C84B200260AE06D498B5D2819D5
:104ED0006CA2032105F024FDA01C84B2701C86B2D4
:104EE0004645F2DB2046BDE8F0870000D0DEB8C4BE
:104EF0004944BAC52E0D0AB4EDCEF33AB3A4B6C8F0
:104F0000B1D8D0EBCEAA3131CEBB2100D0DEB8C4AF
:104F10004944BAC52E0D0AB4EDCEF33A4944D6BB86
:104F2000C4DCB0FCBAACCAFDD7D621004E2D00209F
:104F3000D0DEB8C44944BAC52E0D0AB3C9B9A621FA
:104F40000D0AD0DEB8C4BAF349443A257300000014
:104F50009C15002048290020616E756D000000003E
:104F6000C9E8D6C3B1A8BEAFCAD6BBFABAC52E0D22
:104F70000AB2CECAFDB4EDCEF32D312100000000FF
:104F8000C9E8D6C3B1A8BEAFCAD6BBFABAC52E0D02
:104F90000AB2CECAFDB4EDCEF32D322100000000DE
:104FA000C9E8D6C3B1A8BEAFCAD6BBFABAC52E0DE2
:104FB0000AB4EDCEF33ACAD6BBFABAC5B1D8D0EB33
:104FC0003131CEBB21000000C9E8D6C3B1A8BEAFC5
:104FD000CAD6BBFABAC52E0D0AB4EDCEF33AD6BB8B
:104FE000C4DCB0FCBAACCAFDD7D62100C9E8D6C330
:104FF000B1A8BEAFCAD6BBFABAC525642E0D0AB396
:10500000C9B9A6210D0A257300000000696E666FFC
:10501000000000001C00002000000020B0E6B1BE2F
:105020003A257340253032642530326425303264AD
:105030002530326425303264253032640D0AB7FEE3
:10504000CEF1C6F73A25733A25640000B4EDCEF3ED
:105050003AC3FCC1EEB2BBCAB6B1F02100000000F9
:10506000BD300020F02D0020303000003131000034
:10507000303030443931363800000000303800001C
:10508000622D002025302E325800000010B500207F
:10509000F74908700021F64880F8E81480F8E91410
:1050A00080F8EA1480F8EB1480F8ED1480F8EE1420
:1050B00080F8EC14A0F89C140020ED49A1F8B0038E
:1050C0000021EB4880F89E14EA49C0F8A014EAA138
:1050D000C01C05F0E7FDE8A1E548133005F0E2FD4E
:1050E000E5A1E3483D3005F0DDFDE3A1E0482930CE
:1050F00005F0D8FDE0A1DE48533005F0D3FDDEA178
:10510000DB48633005F0CEFD002451E0002104EBC4
:105110004402D7488C3000EB4210017004EB44028B
:10512000D3488C3000EB4210417004EB4402D0486D
:105130008C3000EB4210A0F8441004EB4402CC4841
:105140008C3000EB4210816404EB4402C8488C3080
:1051500000EB4210016504EB4402C5488C3000EBC3
:10516000421080F8411004EB4402C1488C3000EB3F
:105170004210817604EB4402BD488C3000EB4210B3
:10518000C17604EB4402BA488C3000EB4210416512
:1051900004EB4402B6488C3000EB4210816504EB0E
:1051A0004402B3488C3000EB4210C165601CC4B2AD
:1051B000062CABDBB2A1AE48733005F073FD0021C5
:1051C000AB4880F8DA1480F8F414A0F8F614A0F8CC
:1051D000F21480F8F81480F8041510BD70B5054677
:1051E00000241EE005F06CFB0068295D405C20286F
:1051F0000BD0285D412802DB285D5A2805DD285D9B
:10520000612807DB285D7A2804DC295D9848133083
:10521000015504E0002196481330015503E0601C5D
:10522000C4B2132CDEDB00BF002070BD014600229B
:105230001FE0087820281BD1491C00220FE00878C5
:10524000202804D008780D2801D0087800B908E09B
:105250000B78874863308354491C501CC2B20F2A14
:10526000EDDB00BF00238248633083540020704789
:10527000491C08780028DCD100BFF8E7014600226D
:105280000FE00878202804D008780D2801D008788D
:1052900000B908E00B78764853308354491C501C01
:1052A000C2B20F2AEDDB00BF002371485330835494
:1052B0000020704770B50546002412E005F000FBA1
:1052C0000068295D405C202804D1295D68482930A8
:1052D000015504E0002166482930015503E0601CB7
:1052E000C4B2132CEADB00BF002070BD70B50546C8
:1052F000002412E005F0E4FA0068295D405C2028F3
:1053000004D1295D5A483D30015504E00021584838
:105310003D30015503E0601CC4B2152CEADB00BF30
:10532000002070BD70B5054628780D2801D10020F9
:1053300070BD002414E0544951F8340005F0D6FC47
:10534000C6B2514850F834103246284605F07EFC6B
:1053500020B94D4800EBC4004068E9E7601CC4B2C6
:10536000494850F8340000780028E4D147480068E4
:105370006421B0FBF1F201FB12001E38052813D2A4
:10538000DFE800F0090C06030F00AFF29F00CFE743
:10539000AFF2DF00CCE7AFF21B10C9E7AFF273103A
:1053A000C6E7AFF2C710C3E700BF00BF0020BFE7EA
:1053B00010B504463648006803F092F801213548DC
:1053C000006803F03EF9002010BD10B504462F48D8
:1053D000006820B101212E48006803F032F9002056
:1053E00010BD10B504462948006820B102212848A4
:1053F000006803F026F9002010BD10B504462348CC
:10540000006820B102212248006803F01AF9002048
:1054100010BD10B504461D48006820B102211C488B
:10542000006803F00EF9002010BD70B50446214657
:105430000120FEF7ABFE85B2632D00D100250C489C
:1054400080F8EA54002070BD10B5044621460320C0
:10545000FEF79CFE81B20648A0F8F014002010BDB3
:1054600010B504460CA0FEF7BAFB002010BD0000EA
:10547000F02D00201D480008554E4B4E4F574E0052
:10548000636D6E657400000074C30008580000204E
:10549000080000200C000020B5E7BBB0BAF4C8EB50
:1054A0000000000070B50446002521460220FEF7EA
:1054B0006DFEC1B2FD4880F8D61421460320FEF7E8
:1054C00065FEC1B2F94880F8DA1421460620FEF7DD
:1054D0000FFF401C044400BF04E0615DF4484155E7
:1054E000681CC5B205F0ECF90068615D405C2028DD
:1054F000F3D00021EE484155EC4890F8DA0410B1A1
:10550000042810D107E00121E84880F8DA140021CE
:10551000A0F8F21407E00521E44880F8DA1400212D
:10552000A0F8F21400BF00BF0321E04880F8DB14AC
:10553000DF49E0A0FEF753FB002070BD10B5044624
:105540000221DF48006803F07CF80021D74880F88A
:10555000DA14DCA0FEF743FB002010BD10B50446B2
:105560000221D748006803F06CF80021CF4880F88A
:10557000DA14D6A0FEF733FB002010BD2DE9F04170
:1055800007463846FEF7DEFE0646022E07DB042EEF
:1055900005DC39460220FEF7F9FDC5B20AE0012E0E
:1055A00005D139460120FEF7F1FDC5B202E0002029
:1055B000BDE8F0817DB1012D02D0052D0AD104E0B6
:1055C0000121BA4880F8E8141DE00521B74880F8A9
:1055D000E81418E000BF0020BF49087088704870C8
:1055E000002409E0002104EB4402B0488C3000EBB9
:1055F00042104170601CC4B2062CF3DB0021AB48A2
:1056000080F8E81400BF00BF0020D1E70146002069
:10561000704770B5044621460220FEF7B7FDC5B2BB
:1056200005EBC50000EB0510362202EB8001AB480C
:10563000006803F005FA002070BD2DE9F041054631
:1056400000270024A04629460120FEF751FE401CF9
:1056500087B200BF06E03819295C9548EB38015540
:10566000601C84B205F02CF900683919695C405C53
:105670002028F0D03819285C2B28ECD000218C4849
:10568000EB3801558948A0F89C14C82100F2D230AB
:1056900005F04FFC26E0FDF7ADFC002818DD4FF0CB
:1056A0000008FDF798FC06460D2E01D00A2E00D109
:1056B00020E07E48B0F89C1400F2D23046547B487B
:1056C000B0F89C04401C81B27848A0F89C1409E012
:1056D00008F10A001FFA80F80A230022114610463A
:1056E00003F097FC7148B0F89C04C82802DAB8F5BA
:1056F0007A7FD0DB00BF6D48D0F8A00438B16B488A
:1057000000F2D231D0F8A02400F2B9309047002046
:10571000BDE8F081014600207047014670480068EE
:105720006422B0FBF2F302FB130037280AD10020F9
:105730005E4AA2F8B00300225C4880F89E24002054
:10574000674A10600020704770B504462146032068
:10575000FEF7CEFD401C044400250AE021785348A2
:10576000C01C41552078222800D104E0641C681C2C
:10577000C5B20F2DF2DB00BF00214C48C01C4155C3
:10578000002070BD70B50646304605F0AFFA1E2801
:105790004FD9307A22284CD106F1090400251FE0A8
:1057A00005F08EF800682178405C202808D005F0CC
:1057B00087F800686178405C202801D0012070BD26
:1057C00061782078303800EB800001EB4000303801
:1057D000C1B23748623028444170E41C681CC5B22D
:1057E000062DDDDB3148B0F8060501122F48A0F880
:1057F0000615B0F8060500F5FA6081B22B48A0F84E
:105800000615082100F20650FEF70BFF274890F816
:10581000040570B90121254880F804153148007845
:10582000412806D022486230FDF79CFF2EA0FEF7EB
:1058300008FA0020C3E770B5054628783038C4B2AE
:105840000A222CA1E81C05F001FA60B921462CA01F
:10585000FEF7C5F9022104EB440214488C3000EB3A
:105860004210417009E10C222AA1E81C05F0EEF972
:1058700060B921462BA0FEF7B2F9032104EB4402E4
:105880000A488C3000EB42104170F6E008222AA151
:10589000E81C05F0DBF940B9002104EB44020348A1
:1058A0008C3000EB42104170E7E04BE0F02D00201F
:1058B00094320020C0B4B5E7BAC5C2EB3A257300F4
:1058C00008000020B9D2BBFA00000000B1BBB6AF9F
:1058D000B9D2BBFA000000004829002010000020C7
:1058E000580000205418002047534DCDF8C2E7D08F
:1058F000A3CAB100434F4E4E454354204F4B0000C6
:10590000BDA8C1A2534F434B45545B25645D2CB3E6
:10591000C9B9A600434F4E4E454354204641494C19
:1059200000000000BDA8C1A2534F434B45545B2566
:10593000645D2CCAA7B0DC00434C4F5345204F4B4D
:10594000000000000522FDA1E81C05F07FF980B9E8
:105950002146FCA0FEF743F9002104EB4402FE4877
:1059600000EB42104170002C02D10020FB4948702E
:1059700083E00722FAA1E81C05F068F9E8BBFA48C1
:1059800000686421B0FBF1F0A04276D104EB440141
:10599000F14800EB411090F8410003286DD100213F
:1059A00004EB4402EC4800EB421080F8411004EB99
:1059B0004401E94800EB4110B0F8441004EB440204
:1059C000E54800EB4210B0F84600814219DD04EBD7
:1059D0004401E14800EB4110B0F8441004EB4402EC
:1059E000DD4800EB4210B0F84600081A81B204EB23
:1059F0004402D94800EB421000E016E0A0F8441041
:105A000007E0002104EB4402D34800EB4210A0F869
:105A10004410002104EB4402CF4800EB4210A0F8F0
:105A200046100020D049086027E00922CFA1E81CD9
:105A300005F00CF908BBCC4800686421B0FBF1F01C
:105A4000A0421AD104EB4401C34800EB411090F886
:105A50004100032811D1002104EB4402BE4800EBB1
:105A6000421080F8411004EB4402BB4800EB4210A6
:105A7000A0F846100020BC490860002070BD10B599
:105A80000446BD48007820F00200801CBA49087026
:105A9000062221460120FEF7BDFBAF498C39C1F833
:105AA000FC04062221460220FEF7B4FBAA498C39E9
:105AB000C1F80005002010BD2DE9F05F07464FF04A
:105AC000000AD34607F10A06307830287EDB3078AA
:105AD00035287BDC70782C2878D1B0782028FBD151
