:020000040800F2
:100000000049002001B20008199800081B98000858
:100010001F98000823980008279800080000000097
:100020000000000000000000000000002B98000805
:100030002D98000800000000DB96000831980008A9
:100040001BB200081BB200081BB20008C9740008EC
:100050001BB200081BB200081BB200081BB200084C
:100060001BB200081BB200081BB200081BB200083C
:100070001BB200081BB200081BB200081BB200082C
:100080001BB200081BB200081BB200081BB200081C
:100090001BB200081BB200081BB200081BB200080C
:1000A0001BB200081BB200081BB200081BB20008FC
:1000B0001BB200081BB200081BB200081BB20008EC
:1000C0001BB200081BB200081BB200081BB20008DC
:1000D0001BB20008F91A0008F32000087B52000840
:1000E0001BB200081BB200081BB2000800F002F8A7
:1000F00000F090F80AA090E8000C82448344AAF132
:100100000107DA4501D100F085F8AFF2090EBAE82F
:100110000F0013F0010F18BFFB1A43F0010318473B
:10012000C0040100E0040100103A24BF78C878C17F
:10013000FAD8520724BF30C830C144BF04680C60ED
:10014000704700000023002400250026103A28BF35
:1001500078C1FBD8520728BF30C148BF0B60704739
:100160006E290BF0AB8470290BF0698166290CF0C5
:10017000AB8565290CF0A88567290CF0A585612958
:10018000AFF3008003681B0A28BF41F08001692992
:100190000BF0DA8064290BF0D78075290BF0D4803E
:1001A0006F290BF0AB8578290BF03581E9290BF02D
:1001B0004585E4290BF04285F5290BF03F85EF29B1
:1001C0000BF0A885F8290BF034810368DB0928BF00
:1001D00041F0800163290BF0B48473290BF0B984DA
:1001E000E3290CF06580F3290CF06A800020704749
:1001F0001FB50BF0CDFB0400002000210CF038FDF2
:10020000401C6060002000210CF048FDE0601FBD34
:1002100010B510BD0CF07CF81146FFF7E9FF00F0B7
:10022000BDF90CF049F903B4FFF7F2FF03BC07F086
:1002300045FA000030BF00000EB500BF6423002265
:100240001146104609F079F907F0A7F807F064F9AC
:100250004FF4E131DE4807F044FA4FF41651DD481F
:1002600007F03FFA4FF49641DB4807F03AFADBA07B
:1002700007F0CFFADBA007F0CCFAE2A007F0C9FA4A
:10028000E649E7A007F0C5FAE9488079E8494979E5
:10029000E74A1279CDE900210290E548C3788278D7
:1002A0000188E4A007F0B5FAECA007F0B2FAF0A0DC
:1002B00007F0AFFAF5A007F0ACFA01229103FB4872
:1002C00007F0D2F907F057FCF948007857282BD0EF
:1002D0005720F7490870F7A007F038FDF449486047
:1002E00040F69F7008810D22F6A1F14828300BF0EE
:1002F000B6FA0020EE4988723C20C8864FF496700A
:1003000008871E2048873C2088870D21E8483E301A
:100310000BF0D7FA0D21E6484B300BF0D2FAEDA0E6
:1003200007F09FFA07F01FFC40F2E241052007F0BA
:10033000AFF9012008F07BFBEB490860012008F0D1
:1003400076FBEA4908606421E94808F06CFCE94959
:100350000860012008F02EFFE7490860012008F03E
:1003600029FFE6490860E348006808F026FD0723F6
:10037000E34A0021E34808F0E5FF0323E24A0021B5
:10038000E24808F0DFFF0423E14A0021E14808F0D9
:10039000D9FF0623E04A0021E04808F0D3FF0523F7
:1003A000DF4A0021DF4808F0CDFF05E000230122ED
:1003B0001946184609F0C1F8F8E730B585B0684627
:1003C00009F067FD4FF47A720198B0FBF2F1B1F1D8
:1003D000807F00D31DE021F07F40401E4FF0E022DF
:1003E000506150170F22002807DA13071D0ECE4B5D
:1003F00000F00F04241F1D5503E013071C0ECB4B08
:100400001C5400BF00204FF0E022906107201061D3
:1004100000BF05B030BD30B58DB03022C44901A851
:100420000BF01DFAC3A4002513E001A850F8251015
:10043000032220460BF041F950B97D48807800EB4B
:1004400080004006000E7A498870681C887002E0BF
:100450006D1C0C2DE9DB00BF241D00E0641C0AF0BC
:10046000F1FE00682178405C2028F7D10020704917
:10047000C8700FE06E48C07800EB80004006000EA8
:100480006B49C8700846C1782078303808446849FC
:10049000C870641C0AF0D6FE00682178405C2028F1
:1004A000E8D000E0641C0AF0CDFE00682178405CD2
:1004B0002028F7D100205E49088011E05C480088C0
:1004C00000EB80004FF6FF7101EA400058490880B8
:1004D0000846018820783038084455490880641C53
:1004E0000AF0B0FE00682178405C2028E6D094A491
:1004F00000204F4908710FE04D48007900EB800063
:100500004006000E4A4908710846017920783038C3
:10051000084447490871641C0AF094FE0068217879
:10052000405C2028E8D0641C0020414948710FE05D
:100530003F48407900EB80004006000E3C4948717E
:100540000846417920783038084439494871641C9C
:100550000AF078FE00682178405C2028E8D0641C0E
:100560000020334988710FE03148807900EB80002A
:100570004006000E2E49887108468179207830386F
:1005800008442B498871641C0AF05CFE00682178DD
:10059000405C2028E8D026480DB030BD10B5FFF7EC
:1005A0003AFF06F070FD06F0C8FD07F0FBFFFFF70D
:1005B00004FF0223654A0021654808F0C3FE044693
:1005C000002008F0FCFF08F04CF8204610BD0000A9
:1005D0000038014000440040004800402020202016
:1005E0000D0A00002F2A2A2A2A2A2A2A2A2A2A2AF7
:1005F0002A2A2A2A2A2A2A2A2A2A2A2A2A2A2A2A5B
:100600000D0A000053544D33325F4750535F426C24
:1006100061636B5F626F61640D0A0000140000206B
:1006200056657273696F6E3A25730D0A00000000FB
:100630001A000020436F6D70696C653A2534642D93
:10064000253032642D2530326420253032643A253D
:100650003032643A253032640D0A00004175746806
:100660006F723A59616E4C69616E670D0A00000045
:100670006368696E6179616E6C69616E6740736F02
:1006800068752E636F6D0D0A000000002A2A2A2A61
:100690002A2A2A2A2A2A2A2A2A2A2A2A2A2A2A2ABA
:1006A0002A2A2A2A2A2A2A2F0D0A0000000C014091
:1006B000041400203132342E3133332E322E3336AF
:1006C00000000000303135303938383532323136BB
:1006D00000000000C9E8B1B8B2CECAFDD0B4C8EB82
:1006E000466C6173680000000000002004000020D8
:1006F00070140020080000200C00002010000020D2
:1007000000040020CD150008000C00207F400008E8
:10071000001000202F51000800140020931F000833
:1007200000080020CB21000818ED00E000E400E004
:10073000CCCC000853657020333020323031350086
:1007400031373A31323A31350000000000020020E2
:10075000390200087FB50546AC4C2946ACA007F02D
:1007600058F8AC480088C72802D0AB48007810B1D0
:100770000020A84908800020A7490870A5480088E3
:100780002554A4480088401CA249088008460088D7
:10079000401E205C082813D1A0A007F03AF89D481D
:1007A0000088012808DD9EA007F033F899480088EA
:1007B000801E98490880EAE3002096490880FAE7FD
:1007C00094480088401E205C092820D100209549CB
:1007D000086007E092A007F01CF892480068401CEF
:1007E000904908608B490988C81CC11700EB5171FA
:1007F000C910A0EBC101C1F108018A4A12689142F7
:10080000E8D884480088401E82490880D3E78148A0
:100810000088401E205C7F2805D17E480088401E4D
:100820007C490880C7E77B480088401E205C0A2876
:10083000C1D17848008802280BDC76480188204620
:100840000BF03FF800207349088077A006F0E1FF25
:100850007FBD70480088801E205C0D28ABD1002031
:100860006C490988605401206B49087070A12046CA
:100870000BF04AF828B170A120460BF045F800288B
:1008800033D16EA006F0C5FF77A006F0C2FF80A0AE
:1008900006F0BFFF86A006F0BCFF8FA006F0B9FFF0
:1008A00094A006F0B6FF9CA006F0B3FFA1A006F04E
:1008B000B0FFA7A006F0ADFFADA006F0AAFFB4A060
:1008C00006F0A7FFBBA006F0A4FFC3A006F0A1FF9F
:1008D000CAA006F09EFFD3A006F09BFFDBA006F0A7
:1008E00098FFE7A006F095FFD6E2ECA120460BF0BA
:1008F0000BF898B9EB488079EA494979E94A1279C5
:10090000E84BDB78CDE90032CDE90210E548837889
:100910000288E549E5A006F07CFFE5E7F1A1204665
:1009200007F0A6F938B3607920280AD120460AF0EA
:10093000A5FE092805D1A079302809D0A079312851
:1009400006D0EAA006F065FF37A006F062FF7FE759
:10095000A079312801D1012000E00020EA49087087
:100960000846007808B1E9A000E0EAA00146EBA043
:1009700006F04FFFB8E7ECA120460AF0C5FF40B9EA
:10098000EBA006F046FFED4AEDA1F2A005F029FF2D
:10099000AAE7F3A120460AF0B7FF30B9F24890F871
:1009A000EE14F2A006F035FF9EE7F4A120460AF00F
:1009B000ABFF18B9F3A006F02CFF95E7F7A120468E
:1009C0000AF0A2FF28B9F8A006F023FF06F056FBB4
:1009D0008AE7FAA1204607F04BF9A0B160792028F8
:1009E0000AD120460AF04AFE092805D1A07930280C
:1009F0000AD0A079312807D0BCA006F00AFF0AA0CF
:100A000006F007FF24E7F2E1DCE100009117002087
:100A1000256300005C0000205E0000202000000034
:100A200008000000600000200D0A7E202420000045
:100A300068656C700D0A00003F0D0A0068656C70F7
:100A40002C3F203A205072696E74207468652063D0
:100A50006F6D6D616E64207573616765206C69737D
:100A6000742E0D0A00000000766572202020203AC6
:100A700020476574207468652076657273696F6EAF
:100A800020696E666F726D6174696F6E2E0D0A005B
:100A90007265626F6F74203A205265626F6F7420C6
:100AA000746865206465766963652E0D0A00000030
:100AB000697020202020203A2047657420536572F9
:100AC00076657220495020696E666F726D61746937
:100AD0006F6E2E0D0A000000736574697020203A55
:100AE00020536574205365727665722049502E0D2F
:100AF0000A00000020202020202020202065673AC6
:100B0000207365746970203139322E3136382E31B8
:100B10002E3130300D0A0000736574706F72743AB4
:100B2000205365742053657276657220506F72741D
:100B30002E0D0A0020202020202020202065673A4A
:100B400020736574706F727420353535350D0A0069
:100B500073696D202020203A204765742053494D49
:100B60002063617264206E756D6265722E0D0A00DD
:100B700073657473696D203A205365742053494D31
:100B80002063617264206E756D6265722E0D0A00BD
:100B900020202020202020202065673A20736574C3
:100BA00073696D2031333333353139373136390D8F
:100BB0000A000000616E756D2020203A20476574A0
:100BC00020416C61726D2070686F6E65206E756D6E
:100BD0006265722E0D0A0000736574616E756D3A60
:100BE0002053657420416C61726D2070686F6E6572
:100BF000206E756D6265722E0D0A00002020202087
:100C0000202020202065673A20736574616E756D21
:100C100020312C31333333353139373136390D0A00
:100C200000000000696E74202020203A204765747F
:100C3000204750532055706461746520696E746557
:100C40007276616C2873292E0D0A00007365746931
:100C50006E74203A205365742047505320557064B9
:100C600061746520696E74657276616C2C203E3DFE
:100C7000312026203C3D203930302E0D0A00000066
:100C800020202020202020202065673A20736574D2
:100C9000696E742033300D0A000000007665720D15
:100CA0000A0000001A00002014000020766572730C
:100CB000696F6E3A202573206275696C6420253057
:100CC0002E34642D25302E32642D25302E326420B2
:100CD00025302E32643A25302E32643A25302E32B9
:100CE000640D0A0064656275670000004572726FEA
:100CF000723A496C6C6567616C206368617261630C
:100D0000746572210D0A0000940000204F70656E1A
:100D100000000000436C6F736500000025732064C1
:100D2000656275670D0A00006D73670D0A000000AB
:100D3000B7A2CBCDB6CCD0C5000000002C1400204B
:100D400049443A25730D0A504455B6CCD0C5B2E299
:100D5000CAD40000313333333531393731363900B5
:100D60006373710D0A0000006C30002047534D2062
:100D700073696E676C653A25640D0A00657869745D
:100D80000D0A000045786974207468697320696EE3
:100D9000746572666163652E0D0A00007265626F8C
:100DA0006F740D0A000000005265626F6F74696E07
:100DB000672E2E2E0D0A0D0A00000000617472636A
:100DC00076000000A079312801D1012000E0002048
:100DD000FB4908700846007810B1AFF2D00001E07E
:100DE000AFF2D0000146F7A006F013FD37E3F9A1FA
:100DF00020460AF089FD60B9F8494868F84906F0CC
:100E0000D6FF0646F54802893146F6A006F001FDF8
:100E100025E3F9A1204606F02BFF00283DD060799C
:100E200020280BD120460AF029FC0838072805D3D2
:100E300020460AF023FC08380F280DD920460AF076
:100E40001DFC06463146AFF25C1006F0E2FCAFF244
:100E5000284006F0DEFCFBE420460AF00FFC801E72
:100E600000212154A01D06F071FFE54908600846E5
:100E7000006840B9AFF28C1006F0CBFCAFF25840DE
:100E800006F0C7FCE4E4DE480068D449486006F098
:100E90006AFEDCA006F0BDFCE1E2E2A1204606F01D
:100EA000E7FE002874D0E07920280AD120460AF015
:100EB000E5FB0A3828B120460AF0E0FB0A3805288D
:100EC00008D9AFF2D81006F0A4FCAFF2A44006F0A7
:100ED000A0FCBDE40020CA490860D449086021E0B4
:100EE000D24800680830205C302805DBCF48006815
:100EF0000830205C392800DD1CE0C148006800EBA8
:100F000080004000BE490860C84800680830205C86
:100F1000303809680844BA490860C4480068401C71
:100F2000C249086020460AF0A9FB0A38BF4909688F
:100F30008842D5D800BF20460AF0A0FB0A38BB493A
:100F40000968884208D9AFF25C2006F062FCAFF273
:100F5000285006F05EFC7BE4A948006820B1A84850
:100F60000068B0F5803F07D3B1A006F052FCAFF2A5
:100F7000485006F04EFC6BE4A14800889749088170
:100F800006F0F1FDB3A006F044FC68E200E06AE27E
:100F9000B8A120460AF0B8FC28B990492831B7A07A
:100FA00006F037FC5BE2BBA1204606F061FE00289C
:100FB00053D0A079202805D120460AF05FFB0938DC
:100FC0000B2808D0AFF2DC2006F023FCAFF2A850CB
:100FD00006F01FFC3CE400209449086011E09348AF
:100FE0000068C01D205C302805DB90480068C01DEB
:100FF000205C392800DD08E08C480068401C8B49E3
:1010000008608A4800680B28E9D300BF20460AF030
:1010100035FB093885490968884208D9AFF2343070
:1010200006F0F7FBAFF2006006F0F3FB10E43020AF
:101030006A4981F82800481C54F8071F81626168DA
:10104000C16221890186A17A80F83210E41F06F07E
:101050008AFD92A006F0DDFB01E299A120460AF08C
:1010600053FC50B95D493E3197A006F0D2FB5B4975
:101070004B319CA006F0CDFBF1E1A1A1204606F08A
:10108000F7FD002867D0E07920280ED1207A31289A
:1010900002D0207A322808D1607A2C2805D1204647
:1010A0000AF0ECFA0C380B2808D0AFF2C03006F08A
:1010B000B0FBAFF28C6006F0ACFB48E400205B496B
:1010C000086011E0594800680A30205C302805DBD0
:1010D000564800680A30205C392800DD08E0534893
:1010E0000068401C51490860504800680B28E9D34B
:1010F00000BF4E4800680B2808D2AFF2104006F03F
:1011000088FBAFF2DC6006F084FB20E4217A313901
:1011100001EB810202EBC10230493E3150180D2132
:101120000AF0CFFB207A313800EB800101EBC001DF
:101130002A483E300844D4F80A100160D4F80E1052
:101140004160618A0181217D817206F00CFD6EA0F3
:1011500006F05FFB83E176A120460AF0D5FB78B963
:101160001E48C18E74A006F054FB1C48018F7AA063
:1011700006F04FFB1948418F7FA006F04AFB6EE155
:1011800085A1204606F074FD002816D0A0792028FD
:101190000AD120460AF072FA093828B120460AF02E
:1011A0006DFA0938032809D9AFF2C04006F031FBC7
:1011B000AFF28C7006F02DFB24E44DE1F0E000006E
:1011C00084000020257320415420524356200D0AEC
:1011D0000000000069700D0A0000000004140020E7
:1011E0005C140020536572766572203D2025733AA9
:1011F00025640D0A0000000073657469700000002A
:10120000640000205365742053657276657220690E
:1012100070207375636365737366756C6C792E0DDE
:101220000A000000736574706F7274006000002023
:101230004572726F723A54686520706F72742069DB
:1012400073206E6F74206C65676974696D61746575
:10125000210D0A00536574207365727665722070E3
:101260006F7274207375636365737366756C6C79E4
:101270002E0D0A0073696D0D0A00000053494D20C0
:1012800063617264206E756D626572203D20257306
:101290000D0A000073657473696D00005365742056
:1012A00053494D2063617264206E756D62657220D2
:1012B0007375636365737366756C6C792E0D0A00C4
:1012C000616E756D0D0A0000416C61726D20706871
:1012D0006F6E65206E756D6265722031203D202530
:1012E000730D0A00416C61726D2070686F6E65202D
:1012F0006E756D6265722032203D2025730D0A00E7
:10130000736574616E756D0053657420416C617214
:101310006D2070686F6E65206E756D6265722073EA
:1013200075636365737366756C6C792E0D0A0000C6
:10133000696E740D0A000000557064617461204983
:101340006E74657276616C2064656661756C74207C
:101350003D2025640D0A00005570646174612049C8
:101360006E74657276616C20736C656570202020E8
:101370003D2025640D0A00005570646174612049A8
:101380006E74657276616C20616C61726D202020D4
:101390003D2025640D0A0000736574696E740000B9
:1013A0000020FE490860FE49086021E0FC48006812
:1013B000C01D205C302805DBF9480068C01D205C9A
:1013C000392800DD1CE0F548006800EB8000400093
:1013D000F2490860F2480068C01D205C3038096896
:1013E0000844EE490860EE480068401CEC4908607B
:1013F00020460AF043F90938E94909688842D5D8F6
:1014000000BF20460AF03AF90938E54909688842E0
:1014100008D9AFF2287006F0FCF9AFF6F41006F028
:10142000F8F918E5DD48006820B1DC480068B0F53F
:10143000617F07D9DBA006F0ECF9AFF6142006F0C7
:10144000E8F908E5D5480088E049C88606F08BFB36
:10145000DFA006F0DEF902E0E5A006F0DAF9AFF66B
:10146000382006F0D6F900BFF5E4E949E94A1288C8
:10147000885CE8490988491CC82905DAE5490988D2
:10148000491CE44A118002E00021E24A1180E2494D
:101490000988491EE04A1180704710B50446DF48AC
:1014A0000088801C14280ADBDC480088801EDB4989
:1014B000088008460288DA49881E0AF08EF904F08E
:1014C0000F001030D649891ED44A12888854D34858
:1014D0000088401CD149088004F00F002030D0491A
:1014E000891ECE4A12888854CC480088401CCB49BB
:1014F000088010BD70B5002500BF00240BE0C9496D
:10150000601C31F8100021F81400084630F814006F
:101510000544601CC4B2092CF1DB092005F096FEDD
:10152000C04948820846408A054440F6E440684382
:10153000C0F3D3200A21B0FBF1F080B270BD70B5CA
:10154000B9480078022812D0B8480078132805DA84
:1015500001221146B64806F087F831E00022012149
:10156000B34806F081F80020B049087028E0AF4881
:1015700000780F2805DA01221146AD4806F074F80C
:101580001EE0AA480078132812DAA848057805EB6F
:10159000D5704010A5EB4000441C04EBD470401003
:1015A000A4EB4000C2B20121A14806F05DF807E0BB
:1015B000002201219E4806F057F800209B49087040
:1015C0009A480078401C9949087070BD00BF00BF60
:1015D00000250024002600BF05F0F2FD95A006F0CE
:1015E00040F9974805F090FE96490860964995485D
:1015F000006805F0F8FE00209449086094490860EE
:101600000846007820F00100401C08700846007869
:1016100020F0020008700846807820F00400001DC9
:10162000887014217E48801E0AF04BF900207B4907
:10163000088035E2642300221146104607F07DFF42
:10164000FFF77DFF06F032F88248B0F8F604401C40
:1016500080B28049A1F8F604B0F5966F0BD97EA050
:1016600006F0FFF800207B49A1F8F60403217F482B
:10167000006807F0B2FCFFF73DFF06464FF400514B
:101680007B4808F036FFE0B940F67460864218DA0D
:10169000FFF730FF8146494676A006F0E2F8642362
:1016A00000221146104607F048FF00224FF4804107
:1016B0006F4805F0D9FF642300221146104607F059
:1016C0003CFF4FF400516A4808F013FF58B36048DC
:1016D0004078C0F3C00030B300206B4908806B48ED
:1016E0000088401C80B269490880052844DB68A056
:1016F00006F0E9F85648407820F008005449487050
:101700005248407820F00100504948700846C0789F
:1017100020F00400C8700846007820F00800087027
:1017200002F077FB28E04FF40051514808F0E1FE49
:1017300010BB47484078C0F3C000E8B900205349C7
:10174000088051480088401C80B24F490880052815
:1017500012DB53A006F0B7F83D48407820F00800AF
:1017600008303B4948703948407820F00100401C5F
:101770003649487002F04DFB4FF400513C4808F0E8
:10178000B8FE48B980212A4808F0B3FE20B12F489E
:10179000C078C0F380008BE0A6E000006400002069
:1017A000600000204572726F723A54686520696E5D
:1017B00074657276616C206973206E6F74206C653D
:1017C000676974696D617465210D0A000414002055
:1017D00053657420696E74657276616C20737563ED
:1017E0006365737366756C6C792E0D0A00000000DA
:1017F0005468697320636F6D6D616E642069732036
:10180000756E646566696E6564210D0A00000000EE
:10181000C81600204A0000204C0000204E00002086
:101820005B1800206E180020902700206800002020
:1018300000080140414443B3F5CABCBBAF000000FF
:101840001A0000202C000020220000207800002038
:101850007C0000206C30002047534DC4A3BFE9BF7B
:10186000B4C3C5B9B7B3ACCAB100000008000020CA
:10187000000C0140B5E7B3D8B5E7D1B93A25646D9E
:10188000562CB9D8BBFA00005200002050000020AE
:10189000CDE2BDD3B5E7D4B4BDD3CDA800000000E0
:1018A000CDE2B2BFB5E7D4B4B9D8B1D500000000DD
:1018B000D0B90020A1490880A1480088401C80B20E
:1018C0009F49088005282FDB9EA005F0FCFFA0485B
:1018D000C07820F00400001D9D49C87002F099FAFC
:1018E0000120FFF7DAFD1FE080219A4808F001FE91
:1018F000D0B99748C078C0F38000A8B100209049C3
:1019000008808E480088401C80B28C4908800528D9
:101910000ADB91A005F0D7FF8D48C07820F00400C5
:101920008B49C87002F075FA4FF400518E4808F0E8
:10193000E0FD20BB01218C4808F0DBFDF8B98448AC
:101940000078C0F3C000D0B90020884908808848DA
:101950000088401C80B28649088005282FDB85A0BE
:1019600005F0B1FF7A48007820F008000830784987
:10197000087002F04EFA0220FFF78FFD1FE00121F0
:10198000794808F0B6FDD0B171480078C0F3C000C6
:10199000A8B100207649088074480088401C80B2B5
:1019A0007249088005280ADB75A005F08CFF68489D
:1019B000007820F008006649087002F02AFA74489E
:1019C000B0F8B403002860D17248008800285CDDBC
:1019D0007148007804117048007800F00F05012C60
:1019E00043DB022C41DC611E01EB810202EBC102F0
:1019F0006A49501809F042FE0B2836D1012D04D057
:101A0000022D0FD0032D2ED119E0611E01EB8102B2
:101A100002EBC10261495018A1F1160260A104F065
:101A2000E0FE21E0611E01EB810202EBC1025B4995
:101A30005018A1F116025EA104F0D3FE14E0224674
:101A4000564916395EA005F00CFF611E01EB8102BC
:101A500002EBC102514950182346A1F116025CA1C4
:101A600004F0BFFE00E000BF00BF4A480088401EEF
:101A70004849088008460088002806DD0846028894
:101A80004549491C481E09F0A8FE05E0FFF7EDFC9A
:101A900007463846FEF75EFE514800880028F5DC10
:101AA000C8E55049504A128888544F490988491C52
:101AB00089B24D4A1180C82901DB002111804849B3
:101AC0000988C82905DA46490988491C444A118011
:101AD00009E046490988491C89B2444A1180C8294D
:101AE00001DB0021118070470020404908803E49F9
:101AF00008803B490880704770B507F0CDFD05466A
:101B000006F062FD284607F0CBFD40F2255138482B
:101B100008F06AFF78B12021354808F05CFF3448AE
:101B200008F0E2FEC4B22E48008808B9FFF7DCFFD7
:101B30002046FFF7B6FF06F062FD70BD560000209C
:101B400054000020BCF4CFDFB1A8BEAF00000000FD
:101B50007800002000080140BCF4CFDFB1A8BEAF80
:101B6000BBD6B8B400000000000C01405A000020B1
:101B700058000020B0CEB3F6B1A8BEAF0000000000
:101B8000B0CEB3F6B1A8BEAFBBD6B8B4000000006B
:101B90006C3000204E000020591800204214002014
:101BA00049443A25730D0ABCF4CFDFB1A8BEAF009B
:101BB00049443A25730D0AB0CEB3F6B1A8BEAF00C2
:101BC00049443A25732D2DB2E2CAD43A2564000067
:101BD00049443A25730D0AB2E2CAD43A256400009A
:101BE0004C000020C8160020480000204A000020B9
:101BF0000038014010B502460B460020002100BF0E
:101C000007E0545C2A2C00D105E0545C60404C1C79
:101C1000A1B29942F5DB00BF10BD2DE9F0410446A9
:101C200000262078242802D00020BDE8F08120463C
:101C300009F024FD401F87B23946601CFFF7DAFF28
:101C40000646204609F01AFD2044071F384606F0D4
:101C5000EEFAB04201D00020E7E706222146F7A0C5
:101C600009F0BCFC60B106222146F6A009F0B6FCE2
:101C700030B106222146F5A009F0B0FC00287DD144
:101C80002146022006F076F90546605D412876D1AE
:101C9000F0480078412877D02146092006F06AF9FB
:101CA000054609F0CFFA0068615D405C202824D128
:101CB000681C215C605D303800EB800001EB400067
:101CC0003038C1B2E3484171E81C215CA81C205C9B
:101CD000303800EB800001EB40003038C1B2DD4805
:101CE0000171681D215C281D205C303800EB8000EC
:101CF00001EB40003038D74948802146012006F0EA
:101D000039F9054609F09EFA0068615D405C2028BB
:101D100025D1681C215C605D303800EB800001EB50
:101D200040003038C1B2CB488171E81C215CA81C4E
:101D3000205C303800EB800001EB40003038C1B24D
:101D4000C448C171681D215C281D205C303800EB3F
:101D5000800001EB40003038C1B2BE48017208215A
:101D6000BC48801C06F09FFABA48801C05F0CCFAEB
:101D7000B849C860881C05F001FB02E09CE08CE0DB
:101D800002E0B5A005F09FFDB648007820F0020003
:101D9000801CB449087003222146072006F07CF815
:101DA00040F23C7148434FF47A71B0FBF1F0A9491D
:101DB00088830846808B142801DA00208883214616
:101DC000082006F0D7F80546605D2C280CD00022CC
:101DD0002146082006F060F84FF4B471B0FBF1F230
:101DE00001FB12009B49C8832146062006F0C2F879
:101DF000205C984988742146042006F0BBF8205CDA
:101E00009449C87404222146052006F045F89149FA
:101E10004861084640699449B0FBF1F201FB1200A9
:101E2000642148433C21B0FBF1F58A4840698E4962
:101E3000B0FBF1F087494861084640698A49484348
:101E40008449486108464069284448610422214683
:101E5000032006F021F87F4988610846806982499D
:101E6000B0FBF1F201FB1200642148433C21B0FBBE
:101E7000F1F5784880697C49B0FBF1F075498861DB
:101E800008468069784948437249886108468069F4
:101E9000284488614120087053E056206D4908703D
:101EA00000208883C8834884487481F8200081F822
:101EB000250081F8240044E0062221466BA009F0A9
:101EC0008DFB58B1062221466AA009F087FB28B194
:101ED0000622214669A009F081FBB8B95D48007867
:101EE00041282ED12146072005F092FF5949487418
:101EF0002146082005F08CFF564981F82000214634
:101F0000092005F085FF534948841AE0062221463E
:101F10005CA009F063FB38B92146032005F078FF87
:101F20004C4981F825000CE00622214657A009F013
:101F300055FB30B92146032005F06AFF454981F879
:101F40002400012071E65349534A1288885C5249A3
:101F50000988491C504A118011460988C82901DBAB
:101F60000021118070474D4800884B4909888842FC
:101F700006DB4A48008848490988401A80B2704701
:101F80004548008845490988401AC0F1C80080B218
:101F9000F5E700BF0024002600BF56202D49087039
:101FA00000208883C8834884487481F8200081F821
:101FB000250081F8240001221021394805F054FB46
:101FC00001222021364805F04FFB35E00A2300228C
:101FD0001146104607F0B1FAFFF7C5FF70B906F1D8
:101FE0000A0086B2002C09DD642E07DD00202D4991
:101FF00008550846FFF711FE0024002618E00026C9
:10200000FFF7A1FF054627480555005D0A2809D1BD
:10201000601C84B20020234908550846FFF7FDFDE7
:10202000002405E0601C80B20446642800DB002424
:10203000FFF799FF0028E2DCC8E700002447505270
:102040004D43000024474E524D4300002442445269
:102050004D43000050190020474E5353D0A3CAB13E
:10206000000000007C00002040420F002447504741
:102070004741000024474E4747410000244244475F
:10208000474100002447504753560000244244472C
:1020900053560000841800206C0000206A000020C5
:1020A00000080140781900202349244A12888854E6
:1020B00022490988491C89B2204A1180C82901DBBC
:1020C000002111801D4909881D4A1288914209D1B9
:1020D0001B490988491C89B2194A1180C82901DBAA
:1020E000002111807047002015490880134908809D
:1020F000704770B507F0D0FA054606F065FA284635
:1021000007F0CEFA40F225510E4808F06DFC78B188
:1021100020210C4808F05FFC0A4808F0E5FBC4B237
:10212000FFF721FF08B9FFF7DEFF2046FFF7BCFFEE
:1021300006F065FA70BD0000841800206A000020D7
:102140006C0000200044004070B504463C254FF46C
:102150007A706843B0FBF4F197480068401C964AD7
:102160001060814207D895A005F0ADFB01F039FE63
:1021700000209149086070BD70B505460024934861
:102180004078C0F3C00010B19148008F01E0904842
:10219000C08E044614B1B4F5617F00D91E244FF4FB
:1021A0007A706043B0FBF5F18A480068401C894AA8
:1021B0001060814208D8214687A005F084FB01F019
:1021C00028FE00208349086070BD00BF00BF00BF2B
:1021D0000024002500BF85A005F043FB01208749AE
:1021E0004870002086494870E4E0642300221146CC
:1021F000104607F0A2F9824840780B2870D007DC1F
:1022000078B101281BD002284AD00A2869D16AE097
:102210000C2867D014286FD015286ED01E28F5D151
:10222000BCE0002076490870744890F8EC0428B1AE
:1022300072484078012801D148700024B9E06F4805
:1022400090F8910010B1002003F047FF6D496B48F2
:10225000C0F8D8100021A0F8D41040F2DC51A0F84A
:10226000D2106949C0F8E0100021A0F8DE104FF448
:10227000FA61A0F8DC106549C0F8E41054494868D8
:10228000634905F094FD0646514802890023314612
:10229000184603F0EBFE022059494870002488E0FC
:1022A000564890F8910002280FD0601C0446B0F503
:1022B000967F14D957A005F0D4FA012050494870F0
:1022C0000024002003F009FF09E0642300221146E6
:1022D000104607F032F900250A204949487068E0A5
:1022E00010E062E018E03A48807A38B1142044499E
:1022F00048700020887004E020E02BE00B2040496B
:10230000487056E047A005F0DEFA01F007FD0C200A
:102310003B49487000244CE039480078012803D13B
:1023200014203749487008E0601C0446B0F5967FD9
:1023300003D300240B20324948703AE024490A3183
:102340003DA005F0C0FA01F02BFD15202C49487086
:1023500000242EE02A48007802280AD10024002117
:102360002648A0F8D410A0F8D6101E2024494870A2
:1023700013E0601C0446B0F5967F0ED3681CC0B213
:102380000546032805DB00201149887205F0EBFBA8
:10239000002500240A201A4948700AE06420FFF74B
:1023A000EBFE6420FFF7D0FE03E0002014494870E4
:1023B00000BF00BF19E70000740000202D2D3E3E35
:1023C000B7A2CBCDD0C4CCF8000000007C00002028
:1023D00004140020700000202D2D3E3EB7A2CBCD6E
:1023E000CEBBD6C3D0C5CFA22C2564002D2D2D3E4B
:1023F000CFB5CDB3C6F4B6AF000000006C300020FE
:1024000090270020B1210020E0190020FB290008BE
:102410005C140020B7FECEF1C6F7C1ACBDD3B3AC9F
:10242000CAB100002D2D3E3EB7A2CBCDC9E8B1B850
:10243000D7A2B2E1000000002D2D3E3EB7A2CBCDC9
:10244000C9E8B1B8BCF8C8A83A25730030B502464F
:102450000B4600211EE0505C7D2819D1481C105C01
:10246000012803D0481C105C022811D1555C481C7F
:10247000105C401E28445054481C84B204E0601C88
:10248000105C1055601C84B2581EA042F7DC83B269
:10249000481C81B29942DEDB184630BDF0B50446D7
:1024A0000A46002000257E26A94F3E7026127E7027
:1024B000BC701612FE703A71A64E96F82960303E36
:1024C000A44F97F8287006EB0716A14F7E71A14E16
:1024D00096F82B60303E9F4F97F82A7006EB071650
:1024E0009B4FBE719B4E96F82D60303E994F97F8EA
:1024F0002C7006EB0716964FFE71964E96F82F60DD
:10250000303E944F97F82E7006EB0716904F3E72B0
:10251000904E96F83160303E8E4F97F8307006EB53
:1025200007168B4F7E728B4E96F83360303E894F84
:1025300097F8327006EB0716854FBE72864E3688C6
:102540003612FE72844E36783E73834E3688761C81
:10255000814F3E8000BF002105E07D4F4E1CBE5DD7
:1025600075404E1CB1B202F10C06B142F5DB761C8F
:10257000774FBD557E27761CDFF8D4C10CF8067066
:10258000761CB0B201212CE0714E765C7E2E03D019
:102590006F4E765C7D2E22D100230AE0C61A761E8D
:1025A0006B4FBE5DC71ADFF8A8C10CF807605E1C50
:1025B000B3B2461A9E42F1DC654E765C7E2E01D1A6
:1025C000022700E00127DFF888C14E1C0CF80670D6
:1025D0007D2667467E544E1CB1B2461CB0B24E1CDE
:1025E000B1B2461E8E42CFDCF0BD7CB5044600255C
:1025F0005A490868214605F0E4FA59490868211D3E
:1026000005F0DFFA5748007841280CD15549886910
:1026100004F1080105F0D5FA5249486904F10C01AA
:1026200005F0CFFA0DE05049D1F8040504F1080196
:1026300005F0C7FA4C49D1F8000504F10C0105F08A
:10264000C0FA4849488C04F1100105F0CBFA45491D
:10265000888B04F1120105F0C5FA4249C88B04F1D8
:10266000140105F0BFFA414801680091406804F187
:10267000160201460190009805F0D2FA05F11C00FF
:1026800085B21C342B20207004206070A11C002017
:1026900005F0A8FA3449B1F8F404211D05F0A2FAB6
:1026A000A41DA81D85B230202070012060702E4826
:1026B00090F8EE04A070E41CE81C85B23120207074
:1026C00001206070274890F82500A070E41CE81CE9
:1026D00085B228467CBD70B506460C4600252248CA
:1026E000B0F8D210B0F8D400081AA0421CDA1E4884
:1026F000B0F8D210B0F8D400081A201A85B21A4BDC
:10270000B3F8D4305A1B184BD3F8D8305919164B9C
:10271000D3F8D80009F061F81348B0F8D400401B92
:1027200081B21148A0F8D4100F49D1F8D820B1F8DF
:10273000D41050182246314609F00AF80A48B0F879
:10274000D400204481B20848A0F8D410204670BDBF
:10275000AC27002004140020800000207800002016
:102760007C000020501900206C3000202200002046
:102770002DE9F0438BB0074688467C1CA8F1010088
:1027800085B2002007F8080039787A1CF1A005F01E
:102790009AF8F7A1204605F06BFA30B9681E205C64
:1027A000232802D00BB0BDE8F083F3A1201D05F073
:1027B0005FFA002852D0204605F006FC022800D01F
:1027C000F0E7A5F10A000B2800D0EBE700260CE0AB
:1027D00008F038FD0168A5F10C003044205C085C6D
:1027E000202800D0DEE7701C86B20B2EF0DB002123
:1027F000681E2154E2480088642190FBF1F201FB3D
:102800001209E0480089DF490979DE4A9288C2F35B
:102810000722DC4B5B68C3F30743CDE90732CDE900
:102820000910D8484068000ED5498A794979D44BB7
:102830001B79CDE90331CDE90520D148C078D049D5
:102840008978CDE900910290A5F10C010819CE4BD1
:10285000CC4A2832CDA103F0C4FF30E0DBA1201D1B
:1028600005F006FA58B3204605F0AEFB022800D06A
:1028700098E7A5F10A000B2800D093E700260CE0AA
:1028800008F0E0FC0168A5F10C003044205C085C15
:10289000202800D086E7701C86B20B2EF0DB0021CA
:1028A000681E2154B7484B30A5F10C01009008195F
:1028B000B44B3E33A3F11602C6A103F092FF00BF52
:1028C00070E770B505460C46A878052832D2DFE8D7
:1028D00000F0032125292D00E01E1E2815DAE21E36
:1028E000E91CA8480A3008F033FF0022E01EA54981
:1028F0000A310A5405F037F9A2490A31BDA004F0A3
:10290000E2FF0120C049087003E0E11EBFA004F00F
:10291000DAFF14E0C2A004F0D6FF10E0C5A004F076
:10292000D2FF0CE0C8A004F0CEFF08E0CBA004F07A
:10293000CAFF04E0A978CEA004F0C5FF00BF00BF25
:1029400070BD2DE9F04104460F46E078A17800EB18
:10295000012086B26078217800EB0120C9490988FE
:10296000884204D1B6F5817F01D0BDE8F08160785E
:10297000217800EB0120C34908802579B6F5807FD6
:1029800011D004DC022E09D0032E2DD110E0B6F5B3
:10299000817F12D0B6F5007F26D120E02946BAA06B
:1029A00004F091FF26E02946BBA004F08CFF21E053
:1029B0002946BEA004F087FF1CE05DB92946C0A0EF
:1029C00004F081FF90484078152807D102208E49F5
:1029D000087003E02946C0A004F075FF0AE029460C
:1029E000C3A004F070FF05E02A463146C6A004F0FB
:1029F0006AFF00BF00BF00BFB7E72DE9FE4F0546E5
:102A0000C948D0F8E0400027002600200290834605
:102A10008146824601900090C348B0F8DE50B2E192
:102A2000002709E0E05D7E2804D1781C205C7E2828
:102A300000D003E0781C87B2AF42F3DB00BF002F69
:102A400006DDEA1BE119204608F0C7FEE81B85B247
:102A5000012605E0A05D7E2800D103E0701C86B24F
:102A6000AE42F7DB00BFAE4200DB8FE1701C81B2EB
:102A70002046FFF7EBFC81462079E17800EB01204E
:102A80001FFA80FB0BF10F00484507D0AA1BA119C4
:102A9000204608F0A2FEA81B85B274E10020009039
:102AA0004FF0010808E014F8080000994840009031
:102AB00008F101001FFA80F8A9F102004045F2DC9C
:102AC000215C0098814207D0AA1BA119204608F07A
:102AD00084FEA81B85B256E1A078617800EB012046
:102AE0001FFA80FA207BE17A00EB012080B201908E
:102AF00004F10D00029048F20411AAEB01008A458E
:102B000024D009DC6FF40040504458B1FF280ED0A7
:102B1000B0F5817F1BD10FE0FD2819D0B0F5FE7F05
:102B200015D10EE159460298FFF70BFF20E15946F7
:102B30000298FFF7C6FE1BE15946029800F04AF9D9
:102B400000225146019801F089F911E1EEE002E11D
:102B5000F0E000003C3C2D2DCEC4B1BED0C5CFA2CC
:102B6000CFC2B7A23A25302E32582C257300000070
:102B70002A7A6C2C00000000696E666F000000006D
:102B80001A000020041400201400002049443A25B3
:102B9000730D0AB0E6B1BE3A257340253032642584
:102BA0003032642530326425303264253032642579
:102BB0003032640D0AB7FECEF1C6F73A25642E25F1
:102BC000642E25642E25643A25640000616E756DBF
:102BD0000000000049443A25730D0AB1A8BEAFBAFF
:102BE000C5313A25730D0AB1A8BEAFBAC5323A2530
:102BF000730000003C3C2D2DD6D5B6CBD7A2B2E158
:102C0000B3C9B9A63A257300902700203C3C2D2D6E
:102C1000BCF8C8A8C2EBCCABB3A43A256400000052
:102C20003C3C2D2DB3B5C1BED2D1B1BBD7A2B2E1D0
:102C3000000000003C3C2D2DCAFDBEDDBFE2CEDE13
:102C4000B4CBB3B5C1BE00003C3C2D2DD6D5B6CB20
:102C5000D2D1B1BBD7A2B2E1000000003C3C2D2D87
:102C6000CAFDBEDDBFE2CEDEB4CBD6D5B6CB00000A
:102C70003C3C2D2DCEB4D6AAD7A2B2E1D7B4CCAC71
:102C80003A256400820000203C3C2D2DD0C4CCF8B5
:102C9000D3A6B4F03A2564003C3C2D2DD6D5B6CB56
:102CA000D7A2B2E1D3A6B4F03A2564003C3C2D2D66
:102CB000D6D5B6CBD7A2CFFBD3A6B4F03A256400C5
:102CC0003C3C2D2DC9E8B1B8BCF8C8A8D3A6B4F0D7
:102CD000B3C9B9A63A2564003C3C2D2DC9E8B1B86A
:102CE000BCF8C8A8D3A6B4F0CAA7B0DC3A256400E3
:102CF0003C3C2D2DCEBBD6C3D0C5CFA2C9CFB1A8E9
:102D0000D3A6B4F03A2564003C3C2D2DC6BDCCA81A
:102D1000CDA8D3C3D3A6B4F03A49443D25302E34D0
:102D2000582C2564000000006C300020019800F051
:102D30004FFF1DE019A004F0C6FD019801F0B8F89E
:102D400016E059460298FFF713FD002251460198FC
:102D500001F084F80CE0514615A004F0B4FD0AF42B
:102D6000004020B100225146019801F077F800BFE1
:102D700000BF701C281A85B2A019411C2A462046A3
:102D800008F02BFD00BF002D3FF74AAE00BF1048F2
:102D9000A0F8DE500020BDE8FE8F00003C3C2D2D49
:102DA000CEBBD6C3D0C5CFA2B2E9D1AF00000000E0
:102DB0003C3C2D2DCAD5B5BDB5C4CFFBCFA24944EF
:102DC000B2BBD6A7B3D62C25302E34580000000055
:102DD0006C3000202DE9F05F06464FF0000900BF7F
:102DE00096F800A0741CF8A004F06DFDC846EFE34F
:102DF000204604F0CBFE05462779472D72D049DCEA
:102E000071D2DFE815F07000AA00BA00C300CC0050
:102E1000D900E600F40070007000700070007000CF
:102E20007000700070000101080114011B012201F3
:102E30002901300137013E01490154015B0166015E
:102E4000710170007000780181018A0170007000CA
:102E5000700070009301A101AF0170007000BD010E
:102E6000C601CF01D8012903320370007000700041
:102E700070007000700070007000700070007000D2
:102E80007000700070003B03400345034A034F038A
:102E900054035D03712D6ED02FDC582D6CD015DCE2
:102EA000A5F148001028ABD2DFE810F01C03210385
:102EB0001D001D001D001D001D001D0026032F0309
:102EC000380341034A0353035C0365035D2D6FD050
:102ED0000ADC592D6DD05A2D6CD05B2D6BD05C2D3A
:102EE00001D176E3F5E2EEE35E2D6ED0642D6DD078
:102EF000652D6CD0702DF3D198E3912D68D014DC42
:102F0000812D6FD008DC722D6DD0732D6CD0742D97
:102F10006BD0802DE4D1B6E3822D67D0832D6FD0A6
:102F2000842D6ED0902DDBD1D3E3B5F5807F69D0B1
:102F300008DC922D67D0932D74D0942D73D0952DED
:102F4000CED1E3E3A5F2011000286DD001286CD0AA
:102F500002286BD00F28C3D1F3E3601D04F016FEE6
:102F60009E498887601D04F011FE834659469CA047
:102F700004F077FC78E262E306E3601D04F006FEED
:102F8000834659469BA004F06CFCF6E3601D04F0F8
:102F9000FDFD834659469BA004F063FCEDE3601DF4
:102FA00004F0F4FD834659469AA004F05AFCE4E389
:102FB00018E3F2E2FAE202E3601D04F0E7FD834663
:102FC000594698A004F04DFCD7E314E31CE324E336
:102FD00084E3601D04F0DAFD8346594695A004F0B1
:102FE00040FCCAE358E333E33BE343E35DE3601DA6
:102FF00004F0CCFD8346594693A004F032FCBCE3B8
:103000005CE361E38BE36EE34FF00109611D93A084
:1030100004F027FCB1E34FF00109611D93A004F017
:1030200020FCAAE364E36CE382E38BE393E34FF0D9
:103030000109611D93A004F014FC9EE34FF0010907
:10304000611D95A004F00DFC97E34FF00109611D8F
:1030500095A004F006FC90E34FF00109611D97A0D4
:1030600004F0FFFB89E34FF00109611D98A004F013
:10307000F8FB82E3611D9BA004F0F3FB4FF0010914
:103080007BE34FF00109601D04F080FD8346594643
:1030900099A004F0E6FB70E34FF00109601D04F015
:1030A00075FD8346594698A004F0DBFB65E34FF0BD
:1030B0000109611D98A004F0D4FB5EE34FF0010903
:1030C000601D04F063FD8346594698A004F0C9FBD7
:1030D00053E34FF00109601D04F058FD8346594643
:1030E00097A004F0BEFB48E34FF00109611D99A0D1
:1030F00004F0B7FB41E3601D04F048FD83465946E8
:1031000099A004F0AEFB38E3601D04F03FFD834658
:10311000594699A004F0A5FB2FE3601D04F036FD8D
:103120008346594698A004F09CFB26E3601D04F0FA
:103130002DFD2A490887601D04F028FD8346594665
:1031400098A004F08EFB18E3601D04F01FFD2349D6
:103150004887601D04F01AFD8346594697A004F085
:1031600080FB0AE3601D04F011FD1C49C886601D48
:1031700004F00CFD8346594696A004F072FBFCE275
:10318000601D04F003FD8346594698A004F069FBD6
:10319000F3E2601D04F0FAFC8346594699A004F05E
:1031A00060FBEAE2601D04F0F1FC834659469CA0F6
:1031B00004F057FBE1E2601D04F0E8FC8346594649
:1031C0009EA004F04EFBD8E23C3C2D2DB2CECAFDB1
:1031D000C9E8D6C3C3FCC1EE0000000004140020FF
:1031E000D0C4CCF8CAB1BCE4BCE4B8F42564C3EBE9
:1031F00020000000746370B3ACCAB1CAB1BCE4254E
:1032000064C3EB00746370D6D8B4ABB4CECAFD25EA
:1032100064000000756470B3ACCAB1CAB1BCE425E7
:1032200064C3EB00756470D6D8B4ABB4CECAFD25C8
:1032300064000000B6CCCFFBCFA2D3A6B4F0B3ACF1
:10324000CAB12564C3EB0000B6CCCFFBCFA2D6D861
:10325000B4ABB4CECAFD256400000000D6F7B7FEBB
:10326000CEF1C6F741504E3A25730000D6F7B7FEAF
:10327000CEF1C6F7B2A6BAC5D3C3BBA7C3FB3A25E6
:1032800073000000D6F7B7FECEF1C6F7B2A6BAC5F6
:10329000C3DCC2EB3A257300D6F7B7FECEF1C6F712
:1032A000B5D8D6B73A257300B1B8B7DDB7FECEF1C1
:1032B000C6F741504E3A257300000000B1B8B7DDA3
:1032C000B7FECEF1C6F7D3C3BBA7C3FB3A25730045
:1032D000B1B8B7DDB7FECEF1C6F7C3DCC2EB3A2515
:1032E00073000000B1B8B7DDB7FECEF1C6F7B5D8B0
:1032F000D6B73A2573000000544350B6CBBFDABAB4
:10330000C53A256400000000554450B6CBBFDABA78
:10331000C53A2564000000004944D6F7B7FECEF157
:10332000C6F7B5D8D6B73A25730000004944B7FEB2
:10333000CEF1544350B6CBBFDABAC53A256400008B
:103340004944B7FECEF1554450B6CBBFDABAC53AC0
:10335000256400004944B1B8B7DDB7FECEF1C6F729
:10336000B5D8D6B73A257300CAFDBEDDC9CFB1A81E
:10337000B2DFC2D43A256400CAFDBEDDC9CFB1A810
:10338000BCC6BBAE3A256400CEDEBCDDCABBD4B140
:10339000C9CFB1A8CAB1BCE4BCE4B8F42564C3EB9E
:1033A00020000000D0DDC3DFCAB1C9CFB1A8CAB1C7
:1033B000BCE4BCE4B8F42564C3EB0000B1A8BEAF24
:1033C000CAB1B5C4C9CFB1A8BCE4B8F42564C3EB95
:1033D00000000000D5FDB3A3C9CFB1A8CAB1BCE4B9
:1033E000BCE4B8F42564C3EB00000000D5FDB3A332
:1033F000C9CFB1A8BEE0C0EBBCE4B8F42564C3D724
:1034000000000000CEDEBCDDCABBD4B1C9CFB1A87C
:10341000BEE0C0EBBCE4B8F42564C3D700000000F4
:10342000D0DDC3DFCAB1B5C4C9CFB1A8BEE0C0EB1F
:10343000BCE4B8F42564C3D700000000BDF4BCB1FF
:10344000B1A8BEAFCAB1B5C4C9CFB1A8BCE4B8F485
:103450002564C3D700000000601D04F097FB83467D
:103460005946D8A004F0FDF987E1601D04F09EFBE9
:1034700083465946D8A004F0F4F97EE1611DDBA033
:1034800004F0EFF979E1611DDCA004F0EAF974E1E0
:10349000611DDEA004F0E5F96FE1611DDFA004F01D
:1034A000E0F96AE1611DE2A004F0DBF965E1601D6D
:1034B00004F06CFB83465946E4A004F0D2F95CE1C9
:1034C000601D04F063FB83465946E4A004F0C9F98B
:1034D00053E1601D04F05AFB83465946E5A004F011
:1034E000C0F94AE1611DE9A004F0BBF945E1611DA5
:1034F000EBA004F0B6F940E1601D04F047FB834601
:103500005946ECA004F0ADF937E1601D04F03EFB34
:1035100083465946EBA004F0A4F92EE1601D04F0A7
:1035200035FB83465946EDA004F09BF925E1601D6B
:1035300004F02CFB83465946ECA004F092F91CE100
:10354000601D04F023FB83465946EDA004F089F981
:1035500013E1601D04F01AFB83465946EDA004F008
:1035600080F90AE1601D04F011FB83465946EDA085
:1035700004F077F901E1601D04F008FB8346594629
:10358000EDA004F06EF9F8E0601D04F0FFFA834648
:103590005946EFA004F065F9EFE0601D04F0F6FA7B
:1035A00083465946F0A004F05CF9E6E0601D04F0A3
:1035B000EDFA83465946F1A004F053F9DDE0601DB1
:1035C00004F0F4FA83465946F1A004F04AF9D4E035
:1035D000DAE0601D04F0EAFA83465946F2A004F0EE
:1035E00040F9CAE0601D04F0E1FA83465946F4A0B0
:1035F00004F037F9C1E0601D04F0D8FA834659465B
:10360000F4A004F02EF9B8E0601D04F0BFFA834680
:103610005946F5A004F025F9AFE0601D04F0B6FAB4
:1036200083465946F4A004F01CF9A6E0601D04F09E
:10363000ADFA83465946F4A004F013F99DE0601DED
:1036400004F0A4FA83465946F3A004F00AF994E082
:10365000601D04F09BFA83465946F2A004F001F97C
:103660008BE0601D04F092FA83465946F0A004F006
:10367000F8F882E0601D04F089FA83465946EFA00D
:1036800004F0EFF879E0601D04F080FA83465946B3
:10369000EDA004F0E6F870E0601D04F087FA8346C0
:1036A0005946EEA004F0DDF867E0601D04F07EFAF4
:1036B00083465946EDA004F0D4F85EE0611DEFA00A
:1036C00004F0CFF859E053E06179EFA004F0C9F8B5
:1036D00053E06179EFA004F0C4F84EE06179F2A004
:1036E00004F0BFF849E06179F5A004F0BAF844E0CD
:1036F000601D04F04BFA83465946F5A004F0B1F87A
:103700003BE06179F6A004F0ACF836E0601D04F00F
:103710003DFA83465946F7A004F0A3F82DE0601D5A
:1037200004F034FA83465946F6A004F09AF824E0EF
:10373000601D04F03BFA83465946F7A004F091F867
:103740001BE011E0601D04F021FA83465946F7A002
:1037500004F087F811E0601D04F028FA834659460A
:10376000F7A004F07EF808E0FAA004F07AF804E08C
:103770002946FEA004F075F800BF00BF781D044480
:1037800008F1010000F0FF08D045FFF631ABB9F1B8
:10379000010F02D1F9A004F064F804F0E4F9BDE8E7
:1037A000F09F2DE9F04104460D4616461F4621467E
:1037B000304604F006FA04202071611D384604F0FA
:1037C00000FAE5E1B9D5B5E3B2B9B4ABBDC7B6C847
:1037D0003A2564B6C8000000B7C7B7A8CEBBD2C6AA
:1037E000B7A7D6B52564C3D700000000BCE0BFD89A
:1037F000C6BDCCA8BAC5C2EB3A257300B8B4CEBBDF
:10380000B5E7BBB0BAC5C2EB3A257300BBD6B8B4B6
:10381000B3F6B3A7BAC5C2EB3A257300B7FECEF133
:10382000C6BDCCA8534D53BAC5C2EB3A25730000B0
:10383000B7FECEF1C6BDCCA8B1A8BEAFBAC5534D38
:1038400053BAC5C2EB3A257300000000B5E7BBB020
:10385000BDD3CCFDB2DFC2D43A256400D2BBB4CE16
:10386000CDA8BBB0B5C4D7EEB3A4CAB1BCE425643F
:10387000C3EB0000D2BBD4C2D7EEB3A4CDA8BBB07B
:10388000CAB1BCE42564C3EB00000000B7FECEF172
:10389000C6BDCCA8BCE0CCFDBAC5C2EB3A257300CE
:1038A000BCE0B9DCCCD8C8A8B6CCD0C5BAC5C2EB90
:1038B0003A257300B1A8BEAFC6C1B1CED7D6253068
:1038C0002E385800B6CCCFFBCFA2B1A8BEAFC6C130
:1038D000B1CED7D625302E3858000000C5C4D5D576
:1038E000C6C1B1CED7D625302E385800C5C4D5D5DF
:1038F000B4E6B4A2C6C1B1CED7D625302E38580012
:10390000B9D8BCFCB1A8BEAFC6C1B1CED7D62530A0
:103910002E385800B3ACCBD9D6B525644B6D2F6883
:1039200000000000B3ACCBD9B3D6D0F8CAB1BCE428
:103930002564C3EB00000000B5A5B4CEC1ACD0F83F
:10394000BCDDCABBB3ACCAB12564C3EB0000000048
:10395000D2BBCCECC1ACD0F8BCDDCABBB3ACCAB1F5
:103960002564C3EB00000000D7EED0A1D0DDCFA2CC
:10397000CAB1BCE42564C3EB00000000D7EEB3A4D9
:10398000CDA3B3B5CAB1BCE42564C3EB000000000D
:10399000B3ACCBD9D4A4BEAFB2EED6B52564283033
:1039A0002E316B6D2F682900C6A3C0CDBCDDCABB0C
:1039B000D4A4BEAFB2EED6B52564C3EB00000000C0
:1039C000C5F6D7B2B2CECAFDC9E8D6C325302E346B
:1039D00058000000B2E0B7ADB1A8BEAFBDC7B6C8D1
:1039E0003A2564B6C8000000B6A8CAB1C5C4D5D58A
:1039F000BFD8D6C625580000B6A8BEE0C5C4D5D5E8
:103A0000BFD8D6C625580000C3BDCCE5D6CAC1BFB5
:103A10002564BCB600000000C1C1B6C82564BCB6B0
:103A200000000000B6D4B1C8B6C82564BCB600001A
:103A3000B1A5BACDB6C82564BCB60000C9ABB6C83E
:103A40002564BCB600000000C9E8D6C3C0EFB3CC03
:103A50002564283130306D2900000000B3B5C1BEA7
:103A6000CBF9D4DACAA149443A256400B3B5C1BE42
:103A7000CBF9D4DACAD049443A256400B3B5C5C6F7
:103A8000BAC53A2573000000B3B5C1BED1D5C9ABE4
:103A900025640000474E5353B6A8CEBBC4A3CABD8D
:103AA0003A25302E32580000474E5353B2A8CCD896
:103AB000C2CAC9E8D6C33A25302E325800000000E9
:103AC000474E5353CAE4B3F6C6B5C2CA3A2564009A
:103AD000474E5353B2C9BCAFC6B5C2CA3A256400FB
:103AE000474E5353C9CFB4ABC4A3CABD3A25302EF9
:103AF00032580000474E5353C9CFB4ABC9E8D6C3C0
:103B00003A25640063616E3120B2C9BCAFBCE4B831
:103B1000F4C9E8D6C325640063616E3120B7A2CB37
:103B2000CDBCE4B8F4C9E8D6C325640063616E3245
:103B300020B2C9BCAFBCE4B8F4C9E8D6C325640060
:103B400063616E3220B7A2CBCDBCE4B8F4C9E8D62D
:103B5000C325640063616E20D7DCCFDF4944B5A57F
:103B6000B6C0B2C9BCAFC9E8D6C30000B2BBCAB6C2
:103B7000B1F049443A253034580000002D2D2D3E37
:103B8000D6D8D0C2C1ACBDD3B7FECEF1C6F70000C7
:103B90002878401C28700920BDE8F0812DE9F0410B
:103BA00004460D4617461E462146384604F009F8DD
:103BB000042020713146601D07F03CFD2878401C30
:103BC0002870304607F05AFD401D80B2BDE8F081F4
:103BD0002DE9FC4107464D4D0026002001906A4624
:103BE0004FF47A714A48006805F00BFB29463846C5
:103BF00003F0F8FFB61C00200190EC1C4548838FB1
:103C0000012201A92046FFF7CCFD0444052302222E
:103C100001A92046FFF7C5FD044403231A4601A964
:103C20002046FFF7BEFD04440523042201A92046D7
:103C3000FFF7B7FD04440323052201A92046FFF73F
:103C4000B0FD04440523062201A92046FFF7A9FD83
:103C500004440323072201A92046FFF7A2FD0444E0
:103C60002C4948682C4904F0A2F8804643461322A8
:103C700001A92046FFF792FF044426480389182231
:103C800001A92046FFF78DFD04440023202201A94D
:103C90002046FFF786FD04440023212201A9204687
:103CA000FFF77FFD04443C23222201A92046FFF7B1
:103CB00078FD04441748038F272201A92046FFF707
:103CC00070FD04441348438F282201A92046FFF7C2
:103CD00068FD04440F48C38E292201A92046FFF73E
:103CE00060FD04449DF80400A870761C3146022053
:103CF000FEF7D4FB06463146A5F10D00FEF7EBFCBE
:103D00000348006805F0E9FABDE8FC81B927002006
:103D10000C000020041400205C14002038B5784CFE
:103D20006A464FF47A717748006805F06AFA002015
:103D300020707E2060700020A0707D20E07072A056
:103D40000168616000792072142104F1090007F014
:103D5000B8FD6FA0016844F8091F8188A1808079AF
:103D6000A0716DA001686161818821838079A0764E
:103D70000120E0766AA00168E16140682062093CA8
:103D80002D214FF48070FEF789FB054629465C48DB
:103D90000D38FEF7A0FC5B48006805F09EFA38BDC0
:103DA00038B5574C6A464FF47A715648006805F0AA
:103DB00028FA5E49204607F03DFC5C4807F05EFCAF
:103DC00085B229464FF48170FEF768FB0546294607
:103DD000A4F10D00FEF77FFC4A48006805F07DFA6B
:103DE00038BD38B500246A464FF47A7145480068FA
:103DF00005F007FA21460220FEF750FB0446214653
:103E00003F480D38FEF767FC3E48006805F065FA4C
:103E100038BD38B53A4D002445480078022800D016
:103E200038BD6A464FF47A713648006805F0E9F902
:103E30002846FEF7DAFB204484B221464FF4007096
:103E4000FEF72CFB044621462D480D38FEF743FCB7
:103E50002C48006805F041FA00BFE1E72DE9F8437E
:103E600005460E461746264C6A464FF47A71254899
:103E7000006805F0C6F931462EA003F024FD281293
:103E8000207065703012A070E67027714FF0050841
:103E900041460120FEF702FB80464146A4F10D0099
:103EA000FEF719FC1748006805F017FABDE8F8831B
:103EB000F8B50646124D00246A464FF47A7111484F
:103EC000006805F09EF922A003F0FDFC294630466B
:103ED00003F088FEA41CA81CFEF787FB204484B2D4
:103EE000214640F20120FEF7D9FA04462146A5F109
:103EF0000D00FEF7F0FB0348006805F0EEF9F8BD91
:103F0000B92700200C00002037353533330000007E
:103F10005A4C3030315F4100303030303030310079
:103F2000C2B3414D30303031000000000E1400208B
:103F3000902700202D2D3E3EB7A2CBCDCDA8D3C3D8
:103F4000D3A6B4F02C49443A25302E345800000052
:103F50002D2D3E3EB2E9D1AFCEBBD6C3D0C5CFA248
:103F6000D3A6B4F0000000000020FE490880FE49FE
:103F7000088070472DE9F84380460C4615461E46DA
:103F8000089F4FF000096A464146F848006804F06F
:103F900075FD6A464146F648006804F06FFDD0B1F1
:103FA00001285AD0022800D000BFF2480078401CF7
:103FB000F04908704FF0020908460078B84209DB62
:103FC00000200870EC49086025B12946EB480068DC
:103FD00005F003F84FE09DF800000A2826D1E548D7
:103FE0000078401CE34908704FF003091B21E4A04E
:103FF00003F0B8FCDF480078B84227DBDE480068F1
:10400000272805D0DC4839460268DEA003F029FCE9
:10401000FFF7AAFF0020D7490870D7490860AEB162
:104020003146D648006804F0D8FF0FE09DF8001034
:10403000DBA003F016FC4FF0FF090020CE4908601A
:1040400024B12146CD48006804F0C7FF00230122B7
:104050001946184605F071FA0DE024B12146C7480B
:10406000006804F0BAFF0020C2490870C249086025
:104070004FF0010900BF00BF4846BDE8F8830EB508
:104080004FF0000A002600274FF00109B046002338
:1040900001221946184605F050FA01F03FF90020B8
:1040A000B54908600121B548006804F05DFF00BF14
:1040B00001F016B8B048006830B902A9AF480068EE
:1040C00004F084FDAC490860AB4800686421B0FB93
:1040D000F1F4A9480068B0FBF1F201FB12004C2892
:1040E00080F0F987DFE810F04C00FA00F707B2071C
:1040F000F707F707F707F707F707F707F501810154
:10410000A501B501C501D501E50195010702BD0273
:104110004903DD02CD02F707F707F707F707F707AF
:10412000F707F707ED02FF021103230335035D05CF
:10413000C207D007DD07EA07F707F707F707F70712
:10414000F707F707F707F707F707F7075A02170206
:104150006D02F7071D079B067D02F707F707F707B4
:10416000F707F707F707F707F707F707F707F7075F
:10417000F707F7078D029D02AD026F05C305F10534
:10418000642300221146104605F0D7F9794890F8CB
:10419000F00430B901217948006804F01EFF00F0F6
:1041A0009EBF744890F8EC0458B914217348006815
:1041B00004F013FF4FF0010900206E4981F8ED046F
:1041C000EDE70AF101008246052800D2E7E74FF04B
:1041D000000A00253FE005EB45016648903000EB02
:1041E00041104078B8B905EB45016248903000EBCA
:1041F0004110007868B35F4890F8DE0448BB05EBD7
:10420000C50000EB0510492202EB80015B48006805
:1042100004F0AAFE1DE005EB45015648903000EB86
:1042200041104078022814D105EB450151489030E7
:1042300000EB4110B0F8440000280ADD05EBC50092
:1042400000EB05104B2202EB80014C48006804F0A3
:104250008BFE681C85B2062DBDDB4648B0F8B40362
:10426000D0B1444890F8B60330B90020414981F8F4
:10427000B603A1F8B4030BE03E4890F8B603401E25
:104280003C4981F8B60337213C48006804F06CFED5
:104290000020384981F8A20427B1012F0AD0022F4B
:1042A00018D10FE024213548006804F05DFE781C29
:1042B000C7B211E027213148006804F055FE781C90
:1042C000C7B209E025212D48006804F04DFE781C96
:1042D000C7B201E0002700BF00BF60E740213448BB
:1042E00006F023F94FF48051324806F01EF90023FE
:1042F00002221946184605F020F92FA003F0B1FA62
:104300004FF480512B4806F00EF900230222194683
:10431000184605F012F92CA003F0A3FA4021244816
:1043200006F001F9002302221946184605F005F9A6
:1043300040211F4806F0F9F80023012219461846CB
:1043400005F0FBF8FFF710FE4FF49641214803F00B
:10435000C8F921A003F006FB0120064981F8F0040A
:104360000B203FE088000020860000200400002091
:10437000000000206C3000208C000020080000208D
:10438000256300004154B3ACCAB1B3ACB9FD256498
:10439000B4CE2C61745F6E6F773D25640000000021
:1043A000CFB5CDB3D3CACFE4B4EDCEF33A25640094
:1043B00000080140000C014047534DC4A3BFE9D69B
:1043C000D8D0C2C9CFB5E70047534DC4A3BFE9C693
:1043D000F4B6AF00004800402020202020200D0A25
:1043E00000000000FB490860D9E6FB48006804F0C3
:1043F000E4FCFAA003F035FAFDA003F0B3FA0320C1
:1044000003461122114600904FF49670FFF7B2FD5B
:10441000C5E6FBA003F025FAFDA003F0A3FA0120F6
:104420000C231A46194600904FF49670FFF7A2FD30
:10443000B5E6F9A003F015FAFCA003F093FA012009
:104440000D231A46194600904FF49670FFF792FD1F
:10445000A5E6F8A003F005FAFBA003F083FA01201B
:104460000E231A46194600904FF49670FFF782FD0E
:1044700095E6F7A003F0F5F9FAA003F073FA01202E
:104480000F231A46194600904FF49670FFF772FDFD
:1044900085E6F7A003F0E5F9F9A003F063FA01203F
:1044A00010231A46194600904FF49670FFF762FDEC
:1044B00075E6F7A003F0D5F9FAA003F053FA01204E
:1044C0000A231A46194600904FF49670FFF752FDE2
:1044D00065E6F7A003F0C5F9F9A003F043FA03205D
:1044E00003461222114600904FF49670FFF742FDEA
:1044F0004FF0010953E6F4A003F0B3F9F8A003F07C
:1045000031FA032003463322114600904FF496708F
:10451000FFF730FD43E6B9F1000F04D0F3A003F03C
:10452000A0F94FF00009F7A003F01CFA0020FC49A5
:1045300081F8EE04642003230022322100904FF41E
:104540007A70FFF717FD01900198022825D100230A
:1045500001221946184604F0F0FFF14800783C2883
:1045600010DDF0A003F07DF90020ED49087081F81E
:10457000EE0403219848006804F02FFD00209549BF
:1045800008600AE0E648C078022803D10320914978
:10459000086002E033208F49086000E60120E0490E
:1045A000C870E3A003F05DF9E8A003F0DBF9032095
:1045B00003460246342100904FF49670FFF7DAFC70
:1045C000EDE5E5A003F04DF9E8A003F0CBF90320F9
:1045D00003463822114600904FF49670FFF7CAFC4C
:1045E000DDE5E6A003F03DF9E9A003F0BBF9032007
:1045F00003460246462100904FF49670FFF7BAFC3E
:10460000CDE5E7A003F02DF9EAA003F0ABF9032014
:1046100003460246472100904FF49670FFF7AAFC2C
:10462000BDE5E8A003F01DF9EBA003F09BF9032022
:1046300003460246482100904FF47A70FFF79AFC37
:10464000ADE5E9A003F00DF9ECA003F08BF9032030
:1046500003460246132100904FF49670FFF78AFC40
:104660009DE5EAA003F0FDF8EEA003F07BF903203E
:1046700003460246162100904FF49670FFF77AFC2D
:104680008DE5EBA003F0EDF8EEA003F06BF903204D
:1046900003461522114600904FF49670FFF76AFC0E
:1046A0007DE5ECA003F0DDF8EFA003F05BF903205B
:1046B00003461E22114600904FF49670FFF75AFCF5
:1046C0006EE2F0A003F04EF901201F231A461946AE
:1046D00000904FF49670FFF74DFC91495431ECA0D7
:1046E00003F0BFF85CE2EFA003F03CF901202023C7
:1046F0001A46194600904FF49670FFF73BFC884924
:104700006431EBA003F0ADF84AE2EEA003F02AF921
:10471000012021231A46194600904FF49670FFF7A6
:1047200029FC7F492A31EAA003F09BF838E2EDA08A
:1047300003F018F9012022231A46194600904FF47D
:104740009670FFF717FC76493E31E9A003F089F82F
:1047500026E2ECA003F006F9012014231A461946BC
:1047600000904FF49670FFF705FC6D491431E8A0F6
:1047700003F077F84FF0010912E2B9F1000F04D00D
:10478000E8A003F06EF84FF00009ECA003F0EAF89F
:10479000032000231A46194600904FF4FA70FFF7E1
:1047A000E9FBE9A003F0DEF80320034600221146EE
:1047B00000904FF49670FFF7DDFB0190584890F899
:1047C000EC0430B9564890F8ED04401CC0B254498E
:1047D000C0E1D7E18C0000200800002047534DC401
:1047E000A3BFE9C9E8D6C3B2A8CCD8C2CA000000AA
:1047F00041542B4950523D31393230300D0A0000BE
:1048000047534DC4A3BFE9B8B4CEBBC9E8D6C30073
:10481000415426460D0A000047534DC4A3BFE9B9D1
:10482000D8B1D5444344C4A3CABD00004154264373
:10483000310D0A0047534DC4A3BFE9BAF6C2D444B0
:104840005452D7B4CCAC000041542644300D0A0079
:1048500047534DC4A3BFE9B4AEBFDAD6A1B8F1CA7D
:10486000BD00000041542B4943463D330D0A000072
:1048700047534DC4A3BFE9B4AEBFDAC1F7BFD800F8
:1048800041542B4946433D302C300D0A00000000B6
:1048900047534DC4A3BFE9B1BEB5D8CBD9B6C8B153
:1048A000A8B8E60041542B494C52523D300D0A0045
:1048B00047534DC4A3BFE9BFAAC6F4BBD8CFD400A9
:1048C000415445310D0A000047534DC9E8D6C3B5E0
:1048D000E7D4B4C4A3CABD3AC8ABB9A6C4DC0000CF
:1048E00041542B4346554E3D310D0A0047534DB5BB
:1048F000C8B4FD53494DBFA8B3F5CABCBBAF2E2EFB
:104900002E00000041542B43504D533D224D452273
:104910002C224D45222C224D54220D0A000000006D
:104920006C30002053494DBFA8B9CAD5CF00000054
:1049300053494DBFA8D5FDB3A32CC9E8D6C3B6CC07
:10494000D0C5C4A3CABD3A504455000041542B43BE
:104950004D47463D300D0A0047534DC9BEB3FDCB10
:10496000F9D3D0B6CCCFFBCFA200000041542B43EB
:104970004D47443D312C340D0A00000047534DC9CA
:10498000E8D6C3B6CCCFFBCFA2B1A8B8E6000000F2
:1049900041542B434E4D493D322C320D0A0000004C
:1049A00047534DC9E8D6C3C6F4D3C3B6E0C2B7C1B6
:1049B000ACBDD30041542B51494D55583D310D0AE2
:1049C0000000000047534DC9E8D6C3B7A2CBCDCFF6
:1049D000D4CABE3E0000000041542B514950524FF2
:1049E0004D50543D330D0A0047534DC9E8D6C3B965
:1049F000D8B1D5B7A2CBCDBBD8CFD40041542B5121
:104A0000495344453D300D0A0000000047534DC94D
:104A1000E8D6C3D7A2B2E1D7B4CCACD6F7B6AFC90B
:104A2000CFB1A80041542B435245473D310D0A00F8
:104A300047534DC9E8D6C3CDACB2BDCDF8C2E7CA25
:104A4000B1BCE40041542B514E49545A3D310D0A3A
:104A50000000000047534DC9E8D6C3504450C9CFA9
:104A6000CFC2CEC40000000041542B434744434F03
:104A70004E543D312C224950222C22434D4E455458
:104A8000220D0A0041542B43474D4D0D0A000000F2
:104A900047534DBBF1C8A1C4A3BFE9D0CDBAC53AB5
:104AA0002573000041542B43474D520D0A0000006E
:104AB00047534DBBF1C8A1C8EDBCFEB0E6B1BE3A4C
:104AC0002573000041542B4347534E0D0A0000004C
:104AD00047534DBBF1C8A1C4A3BFE9494D45493A6D
:104AE0002573000041542B43494D490D0A00000035
:104AF00047534DBBF1C8A1534DBFA8494D53493A47
:104B00002573000041542B51434349440D0A0000D2
:104B100047534DBBF1C8A1534DBFA8434349443A45
:104B20002573000047534DB5C8B4FDB5C7C2BCB529
:104B3000E7BBB0CDF82E2E2E0000000041542B43D1
:104B400053510D0A0000000041542B435245473F8A
:104B50000D00000081F8ED043C2809DD002081F8FB
:104B6000ED040320F6490860F6A002F07AFE02E0A8
:104B70001420F3490860002301221946184604F066
:104B8000DCFC0DE0F6A002F06CFE0020F84981F894
:104B9000ED0481F8F8042321F648006804F0E4F9F4
:104BA0009DE2F5A002F0DEFE022000231A4619461F
:104BB00000904FF4FA70FFF7DDF9ED49091DF1A0FF
:104BC00002F04FFE8BE204EB4401E948903000EB29
:104BD0004110C08F04EB44010090E548903000EB99
:104BE000411000F11D0304EB4401E148903000EB5B
:104BF000411090F8400008B9E7A000E0E7A00246A5
:104C00002146E7A002F02DFE04EB4401D848903085
:104C100000EB4110C08F04EB44010090D448903069
:104C200000EB411000F11D0304EB4401D04890302B
:104C300000EB411090F8400008B9D7A000E0D7A0E1
:104C400002462146DCA002F08DFE012000231A4618
:104C5000194600904FF4FA70FFF78CF9012104EB2C
:104C60004402C348903000EB4210417037E22146C5
:104C7000D8A002F0F6FD2146DAA002F073FE00266D
:104C800007E0701C86B2642300221146104604F02F
:104C900054FC04EB4401B648903000EB41104078DE
:104CA00030B1322E04DAB24890F8EC040028E8D192
:104CB0000026002104EB4402AD48903000EB421086
:104CC000417000209E49086009E204EB4401A848B5
:104CD000903000EB4110B0F8440018B9002098491A
:104CE0000860FCE104EB4401A148903000EB411066
:104CF00090F84100D8BB012104EB44029C4890305D
:104D000000EB421080F8411004EB440198489030C9
:104D100000EB4110B0F8441004EB4402944890308A
:104D200000EB4210A0F8461004EB4401904890308C
:104D300000EB4110B0F846202146AEA002F012FE72
:104D4000052003230022114600904FF4FA70FFF76C
:104D500011F90190022104EB44028548903000EBE8
:104D6000421080F841104B207549086056E0FFE77B
:104D700004EB44017E48903000EB411090F8410074
:104D800002281CD104EB44037948903000EB431017
:104D9000B0F8462004EB44037548903000EB431014
:104DA000816C994802F00CFD032104EB4402704829
:104DB000903000EB421080F8411000262EE004EB0A
:104DC00044016B48903000EB411090F841000328FB
:104DD00024D1642E15DA664890F8EC0488B104EB0F
:104DE00044016348903000EB41104078022808D11C
:104DF000701C86B2642300221146104604F09DFB0D
:104E00000CE00026002104EB44025948903000EBEE
:104E1000421080F841100020494908605FE1544881
:104E2000B0F8B40318B900204549086057E150486C
:104E300090F8A204C8B9754AA2F11901744801F0AA
:104E400026FD80467149193972A002F00AFDC34659
:104E500008EBDB704010411E73A002F083FD0120BF
:104E6000434981F8A20400265AE0414890F8A20480
:104E7000012820D13E4890F8EC0448B900260020D3
:104E80003B4981F8A2046C4948702D49086047E00D
:104E9000322E08DA701C86B26423002211461046B6
:104EA00004F04BFB3CE000260020314981F8A204CD
:104EB0002349086034E02E4890F8A20402280ED15D
:104EC00042465349504802F07BFC1A214E4802F0FA
:104ED00059FC0320264981F8A204002620E024483A
:104EE00090F8A20403281BD1B6F5167F11DA2048EA
:104EF00090F8EC0468B11E48B0F8B403002808DD4F
:104F0000701C86B2642300221146104604F015FB83
:104F100006E000260020164981F8A204084908602E
:104F2000DDE0214645A002F01DFD01200323002203
:104F3000114600904FF4FA70FFF71CF8CFE0000024
:104F40008C000020B5E7BBB0CDF8B5C7C2BCCAA77E
:104F5000B0DCA3ACD6D8D0C2B5C7C2BC000000003C
:104F600047534DCDF8C2E7B5C7C2BCB3C9B9A60017
:104F70006C3000200800002041542B434F50533F19
:104F80000D0A000047534DD4CBD3AAC9CCD0C5CF0E
:104F9000A23A2573000000005443500055445000CD
:104FA000BDA8C1A2534F434B45545B25645D2C25DE
:104FB000732C25733A25640041542B51494F5045B9
:104FC0004E3D25642C222573222C222573222C256C
:104FD000640D0A00B9D8B1D5534F434B45545B25F6
:104FE000645D000041542B5149434C4F53453D25CE
:104FF000640D0A0041542B514953454E443D2564EC
:105000002C25640D0A0000000048004056330020A3
:10501000552E00203E3E3EB7A2CBCDB6CCD0C5C368
:10502000FCC1EE3A2573000041542B434D47533DDC
:1050300025640D0A000000009027002041542B43F6
:105040004D47523D25640D0A000000009CA002F06F
:1050500008FC00F063F900209C4948709C480068F7
:1050600003F0ABFE01209B49086038E0AFF23450FA
:1050700002F078FC032003460022114600904FF412
:10508000FA70FEF777FF2AE093A002F06BFC032092
:1050900003460022114600904FF4FA70FEF76AFFB3
:1050A0001DE090A002F05EFC0320034600221146A2
:1050B00000904FF4FA70FEF75DFF10E08CA002F054
:1050C00051FC012000231A46194600904FF4FA7053
:1050D000FEF750FF03E000207E49086000BF00BFDC
:1050E000FEF7E8BF8649874A1288885C85490988A7
:1050F000491C89B2834A1180C82901DB0021118033
:105100007047814800887F490988884206DB7E48CD
:1051100000887C490988401A80B270477948008825
:1051200079490988401AC0F1C80080B2F5E700BF8C
:10513000002500BF00207549A1F87A00C8677CE00F
:105140000A2300221146104604F0F7F9FFF7D9FFB1
:10515000D8B96E48C06F0A306C49C8670846B0F8C5
:105160007A00002811DD0846C06F64280DD9084672
:10517000C06F0A30C8670846B0F87A00002804DD1E
:105180000846C06F642800D9012537E0FFF7AAFF61
:1051900004465F48007820B12146AFF61C6006F057
:1051A0006BF800205B49A1F8F6045849C867084627
:1051B000B0F87A000C540846B0F87A00085C0A2867
:1051C00004D00846B0F87A006E2808DD4F48B0F8E1
:1051D0007A00401C4D49A1F87A00012512E04B48A5
:1051E000B0F87A00401C4949A1F87A000846B0F8A6
:1051F0007A00782802DB0020A1F87A00FFF781FF0F
:105200000028C3DC00BFC5B100204049B1F87A10C6
:105210003E4A5054104600F0D0F93C49C1F8800095
:105220000846D0F8800018B10846D0F880108847AA
:1052300000203649A1F87A00C86781E73049324A30
:105240001288885430490988491C89B22E4A118035
:10525000C82901DB002111802B490988294A1288BD
:10526000914209D127490988491C89B2254A1180F0
:10527000C82901DB00211180704770B504F00CFAD9
:10528000054603F0A1F9284604F00AFA40F2255138
:10529000214805F0A9FB78B120211F4805F09BFBB0
:1052A0001D4805F021FBC4B2FFF72BFF08B9FEF73C
:1052B0005BFE2046FFF7C2FF03F0A1F970BD0000BE
:1052C000D6D8C6F447534DC4A3BFE90090270020A9
:1052D000080000208C00002041542B4342430D0A5B
:1052E0000000000041542B43434C4B3F0D0A00008B
:1052F00041542B5143454C4C4C4F433D310D0A001A
:105300008C2D00208800002086000020E82F00203F
:10531000840000206C3000200048004010B50020C0
:10532000F8490870C87081F8EC0481F8ED0481F840
:10533000EE0481F8EF0441F26800A1F8F4040020C3
:1053400081F8F10481F8F20481F8F004A1F8A004D6
:10535000A1F8B40381F8B60381F8A204EA48C1F8C1
:10536000A404EAA1E748001D06F064F9E7A1E548B6
:10537000143006F05FF9E5A1E2483E3006F05AF934
:10538000E2A1E0482A3006F055F9E0A1DD485430AA
:1053900006F050F9DDA1DB48643006F04BF900243B
:1053A00051E0002104EB4402D648903000EB42105B
:1053B000017004EB4402D348903000EB421041707E
:1053C00004EB4402CF48903000EB4210A0F84410A8
:1053D00004EB4402CB48903000EB4210816404EBB4
:1053E0004402C848903000EB4210016504EB4402CF
:1053F000C448903000EB421080F8411004EB4402A6
:10540000C048903000EB4210817604EB4402BD4866
:10541000903000EB4210C17604EB4402B948903062
:1054200000EB4210416504EB4402B648903000EBBB
:105430004210816504EB4402B248903000EB421008
:10544000C165601CC4B2062CABDBB2A1AD487430A0
:1054500006F0F0F80020AB4981F8DE0481F8F8048A
:10546000A1F8FA04A1F8F60481F8FC0481F8080513
:1054700010BD70B5054600241EE005F0E3FE00688F
:10548000295D405C20280BD0285D412802DB285D87
:105490005A2805DD285D612807DB285D7A2804DCB1
:1054A000295D98481430015504E0002195481430D6
:1054B000015503E0601CC4B2132CDEDB00BF0020EA
:1054C00070BD014600221FE0087820281BD1491C2E
:1054D00000220FE00878202804D008780D2801D099
:1054E000087800B908E00B78864864308354491C7A
:1054F000501CC2B20F2AEDDB00BF0023814864308C
:10550000835400207047491C08780028DCD100BF74
:10551000F8E7014600220FE00878202804D0087838
:105520000D2801D0087800B908E00B787548543090
:105530008354491C501CC2B20F2AEDDB00BF00236C
:105540007048543083540020704770B505460024DD
:1055500012E005F077FE0068295D405C202804D148
:10556000295D68482A30015504E0002165482A3049
:10557000015503E0601CC4B2132CEADB00BF00201D
:1055800070BD70B50546002412E005F05BFE0068B2
:10559000295D405C202804D1295D5A483E300155E0
:1055A00004E0002157483E30015503E0601CC4B2BE
:1055B000152CEADB00BF002070BD70B505462878C9
:1055C0000D2801D1002070BD002414E0534951F88A
:1055D000340006F053F8C6B2504850F83410324642
:1055E000284605F0FBFF20B94C4800EBC40040689A
:1055F000E9E7601CC4B2494850F83400007800283C
:10560000E4D1474800686421B0FBF1F201FB1200CD
:105610001E38052813D2DFE800F0090C06030F003E
:10562000AFF2A100CFE7AFF2DD00CCE7AFF21D1083
:10563000C9E7AFF27110C6E7AFF2C910C3E700BF08
:1056400000BF0020BFE710B504463648006803F0ED
:10565000DBF901213448006803F087FA002010BD0F
:1056600010B504462E480068C0B12D48006864217A
:10567000B0FBF1F201FB12004B280FD02848006864
:10568000B0FBF1F201FB1200372807D02448006874
:1056900020B101212348006803F067FA002010BD03
:1056A00010B504461E48006820B102211D4800685C
:1056B00003F05BFA002010BD10B5044618480068DE
:1056C00020B102211748006803F04FFA002010BDF6
:1056D00070B504462146012002F09AFB85B21048BD
:1056E000006820B102210F48006803F03EFA0A2D3D
:1056F00005D10EA002F0B5F802200249C8700020C2
:1057000070BD00006C3000206D620008554E4B4E9D
:105710004F574E00636D6E6574000000FCCC0008AE
:105720008C000020000000200400002053494DBFE1
:10573000A8B4EDCEF328434D45204552524F52298F
:105740000000000070B504462146012002F060FB15
:1057500085B2632D00D10025FB4981F8EE5400206D
:1057600070BD10B504462146032002F051FBF649F6
:10577000A1F8F404002010BD10B50446F3A002F017
:1057800070F8002010BD70B50446002521460220A7
:1057900002F03EFBEC4981F8DA042146032002F0D6
:1057A00037FBE94981F8DE042146062002F0E2FBDE
:1057B000401C044400BF04E0615DE7484155681C9B
:1057C000C5B205F03FFD0068615D405C2028F3D064
:1057D0000021E1484155DC4890F8DE0410B104286E
:1057E00010D107E00120D84981F8DE040020A1F89B
:1057F000F60407E00520D44981F8DE040020A1F872
:10580000F60400BF00BF0320CF4981F8DF04D2496E
:10581000D2A002F026F8002070BD10B50446022187
:10582000D148006803F0A1F90020C74981F8DE04DF
:10583000CEA002F016F8002010BD10B504460221DB
:10584000C948006803F091F90020BF4981F8DE04DF
:10585000C8A002F006F8002010BD2DE9F04107466F
:10586000384602F0B1FB0646022E07DB042E05DCAB
:105870003946022002F0CCFAC5B20AE0012E05D169
:105880003946012002F0C4FAC5B202E00020BDE8AA
:10589000F0817DB1012D02D0052D0AD104E0012057
:1058A000A94981F8EC041DE00520A74981F8EC0422
:1058B00018E000BF0020B2490870887048700024CA
:1058C00009E0002104EB44029F48903000EB4210B5
:1058D0004170601CC4B2062CF3DB00209A4981F8A9
:1058E000EC0400BF00BF0020D1E701460020704754
:1058F00070B504462146022002F08AFAC5B205EBD3
:10590000C50000EB0510362202EB80019D480068BF
:1059100003F02AFB002070BD2DE9F0410546002769
:105920000024A0462946012002F024FB401C87B237
:1059300000BF06E03819295C8748EA380155601C29
:1059400084B205F07FFC00683919695C405C20284E
:10595000F0D03819285C2B28ECD000217E48EA389A
:10596000015500207849A1F8A004C8217A48D1380F
:1059700005F0A7FF25E0FFF7C4FB002817DD4FF077
:105980000008FFF7AFFB06460D2E01D00A2E00D10E
:105990001FE06D48B0F8A01400F2D73046546A48B2
:1059A000B0F8A004401C6849A1F8A00409E008F17F
:1059B0000A001FFA80F80A2300221146104603F05D
:1059C000BCFD6148B0F8A004C82802DAB8F57A7FB7
:1059D000D1DB00BF5C48D0F8A40438B15A4800F2CB
:1059E000D731D0F8A42400F2BE3090470020BDE8A3
:1059F000F08101460020704710B5044662A001F016
:105A000030FF644800686421B0FBF1F201FB120032
:105A1000372808D160A001F024FF00204A49A1F8EE
:105A2000B40381F8B603002010BD70B504462146CA
:105A3000032002F09FFA401C044400250AE021786C
:105A40004148001D41552078222800D104E0641C03
:105A5000681CC5B20F2DF2DB00BF00213A48001DC3
:105A60004155002070BD70B50646304605F006FE73
:105A70001E284ED9307A22284BD106F10904002580
:105A80001FE005F0DFFB00682178405C202808D08B
:105A900005F0D8FB00686178405C202801D0012027
:105AA00070BD61782078303800EB800001EB400059
:105AB0003038C1B22848623028444170E41C681C68
:105AC000C5B2062DDDDB2048B0F80A0500121E49DC
:105AD000A1F80A050846B0F80A0500F5FA60A1F831
